:020000021000EC
:10800000203B0220A1960200D59604008D96020026
:108010008D9602008D9602008D9602008D960200CC
:10802000000000000000000000000000499802006D
:108030008D960200000000009D9702008D960200C0
:10804000559A0200559A0200559A0200559A02006C
:10805000559A0200559A0200559A0200559A02005C
:10806000559A0200559A0200559A0200559A02004C
:10807000559A0200559A0200559A0200559A02003C
:10808000559A0200559A0200559A0200559A02002C
:10809000559A0200559A0200559A0200559A02001C
:1080A000559A0200559A0200559A0200559A02000C
:1080B000559A0200559A0200559A0200559A0200FC
:1080C000559A0200559A0200559A0200559A0200EC
:1080D000559A0200559A0200559A0200559A0200DC
:1080E000559A0200559A0200559A0200559A0200CC
:1080F000559A0200559A0200559A0200559A0200BC
:10810000559A0200559A0200559A0200559A0200AB
:10811000559A0200559A0200559A0200559A02009B
:10812000559A0200559A0200559A0200559A02008B
:10813000559A0200559A0200559A0200559A02007B
:04814000559A02004A
:10814800844641EA000313F0030349D1403A23D39C
:108158000B6803604B6843608B688360CB68C360BF
:108168000B6903614B6943618B698361CB69C361A7
:108178000B6A03624B6A43628B6A8362CB6AC3628F
:108188000B6B03634B6B43638B6B8363CB6BC36377
:1081980040304031403ADBD230320BD30B680360B9
:1081A8004B6843608B688360CB68C36010301031C4
:1081B800103AF3D20C3205D351F8043B40F8043B93
:1081C800043AF9D2043208D0D2071CBF11F8013B97
:1081D80000F8013B01D30B8803806046704700BF5D
:1081E800082A13D38B07B1D010F00303AED0C3F124
:1081F8000403D21ADB071CBF11F8013B00F8013B4E
:10820800A4D331F8023B20F8023B9FE7043AD9D3C4
:10821800013A11F8013B00F8013BF9D20B780370E1
:108228004B7843708B78837060467047EC46A0E8C3
:10823800F05F4FF000007047B0E8F05FE5460800D7
:1082480008BF0120704700BF80EA010C1CF0030F33
:1082580037D110F0030C20F0030021F0030150F88F
:10826800042B08BF51F8043B0ED08CF0030C6FF0C0
:108278007F434FEACC0C23FA0CFC51F8043B42EA4A
:108288000C0243EA0C0300BFA2F1013C9A4201BF71
:108298002CEA020C1CF0803F50F8042B51F8043BE8
:1082A800F2D04FEA02604FEA1222012828BFB0EB51
:1082B800036F08BF1B0AF4D003F0FF03000EC01AB7
:1082C800704710F0030F0AD010F8012B11F8013B8A
:1082D800012A28BF9A42F4D0A2EB030070474DF858
:1082E800045D50F8042B01F0030521F0030151F857
:1082F800043B022D26D04DD822F07F45B5EB132F35
:10830800A2F1013C2CEA020C0DD11CF0803C08BF04
:1083180051F8043B0AD185EA0205B5EB036F0CD18D
:1083280050F8042BE8E74FEA13235BE03CF07F4C5E
:1083380054D10B784FEA126554E04FEA126503F006
:10834800FF034FE04FEA0245A2F1013C4FEA154511
:108358002CEA020CB5EB134F18D11CF0803C08BF77
:1083680051F8043B07D185EA0205B5EB034F09D163
:1083780050F8042BE6E75FEA0C4C2FD10B884FEA44
:1083880012452FE04FEA03434FEA12454FEA1343E1
:1083980028E000BF02F0FF05B5EB136FA2F1013C26
:1083A8002CEA020C0DD11CF0803C08BF51F8043BAC
:1083B8000AD185EA0205B5EB032F0AD150F8042B40
:1083C800E8E74FEA13630DE012F0FF0F06D051F80B
:1083D800043B4FEA122523F07F4303E04FF00000EF
:1083E80020BC704705F0FF0203F0FF00012828BFFA
:1083F800904204BF2D0A1B0AF4D0A2EB000020BC57
:10840800704700BF81F0004102E000BF83F00043E5
:1084180030B54FEA41044FEA430594EA050F08BF17
:1084280090EA020F1FBF54EA000C55EA020C7FEADB
:10843800645C7FEA655C00F0E2804FEA5454D4EB58
:108448005555B8BF6D420CDD2C4480EA020281EA22
:10845800030382EA000083EA010180EA020281EA5A
:108468000303362D88BF30BD11F0004F4FEA0131AC
:108478004FF4801C4CEA113102D0404261EB4101BB
:1084880013F0004F4FEA03334CEA133302D0524241
:1084980063EB430394EA050F00F0A780A4F10104FD
:1084A800D5F1200E0DDB02FA0EFC22FA05F2801837
:1084B80041F1000103FA0EF2801843FA05F359411D
:1084C8000EE0A5F120050EF1200E012A03FA0EFC9C
:1084D80028BF4CF0020C43FA05F3C01851EBE371C6
:1084E80001F0004507D54FF0000EDCF1000C7EEBE3
:1084F80000006EEB0101B1F5801F1BD3B1F5001F21
:108508000CD349085FEA30004FEA3C0C04F101043F
:108518004FEA445212F5800F80F09A80BCF1004F68
:1085280008BF5FEA500C50F1000041EB045141EAEA
:10853800050130BD5FEA4C0C404141EB0101013CB3
:1085480028BFB1F5801FE9D291F0000F04BF0146A2
:108558000020B1FA81F308BF2033A3F10B03B3F174
:1085680020020CDA0C3208DD02F1140CC2F10C0204
:1085780001FA0CF021FA02F10CE002F11402D8BF62
:10858800C2F1200C01FA02F120FA0CFCDCBF41EA2E
:108598000C019040E41AA2BF01EB0451294330BDFD
:1085A8006FEA04041F3C1CDA0C340EDC04F11404DA
:1085B800C4F1200220FA04F001FA02F340EA0300B1
:1085C80021FA04F345EA030130BDC4F10C04C4F1F7
:1085D800200220FA02F001FA04F340EA03002946D7
:1085E80030BD21FA04F0294630BD94F0000F83F421
:1085F800801306BF81F480110134013D4EE77FEA04
:10860800645C18BF7FEA655C29D094EA050F08BF4F
:1086180090EA020F05D054EA000C04BF1946104630
:1086280030BD91EA030F1EBF0021002030BD5FEA74
:10863800545C05D14000494128BF41F0004130BD9C
:1086480014F580043CBF01F5801130BD01F00045F0
:1086580045F0FE4141F470014FF0000030BD7FEA63
:10866800645C1ABF194610467FEA655C1CBF0B465E
:10867800024650EA013406BF52EA033591EA030F75
:1086880041F4002130BD00BF90F0000F04BF00216D
:10869800704730B54FF4806404F132044FF00005A0
:1086A8004FF0000150E700BF90F0000F04BF002119
:1086B800704730B54FF4806404F1320410F000457F
:1086C80048BF40424FF000013EE700BF42004FEA7A
:1086D800E2014FEA31014FEA02701FBF12F07F43F7
:1086E80093F07F4F81F06051704732F07F4208BFAE
:1086F800704793F07F4F04BF41F40021704730B5B5
:108708004FF4607401F0004521F000411CE700BF00
:1087180050EA010208BF704730B54FF000050AE083
:1087280050EA010208BF704730B511F0004502D584
:10873800404261EB41014FF4806404F132045FEA86
:10874800915C3FF4D8AE4FF003025FEADC0C18BF2F
:1087580003325FEADC0C18BF033202EBDC02C2F121
:10876800200300FA03FC20FA02F001FA03FE40EAB3
:108778000E0021FA02F11444BDE600BF70B54FF0B7
:10878800FF0C4CF4E06C1CEA11541DBF1CEA135595
:1087980094EA0C0F95EA0C0F00F0DEF82C4481EAFD
:1087A800030621EA4C5123EA4C5350EA013518BF1D
:1087B80052EA033541F4801143F4801338D0A0FB0A
:1087C80002CE4FF00005E1FB02E506F00042E0FBB7
:1087D80003E54FF00006E1FB03569CF0000F18BFBD
:1087E8004EF0010EA4F1FF04B6F5007F64F5407465
:1087F80004D25FEA4E0E6D4146EB060642EAC621F8
:1088080041EA55514FEAC52040EA5E504FEACE2E64
:10881800B4F1FD0C88BFBCF5E06F1ED8BEF1004F67
:1088280008BF5FEA500E50F1000041EB045170BDE3
:1088380006F0004646EA010140EA020081EA030127
:10884800B4EB5C04C2BFD4EB0C0541EA045170BD23
:1088580041F480114FF0000E013C00F3AB8014F19D
:10886800360FDEBF002001F0004170BDC4F10004E6
:10887800203C35DA0C341BDC04F11404C4F1200567
:1088880000FA05F320FA04F001FA05F240EA0200C2
:1088980001F0004221F0004110EBD37021FA04F6F8
:1088A80042EB06015EEA430E08BF20EAD37070BDB2
:1088B800C4F10C04C4F1200500FA04F320FA05F011
:1088C80001FA04F240EA020001F0004110EBD37013
:1088D80041F100015EEA430E08BF20EAD37070BD83
:1088E800C4F1200500FA05F24EEA020E20FA04F35C
:1088F80001FA05F243EA020321FA04F001F000410B
:1089080021FA04F220EA020000EBD3705EEA430E7B
:1089180008BF20EAD37070BD94F0000F0FD101F0AA
:108928000046400041EB010111F4801F08BF013CE3
:10893800F7D041EA060195F0000F18BF704703F021
:108948000046520043EB030313F4801F08BF013DA8
:10895800F7D043EA0603704794EA0C0F0CEA135564
:1089680018BF95EA0C0F0CD050EA410618BF52EA1E
:108978004306D1D181EA030101F000414FF0000024
:1089880070BD50EA410606BF1046194652EA430632
:1089980019D094EA0C0F02D150EA013613D195EAA6
:1089A8000C0F05D152EA03361CBF104619460AD1EE
:1089B80081EA030101F0004141F0FE4141F47001F8
:1089C8004FF0000070BD41F0FE4141F4780170BDE8
:1089D80070B54FF0FF0C4CF4E06C1CEA11541DBF4D
:1089E8001CEA135594EA0C0F95EA0C0F00F0A7F84F
:1089F800A4EB050481EA030E52EA03354FEA01317C
:108A080000F088804FEA03334FF0805545EA13138E
:108A180043EA12634FEA022245EA111545EA106556
:108A28004FEA00260EF000419D4208BF964244F1ED
:108A3800FD0404F5407402D25B084FEA3202B61A0C
:108A480065EB03055B084FEA32024FF480104FF4E0
:108A5800002CB6EB020E75EB030E22BFB61A754654
:108A680040EA0C005B084FEA3202B6EB020E75EBE7
:108A7800030E22BFB61A754640EA5C005B084FEA4F
:108A88003202B6EB020E75EB030E22BFB61A75461C
:108A980040EA9C005B084FEA3202B6EB020E75EB27
:108AA800030E22BFB61A754640EADC0055EA060EE8
:108AB80018D04FEA051545EA16754FEA06164FEA2B
:108AC800C30343EA52734FEAC2025FEA1C1CC0D1D7
:108AD80011F4801F0BD141EA00014FF000004FF064
:108AE800004CB6E711F4801F04BF01430020B4F125
:108AF800FD0C88BFBCF5E06F3FF6AFAEB5EB030CDD
:108B080004BFB6EB020C5FEA500C50F1000041EBD9
:108B1800045170BD0EF0004E4EEA113114EB5C04A6
:108B2800C2BFD4EB0C0541EA045170BD41F4801179
:108B38004FF0000E013C90E645EA060E8DE60CEA81
:108B4800135594EA0C0F08BF95EA0C0F3FF43BAF9E
:108B580094EA0C0F0AD150EA01347FF434AF95EA55
:108B68000C0F7FF425AF104619462CE795EA0C0F39
:108B780006D152EA03353FF4FDAE1046194622E706
:108B880050EA410618BF52EA43067FF4C5AE50EAE0
:108B980041047FF40DAF52EA43057FF4EBAE12E7D0
:108BA8004FF0FF3C06E000BF4FF0010C02E000BFB1
:108BB8004FF0010C4DF804CD4FEA410C7FEA6C5C94
:108BC8004FEA430C18BF7FEA6C5C1BD001B050EA37
:108BD800410C0CBF52EA430C91EA030F02BF90EA22
:108BE800020F0020704710F1000F91EA030F58BFE1
:108BF800994208BF90422CBFD8176FEAE37040F043
:108C0800010070474FEA410C7FEA6C5C02D150EAE0
:108C1800013C07D14FEA430C7FEA6C5CD6D152EA9B
:108C2800033CD3D05DF8040B704700BF8446104660
:108C380062468C461946634600E000BF01B5FFF75F
:108C4800B7FF002848BF10F1000F01BD4DF808ED2F
:108C5800FFF7F4FF0CBF012000205DF808FB00BF00
:108C68004DF808EDFFF7EAFF34BF012000205DF85A
:108C780008FB00BF4DF808EDFFF7E0FF94BF0120A7
:108C880000205DF808FB00BF4DF808EDFFF7CEFFA8
:108C980094BF012000205DF808FB00BF4DF808EDE7
:108CA800FFF7C4FF34BF012000205DF808FB00BFB8
:108CB8004FEA410C7FEA6C5C02D150EA013C0AD1D0
:108CC8004FEA430C7FEA6C5C02D152EA033C02D1C2
:108CD8004FF0000070474FF0010070474FEA410223
:108CE80012F5001215D211D56FF47873B3EB6252F6
:108CF80012D94FEAC12343F0004343EA505311F01D
:108D0800004F23FA02F018BF404270474FF00000AE
:108D1800704750EA013005D111F0004008BF6FF0EC
:108D2800004070474FF00000704700BF4A0011D262
:108D380012F5001211D20DD56FF47873B3EB6252AD
:108D48000ED44FEAC12343F0004343EA505323FAB9
:108D580002F070474FF00000704750EA013002D12E
:108D68004FF0FF3070474FF0000070474FEA410264
:108D7800B2F1E04324BFB3F5001CDCF1FE5C0DD971
:108D880001F0004C4FEAC0024CEA5070B2F1004FBB
:108D980040EB830008BF20F00100704711F0804FBE
:108DA80021D113F13872BCBF01F00040704741F483
:108DB80080114FEA5252C2F11802C2F1200C10FA87
:108DC8000CF320FA02F018BF40F001004FEAC1236B
:108DD8004FEAD32303FA0CFC40EA0C0023FA02F30F
:108DE8004FEA4303CCE77FEA625307D150EA0133E5
:108DF8001EBF4FF0FE4040F44000704701F00040B5
:108E080040F0FE4040F40000704700BF80F0004092
:108E180002E000BF81F0004142001FBF5FEA41034A
:108E280092EA030F7FEA226C7FEA236C6AD04FEA4A
:108E38001262D2EB1363C1BFD2184140484041408F
:108E4800B8BF5B42192B88BF704710F0004F40F441
:108E5800000020F07F4018BF404211F0004F41F45D
:108E6800000121F07F4118BF494292EA030F3FD029
:108E7800A2F1010241FA03FC10EB0C00C3F120033C
:108E880001FA03F100F0004302D5494260EB4000CB
:108E9800B0F5000F13D3B0F1807F06D340084FEA36
:108EA800310102F10102FE2A51D2B1F1004F40EB2B
:108EB800C25008BF20F0010040EA03007047490093
:108EC80040EB0000013A28BFB0F5000FEDD2B0FA30
:108ED80080FCACF1080CB2EB0C0200FA0CF0AABF53
:108EE80000EBC25052421843BCBFD04018437047F1
:108EF80092F0000F81F4000106BF80F400000132F7
:108F0800013BB5E74FEA41037FEA226C18BF7FEACD
:108F1800236C21D092EA030F04D092F0000F08BF0F
:108F28000846704790EA010F1CBF0020704712F0F6
:108F38007F4F04D1400028BF40F00040704712F135
:108F480000723CBF00F50000704700F0004343F09A
:108F5800FE4040F4000070477FEA226216BF0846D0
:108F68007FEA23630146420206BF5FEA412390EA93
:108F7800010F40F4800070474FF0000304E000BF89
:108F880010F0004348BF40425FEA000C08BF70473A
:108F980043F0964301464FF000001CE050EA0102FE
:108FA80008BF70474FF000030AE000BF50EA010213
:108FB80008BF704711F0004302D5404261EB410100
:108FC8005FEA010C02BF84460146002043F0B64325
:108FD80008BFA3F18053A3F50003BCFA8CF2083A4A
:108FE800A3EBC25310DB01FA02FC634400FA02FC53
:108FF800C2F12002BCF1004F20FA02F243EB02005A
:1090080008BF20F00100704702F1200201FA02FCBB
:10901800C2F1200250EA4C0021FA02F243EB0200AE
:1090280008BF20EADC7070477BB972B90029BEBF5F
:1090380000204FF0004106E008BF00281CBF6FF079
:1090480000414FF0FF3000F075B8ADF1080C6DE944
:1090580004CE002909DB002B1ADB00F084F8DDF8C8
:1090680004E0DDE9022304B07047404261EB4101AE
:10907800002B1BDB00F077F8DDF804E0DDE90223C4
:1090880004B0404261EB4101524263EB4303704735
:10909800524263EB430300F066F8DDF804E0DDE9D3
:1090A800022304B0404261EB41017047524263EB36
:1090B800430300F058F8DDF804E0DDE9022304B0CA
:1090C800524263EB4303704753B94AB9002908BFBA
:1090D80000281CBF4FF0FF314FF0FF3000F02AB8D6
:1090E800ADF1080C6DE904CE00F03DF8DDF804E0C0
:1090F800DDE9022304B07047D0B500220B4B0646C9
:109108000F46FFF73BFBFFF711FE0446FFF7BCFADB
:109118000022074BFFF732FB02460B463046394622
:10912800FFF774F9FFF702FE2146D0BD0000F03DBD
:109138000000F041704700BF38B500220023044604
:109148000D46FFF78DFD28B920462946BDE8384071
:10915800FFF7D2BF204605F10041FFF7CDFF40429F
:1091680061EB410138BD2DE9F04786468C4608463B
:10917800089E154674461946002B40F0C18085426A
:10918800B2FA82F245D94AB1C2F1200300FA02FCD0
:10919800954094402EFA03F343EA0C0C4FEA154E1F
:1091A800A8B2230CBCFBFEF80EFB18CC08FB00F998
:1091B80043EA0C43994528D9EB1808F1FF3704D244
:1091C800994502D9A8F102072B44A3EB0903A4B2DD
:1091D800B3FBFEFC0EFB1C330CFB00F044EA03441B
:1091E800A04214D92C190CF1FF3304D2A04202D9A1
:1091F800ACF102032C44241A43EA07401EB1D440C0
:10920800002334607360BDE8F0874746DDE76346B6
:10921800F1E792BB431B01214FEA154EAFB2200C78
:10922800B3FBFEFC0EFB1C330CFB07F840EA0343C0
:10923800984561D9EB180CF1FF3004D2984502D952
:10924800ACF102002B44A3EB0803A4B2B3FBFEFC71
:109258000EFB1C330CFB07F744EA0344A7424DD925
:109268002C190CF1FF3304D2A74202D9ACF1020346
:109278002C44E41B43EA0040C0E7C2F120039540B8
:10928800944020FA03F12EFA03F34FEA154E90406A
:10929800AFB20343B1FBFEFC0EFB1C10190C0CFB18
:1092A80007F841EA0041884522D969180CF1FF30D6
:1092B80004D2884502D9ACF102002944A1EB080187
:1092C8009BB2B1FBFEFC0EFB1C110CFB07F743EA3B
:1092D80001439F420ED9EB180CF1FF3104D29F4293
:1092E80002D9ACF102012B44DB1B41EA004193E7B0
:1092F8006046E3E76146F7E76046A4E76346B8E7F8
:10930800834206D916B9002108467CE7C6E900E081
:10931800F9E7B3FA83F78FB9834201D3724508D8C6
:10932800BEEB020460EB030301209C461EB900213A
:1093380069E73846FAE7C6E9004CF8E7C7F1200CB8
:10934800BB400EFA07F522FA0CF42EFA0CF1BA40DB
:109358001C4320FA0CF3B8404FEA144901431FFAA2
:1093680084FEB3FBF9F809FB18300B0C08FB0EFA66
:1093780043EA00439A4540D9E31808F1FF3004D284
:109388009A4502D9A8F102002344A3EB0A0389B243
:10939800B3FBF9F809FB183308FB0EFE41EA034159
:1093A8008E452CD9611808F1FF3304D28E4502D9B5
:1093B800A8F10203214443EA0040A1EB0E01A0FBFF
:1093C80002984145CE46434602D306D14D4504D2C4
:1093D8000138B9EB020E68EB0403002EA7D0B5EBF9
:1093E8000E0261EB030101FA0CFC22FA07F3F940C3
:1093F8004CEA0303C6E9003199E74046C5E743460E
:10940800D9E70000000000002DE9F04F2DED028B98
:10941800CFB0032104AF794A79482EF065FF0023C5
:109428007B63784B4FF480523B6307F130037649F6
:1094380076480093052323F037F90BF0F7FF03462E
:1094480020B10221724A6E482EF050FF0321714A62
:109458006B482EF049FF0CF0E9F90446002837D094
:1094680003466D4A012166482EF040FF234601213C
:109478006A4A63482EF03AFF0BF098FC0BF0DEFDC9
:109488000CF0A4FF0DF072FE034620B10221644ADD
:109498005B482EF02BFF0321624A59482EF024FF27
:1094A8001BF01CFB044638B303465F4A01215448AD
:1094B8002EF01CFF23465D4A012151482EF016FF6D
:1094C800204607F59677BD46BDEC028BBDE8F08FC8
:1094D800002140F6CD403EF030FA0CF0B9F90446D0
:1094E80010B10346524ABDE70CF0F8FC04460028C8
:1094F800C2D003464F4AB5E74F481CF085F9012012
:109508003AF0ECFE034620B102214C4A3C482EF0CA
:10951800EDFE03214A4A3A482EF0E6FE3AF0D9FE1B
:10952800044610B10346474AC0E700234FF4160229
:10953800454822F057FF454A032131482EF0D4FE12
:10954800434944483EF0E3F830480BF0F9FB034642
:1095580020B10221404A2A482EF0C8FE03213F4A82
:1095680027482EF0C1FE3E4822F086FA044640B154
:1095780003463C4A012122482EF0B8FE23463A4AC7
:109588009AE7052022F0F2F9034620B10221374A72
:109598001B482EF0ABFE012022F014FA044610B14D
:1095A8000346334AE6E722F03BFA034620B102219C
:1095B800304A13482EF09AFE22F068F9044610B19A
:1095C80003462D4AD6E703212C4A0D482EF08CFE7F
:1095D8002B4C2C4820603DF0DCFE002858D101219E
:1095E800294A07482EF080FE6FF012030121274A0E
:1095F80003482EF07BFE6FF0120461E7A2B005006D
:109608008C840500CBB00500E0B8012088E6002076
:10961800D6B0050003B105001BB105006EB1050009
:1096280086B10500C2B10500D8B1050055B20500E4
:1096380035B105004EB10500F9820400F6B1050008
:1096480010B205002DB2050074E4002047B20500F1
:10965800654A0200346201206BB205009CB2050025
:10966800C1490200B1B2050068B30500D6B20500D1
:10967800F1B2050010B305002DB3050046B305008F
:1096880030620120448005007DB3050095B30500D4
:10969800012307250622C7E92A533F2107F1A8031A
:1096A80020682EF014FE0346002800F0B98002213D
:1096B800734A74482EF01AFE072000230622C7E9D1
:1096C8002A030D2107F1A80320682EF000FE0346A7
:1096D800002800F0AB8002216B4A6A482EF006FE93
:1096E800172300223F21C7E92A32206807F1A8037F
:1096F8002EF0EDFD034620B10221644A61482EF0A8
:10970800F5FD002303251422C7E92A533F2107F159
:10971800A80320682EF0DBFD0346002800F08C80AB
:1097280002215B4A57482EF0E1FD002140F6CD406A
:109738003EF003F9206883683F21DB6898470346B9
:1097480020B10221534A4F482EF0D0FD0321524A3E
:109758004C482EF0C9FD0CF08BF9A8B103214F4AF3
:1097680048482EF0C1FD0CF045FD0446002869D09C
:1097780003464B4A012143482EF0B8FD23460121F8
:10978800474A40482EF0B2FD00252E46A846032140
:10979800444A3C482EF0A8FD23F0E6FE7D623EF0E8
:1097A80046F94FF47A72A0FB020302FB0131C40BA5
:1097B80044EA41444FEAD13A002200233A4822F0D1
:1097C80011FE10B939482EF0DCFD7B6AE21A6AEB0B
:1097D8000803642A73F10003C0F22981DFF8F090CE
:1097E800D9F8000083683F21DB689847804680B934
:1097F800D9F8000083680E211B6907F18802984791
:109808008046002866D003460221294A1D482EF0CA
:109818006DFD43460221274A1A482EF067FD04E1F0
:109828000321254A17482EF05FFD45E70321234A07
:1098380014482EF059FD53E72946214A11482EF0C5
:1098480053FD72E70CF01EFE044610B103461D4A94
:1098580090E70CF043FD6D4688B004AA1A4BC2E9A4
:1098680005304FF400739383184B42F8103F4FF4C0
:10987800E651234603480EF091FEAD4684E700BF4B
:10988800AFB305008C84050009B4050065B4050074
:109898007BB40500BBB40500E8B405001DB50500A0
:1098A80035B5050086B505008CE40020A0E500204C
:1098B800B2B505006CB60500CEB3050034B405009A
:1098C8009DB4050051B5050072B5050003000001FF
:1098D80030620120D9F8000083680D211B6907F167
:1098E800A8029847034630B10221D74AD7482EF03C
:1098F800FDFCC7E92A88D7F88C00FEF7D5FED0A36F
:10990800D3E90023FFF764F88046D7F88800894632
:10991800FEF7CAFE02460B4640464946FEF778FD6A
:10992800FFF724FA08EE100AD7F8AC00FEF7BCFEE1
:10993800C3A3D3E90023FFF74BF88046D7F8A80064
:109948008946FEF7B1FE02460B4640464946FEF7F9
:109958005FFDFFF70BFADFEDBE7AB4EEE78AF1EEB2
:1099680010FA08EE900A06D4DFEDBA7AB4EEE78A68
:10997800F1EE10FA1BDDE94688B00DF11008B64B80
:1099880018EE100AC8F81430FEF7A0FE00220023D3
:10999800FEF73EFD42460423C8E9060142F8103F9F
:1099A80000234FF40251A9480EF0F8FDCD46DFED33
:1099B800AB7AF4EEE78AF1EE10FA06D4DFEDA87A76
:1099C800F4EEE78AF1EE10FA1BDDE94688B00DF1F6
:1099D8001008A44B18EE900AC8F81430FEF776FE6B
:1099E80000220023FEF714FD42460423C8E90601BD
:1099F80042F8103F00234FF4025194480EF0CEFD78
:109A0800CD46B5EEC08AF1EE10FA40F34B81DFED9A
:109A1800967AB4EEE78AF1EE10FA40F14381F0EE5F
:109A2800680AB0EE480A0CF0C9FED0467C6242F2E1
:109A38001072611B6AEB0603914273F10003C0F2D6
:109A480027810BF0FDF906460BF03CFB81460BF035
:109A5800A1FE00234FF47A72FFF7E6FAC7E90A017C
:109A680007F1280023F0EEFD0346002800F03781B7
:109A780020217E4A07F1680025F0AEFE7C4B7C224F
:109A88001D460021C7F8A83007F1AC0024F00CFAF5
:109A980000211C22C7F8885007F18C0024F004FA32
:109AA800744807F138012EF0E3FF002840F01D81CB
:109AB800D7E90E3515EB030B00F0198107EE905A24
:109AC800B8EE677ADFED667A27EE277A07EE90BA66
:109AD800F8EE676AC7EE267A17EE900AFEF7F6FDEB
:109AE8002B46CDE90201644A8021CDF800B007F188
:109AF800A80024F0CFFE07F150003DF045FE0346D4
:109B0800002840F0FA80D7E914B55BEA050300F0B5
:109B1800F180D7E91601FFF741FA294608EE900AC5
:109B28005846FFF73BFA9FED4E8A07EE100A68EE9B
:109B3800888AC8EE877AF4EE487AF1EE10FA78FE51
:109B4800277A17EE900AFEF7C1FD4C4ACDE90001CD
:109B5800202107F1880024F09DFE0BF047F90BF057
:109B680073F983460BF0A8FA0BF0B0FA0022054609
:109B7800D6E906010023FEF74BFC00220023C7E9C3
:109B88000601D6E90801FEF743FCC7E90401306B7A
:109B9800FEF79CFD00220023FEF73AFCC7E902010C
:109BA800D9F81800FEF792FD00220023FEF730FCDA
:109BB800C7E90001D9F81C00FEF788FD0022002340
:109BC800FEF726FC6E469AB004AB97ED067B83ED54
:109BD8000A7B97ED047B83ED0C7B97ED027B284A8B
:109BE800C3E912015A6107F16802C3E9062B07F1BC
:109BF800A8021A652349244A83ED0E7BC7E911128E
:109C080041F209121D6297ED007B3546A7F84C20FA
:109C180007F188025A6507F1440283ED107B07CAF1
:109C280003C52A801A46194B42F8103F00234AF20E
:109C3800C04106480EF0B2FC2546B546564627E018
:109C48000000000080842E41D6B505008C840500F4
:109C5800005043470060EA4708B60500000048C2C4
:109C68000000C84227B605000050434881B60500E9
:109C78004E2F41003CE3002093B60500A9B605002D
:109C8800B7B605000002010302040810120000051F
:109C98000CF0D6FF0DF090FA002140F6CD403DF0D3
:109CA8004CFE7CE5E94688B00DF11008164B18EE1D
:109CB800100AC8F81430FEF709FD00220023FEF749
:109CC800A7FB42460423C8E9060142F8103F0023D7
:109CD8004FF402510D480EF061FCCD46A5E60C4943
:109CE80007F1680024F0C4FEC8E60025AB46DFEDA6
:109CF800097AF1E6DFED077A23E72021064A07F122
:109D0800880024F0C7FD28E748B605008C840500C4
:109D18006DAF050000000000B0B6050000000000AF
:109D28002DE9F04F2DED028B0124AFB0DFF82C9216
:109D380002AF54220021786007F15C0089F80040E6
:109D480024F0B2F84FF48063BC66734C0621734A62
:109D58003B6607F1100041F66C4324F09BFD20465A
:109D680007F10C0307F15C0207F110012FF06EFDFB
:109D7800F8B16D468AB002AA694BD061C2E90534D0
:109D88004FF400731384674B42F8103F00234FF4DD
:109D9800115165480EF002FCAD464FF0FF35002327
:109DA8002846B43789F80030BD46BDEC028BBDE8C3
:109DB800F08F9FED578BFD685C4CD5B100262A22A9
:109DC800314607F13000FE6224F06EF8D5F81C80A9
:109DD80006220121B8F800002FF053FDB0422060A0
:109DE80018DA2FF01FFD0368514A01214E482FF061
:109DF80057FBF8682FF028FD4B4801214D4A2FF0FA
:109E080046FB20680028C8DB2FF00EFD4FF0FF331B
:109E18002360C2E710233E6287ED068B142200936D
:109E2800012107F118032FF025FD064620B12FF078
:109E3800F9FC0368404AD8E7414607F12C0B5A461B
:109E48002E2331F8040B2FF0FBFCEA468AB002AA55
:109E58003A4BC2E9053B41F66C434FF4007BD361B2
:109E6800304BA2F820B042F8103F4FF4135133465C
:109E78002D480EF093FB4146D546AA6920682FF07D
:109E8800E7FC064678B120682FF0CEFC4FF0FF3390
:109E980023602FF0C7FC03680221294A22482FF0CB
:109EA800FFFA2D6889E7F8682FF0CEFC0321254AD0
:109EB8001D482FF0ECFA78681CF000FC224A051EB9
:109EC80088B0224B08BF134602AA2149A2F81CB049
:109ED800C2E905131F4B42F8103F134833464FF4AD
:109EE800E6510EF05BFB2068D5460028FFF657AF19
:109EF8002FF09AFC002804DA0121174A0A482FF0AB
:109F0800C6FA4FF0FF33236049E700BFAFF3008084
:109F180001000000000000008AB80500D9BB050058
:109F2800A4B80500040000013C85050084CC00208D
:109F3800CDB805006BB90500EFB8050016B90500E6
:109F48002FB9050055B905009AB80500D5D6050002
:109F58008CB90500030000019CB90500F3710120CC
:109F68002DE9F04F824617461C4600259FB0039105
:109F7800387810B9284600F0A9BD252809D00399DA
:109F8800D0470028C0F2A2857B1C01350593059FA8
:109F9800EEE71822002110A823F086FF7B78252BF6
:109FA80000F0BC80002398469E469C461846791CC3
:109FB8000E4611F8012B2B2A00F0E38000F2DA801C
:109FC800202A00F0E180232A00F0E1802BB19DF8DF
:109FD800483043F040038DF84830B8F1000F05D001
:109FE8009DF8483043F020038DF84830BEF1000F4B
:109FF80005D09DF8483043F010038DF84830BCF187
:10A00800000F05D09DF8483043F008038DF848301C
:10A0180028B19DF8483043F004038DF848309DF886
:10A02800483003F04401442903D16FF386138DF8B7
:10A0380048309DF848302A2A43F080030E968DF860
:10A04800483040F0A9809DF8493043F001038DF86D
:10A058004930731C1A782E2A0CBF012100219DF863
:10A06800492061F341028DF849200CD15A1C0E9207
:10A078005A782A2A40F0A0809DF84920023342F0FD
:10A0880004028DF849201A786C2A00F0C18000F289
:10A09800A380682A00F0A9806A2A00F0C2804C2AAE
:10A0A80000F0C78013F8012B782A05938DF84B2010
:10A0B80000F209816D2A00F2C980692A00F2038141
:10A0C800572A00F2E280412A04D0A2F14503022B6C
:10A0D80000F2F98004219DF84A3002F0DF02A2F173
:10A0E800410961F30203D9F100029DF8491042EBDE
:10A0F800090262F3C7110A068DF84A308DF8491033
:10A10800CBB200F11F8103F07802182A40F00981D0
:10A118006FF3C6038DF849300023F8E08DF84B3013
:10A12800BB1C05939DF849309DF84A20DE0702F0D4
:10A13800070040F1098154F8041B0029049108DA4A
:10A148009DF8481041F004018DF8481004994942DF
:10A158000491590740F1008154F8046B002E80F2F5
:10A16800FF809DF849306FF341038DF849304FF077
:10A17800FF36F5E02D2A0DD0302A7FF427AF0123D2
:10A1880016E74FF0010C13E74FF0010E10E74FF000
:10A1980001080DE701200BE70EA80DF0DDFD0E9B71
:10A1A800B3423FF457AF9DF848201390C00F60F3B7
:10A1B80041028DF848204DE70EA80DF0CDFD9DF821
:10A1C80048301490C3F3400242EAD07262F341036C
:10A1D8008DF848300E9B56E7742A26D07A2A7FF4E9
:10A1E80061AF06219DF849200CE05A78682A9DF84D
:10A1F800492006D1012161F3C6028DF849200233B6
:10A2080050E7022161F3C6028DF84920013349E77E
:10A218005A786C2A9DF8492001D10421EBE70321E3
:10A22800F0E705219DF84920ECE707219DF8492032
:10A23800E8E7BDF8482022F4F04222F0020242F496
:10A24800804242F00202ADF84820DFE76E3AD3B20E
:10A2580001229A4040F282431A429DF8493039D18E
:10A2680012F0240F61D1D1072DD503219DF84A2082
:10A2780003F07803A3F1400861F30202D8F1000368
:10A288008DF84A2043EB080341E00120A2F1580170
:10A29800C9B200FA01F111F4624F7FF41BAF40F626
:10A2A800010319429DF849301AD111F4043F0AD02C
:10A2B8009DF84A2060F3020203F07803402B8DF8E2
:10A2C8004A207FF429AF9DF8483043F001038DF808
:10A2D800483021E702219DF84A2061F30202EBE7AA
:10A2E80002209DF84A1003F0780360F30201402B26
:10A2F8008DF84A1002BF9DF8481041F001018DF811
:10A308004810632A7FF408AF003B18BF01239DF86B
:10A318004820C2F340010B4363F341028DF8482003
:10A3280000E713F0380FCED1F6E603219DF84A2056
:10A3380013F0780F61F3020214BF012300238DF894
:10A348004A20E4E70123E2E79DF948100029ACBF61
:10A358004FF0FF311399FBE69E077FF508AF149E77
:10A3680000230428CDE913339DF8493007D1990714
:10A3780005D49DF949100029ACBF06260D2602F028
:10A388000702012AC3F3C30332D1DA1E042A04D810
:10A39800DFE802F02045452020002268012B4FEA23
:10A3A800E271CDE910211BD19DF94020D117CDE9EB
:10A3B800102104349DF84820069292074FD03A465F
:10A3C8005046059B03992EF053FC0028C0F27E836B
:10A3D8000544DCE554F8042BD117CDE91021E9E751
:10A3E800022BE6D111B242F3C032CDE91012E0E7F8
:10A3F800022A24D1DA1E042A04D8DFE802F0181051
:10A4080010181800012B4FF0000154F8042B14D039
:10A41800022BCDE91021CDD192B21092CAE70734B0
:10A4280024F00704F4E80201CDE91001C2E754F86A
:10A43800042B109200221192BCE7D2B2CDE7042A75
:10A4480008D1073424F00704D4E900010834CDE921
:10A458001001AFE7032AADD154F8042BDDE79DF8CE
:10A468004B80B8F1780F3FF692ADB8F1570F5CD832
:10A47800B8F1250F00F0A480B8F1240F7FF687AD5E
:10A48800B8F1410F04D0A8F14503022B3FF67FAD88
:10A49800DDE91023002BC0F24D810699080700F171
:10A4A8004C81C1F300194FEA4919C3F30A51C3F3A8
:10A4B8001303002940F0448152EA030014BF4FF00F
:10A4C800010C4FF0000CD80240EA5250D702CDE9F7
:10A4D8000C70B8F1460F47EA010740EAE17008BF7F
:10A4E8004FF06608384300F0B781BCF1000F10D078
:10A4F8001B0343EA125317033A4618464FF0000C61
:10A50800002880F25681BCF1000F40F05981CDE956
:10A518000C730D9BA1F2FE3B43F000430D93002109
:10A52800DDE90C230F46052060E1A8F15802202A36
:10A538003FF62DAD01A151F822F000BF0FA7010091
:10A54800979F0100979F0100979F0100979F010027
:10A55800979F0100979F0100979F0100979F010017
:10A5680099A40100979F0100BBA60100CFA6010096
:10A5780099A4010099A4010099A40100979F0100E2
:10A58800CFA60100979F0100979F0100979F0100A8
:10A59800979F010015A701000FA701005FA6010002
:10A5A800979F0100979F0100D9A50100979F01007F
:10A5B8000FA70100979F0100979F01000FA70100B7
:10A5C80040460399D0470028C0F280820135DEE476
:10A5D800002E109F3BDB3146384625F0CDF9002F81
:10A5E8003FF4D5AC4FF000093E18F31B9DF84A2004
:10A5F80012F01001069100F05E82023312F0400260
:10A60800DDF84C80089218BF149A434418BF9B1871
:10A61800049ACDF81C80002A40F36882D31A9DF86A
:10A62800482004935007C2F3800B00F15F82510663
:10A6380040F14F82B9F1000F07D048460399D0473F
:10A648000028C0F24382D9460135302242E238461A
:10A6580025F0C4F8C6E71098002800F027820DF10D
:10A6680075030093002117AB12AA0DF08BFB4FF076
:10A6780000090746BDF84A3003F0EF0343F4F043FE
:10A6880043F01003ADF84A30002E0CDB9DF848204B
:10A698000DF17503DB1B6FF386129E428DF848207F
:10A6A80001D9F31A1393002F3FF471AC0DF175061D
:10A6B8006DE0109B4FF000098DF85C300DF15D06E0
:10A6C800012317AF92E7069B1F0754BFC3F3001976
:10A6D8004FF02B09DDE9102358BF4FEA4919002B29
:10A6E80006DA4FF02D09524263EB4303CDE91023FC
:10A6F800DDE910010DF17503009312AA17AB0DF0F7
:10A7080041FB0746C0E74FF00009F1E7109A072B15
:10A718003FF63DACDFE803F00C04060C08080C0C0F
:10A72800157034E4158032E4EB17C2E900532EE4C7
:10A7380015602CE44FF02D09B7E64FF02B09B4E66D
:10A7480040F2FF70814231D1A34908F101085FFA54
:10A7580088F811F80810134301F003011ED10129EC
:10A768000BBF492369234E216E210CBF4622662266
:10A778008DF85C309DF848308DF85D106FF38613C6
:10A788008DF85E208DF848300DF15F0617AFF31B8A
:10A79800B9F1000F3FF42AAF013327E7012915BFAC
:10A7A8006E234E23612141211A46E1E74FF0000C48
:10A7B80089E692184FF0010C01F1FF3140419FE604
:10A7C800CDE90C20A5E6520842EAC3725B08B3F152
:10A7D800333F59460BF1010BF5D201F1020B012170
:10A7E80000FB03FCA2FB0023013F63441BF1020FA3
:10A7F800E9DB09B1CDE90C23DDE90C32BBF1000F2F
:10A808002DDCCBF10401A1F120000BF11C0B02FAA5
:10A818000BFB22FA00F0CA40CB40079208F0DF0297
:10A8280043EA0B03472A43EA00037BD1F91C01DB07
:10A83800BE422ADAA8F10208002E5FFA88F87ADD0B
:10A848009DF84820013E920675D4B6F1000B18BF5A
:10A858004FF0010B721C26E04FF0000B5FE602334D
:10A8680042F100020CA80BF1FF3B0137CDE90C3295
:10A878002EF0CFF9DDE90C32DB185241002A0BF13A
:10A88800FF3BF9DACDE90C32B6E79DF84820F61B14
:10A8980090064DD4B6F1000B18BF4FF0010BF2191A
:10A8A8004FF066084AD4102AA8BF10229FED487BB3
:10A8B80010208DED0E7B0B90DDE90E01002A3FD1B3
:10A8C800079A1B1842EB0101B1F1805F47D2CDE92D
:10A8D8000C31069BB8F1660F03F0200240F0C680E9
:10A8E800002F47DC30238DF85C30002A76D1002E0B
:10A8F80040F3BD812E238DF85D3087B17B42B34292
:10A90800A8BF3346002B1393A6EB0306D4BF00233E
:10A9180001239DF84A2063F345128DF84A200DF172
:10A928005E0340E0B8F1660F4FF0000BB7D091E737
:10A938004FF0000BB3E74FF0000B8BE70022B5E7B1
:10A94800400840EAC1704908CDE90E010EA8CDE9DA
:10A9580008232EF05EF9089A099B013AACE75B08D8
:10A9680043EAC1730CA84908CDE90C3101372EF030
:10A9780050F9AEE717AB0B9900290BDD0BA90CA812
:10A98800CDE906322EF05DF9069B013F079A03F8E0
:10A99800010BF0D11397AAB9002E40F366812E213E
:10A9A80003F8011B0027002E21DD0B9A002A1EDD6B
:10A9B8000BA90CA806932EF044F9069B013E03F858
:10A9C800010BF0E72E2203F8012BEBE7AFF3008031
:10A9D800000000000000000820A205002E238DF8CA
:10A9E8005D30002F9BD0002E88DC0DF15E03BBF19B
:10A9F800000F4FD114961E4608F0DF03452B24D1D3
:10AA0800002FBABF7F422D232B23632FC8BF642298
:10AA18007370C4BFB7FBF2F302FB13774FF00A025F
:10AA2800C8BF03F13001B7FBF2F3C8BFB17003F13F
:10AA3800300102FB137386F8008003F13003D4BFA2
:10AA480002360336317073700236139B002B2BDCF1
:10AA5800149B002BD4BF002301239DF84A2063F3E5
:10AA6800861200238DF84A2033708FE60BA90CA8B4
:10AA780006922EF0E6F8069A30288DF85C0018BF8A
:10AA880007F1FF3712B9002E40F3F1802E238DF81D
:10AA98005D3044E71E4616F8012C013B302AF9D0F8
:10AAA8002E2A08BF1E46A7E70123D6E7714E814626
:10AAB8000523771F9AE5110748BF01339EE5104625
:10AAC80009920399D0470028099A05DA1FB0BDE812
:10AAD800F08F2022DDF810B0594600290BF1FF3B1A
:10AAE800EDDC049BCDF810B02B445D1AB9F1000FD2
:10AAF80005D048460399D0470028E7DB0135089B75
:10AB0800002B77D09DF94930002B28DB3B46DFF836
:10AB1800689118789B4619F80020013352073FD4F2
:10AB28009DF84A30EF1B98065F4407D44246002A36
:10AB380008F1FF383BDC079B3B449F1A9BF8000059
:10AB48002E280AD10399D0470028BFDBB8F1000F9F
:10AB580007F1010731DC0BF1010B5D4638E0B9461E
:10AB680099F80000C846702809F1010913D1EF1BB4
:10AB7800149D47443D44EB1B002B33DC33464246CF
:10AB8800504603992EF074F800289FDB3844049E41
:10AB98000546064464E00399D0470028E0DA95E7C3
:10ABA80006930399D0470028069BB2DA8EE7302037
:10ABB8000399D0470028B9DA88E730200399D047AD
:10ABC80008F1FF38C0E70399D0470028FFF67EAFA9
:10ABD8002878A84619F8003001355907F3D4A7EBAF
:10ABE8000B07C5E730200399D0470028FFF66EAF62
:10ABF8000137C0E79DF84A30DA0601D41B0706D5AD
:10AC080030200399D0470028FFF660AF0135069B36
:10AC18003BB103999DF84B00D0470028FFF656AF8B
:10AC28000135A84406E030200399D0470028FFF6F4
:10AC38004DAF0135A8EB0503002BF4DC33463A464B
:10AC4800504603992EF014F80028FFF63FAF284429
:10AC58009DE720200399D0470028FFF637AF01353C
:10AC6800731B002BF5DCFFF792B91746BFE60DF111
:10AC78005D03BCE655C9050021A2050000000000DF
:10AC880001282DE9F041884607D02EF0CBFD162388
:10AC980003604FF0FF30BDE8F0818A68244B9A4288
:10ACA800F3D83CF0C4FE05460F463CF0C0FE214CEC
:10ACB800D8F80030D8F80420A3FB043604FB026659
:10ACC800D8F808209B1846EBE276EA0B42EA47429E
:10ACD800A2FB0421FF0B9B1AC0F30E0204FB071111
:10ACE800A2FB04244FEAD23242EA444266EB010155
:10ACF800981A61F100010CA3D3E90023FEF794F937
:10AD0800EFF31184202383F31288BFF36F8F0A4B6C
:10AD1800C3E900019A6084F31188BFF36F8F0020A4
:10AD2800B9E700BFAFF3008000CA9A3B00000000FB
:10AD3800FFC99A3B00CA9A3B704F012000000000EF
:10AD4800032973B50546144671D8002A40D0072A4E
:10AD58005CD15A681C6813463948D117C4FB0031C6
:10AD6800012B71F1000225DB00F56E1000F65D7015
:10AD7800181841F1000130A3D3E90023FEF754F974
:10AD880080B202281ED004281ED008281ED0102801
:10AD980033D103232B492A6951F82310284611611E
:10ADA8005268232114693022A4461B0102B0BDE871
:10ADB800704060472448181861F100011EA3D3E9C8
:10ADC8000023DBE70023E5E70123E3E70223E1E7CC
:10ADD8001A881E4B33F8021B8A420BD12E69202198
:10ADE800736828469B680DF107029847002807DA20
:10ADF80002B070BD01340B2CECD16FF01500F7E7F1
:10AE08009DF80720130704D4082C05D16FF085009E
:10AE1800EEE70A2C08BF0924736802F00F0242EA21
:10AE2800041220212846DB68D2B29847E0E702B036
:10AE3800BDE8704014F016BB3AA39500000000006E
:10AE480040420F0020D10020632EB5FFFCAA050068
:10AE58002DE9F04F00232DED048B0446C0F8403354
:10AE6800C02199B031F072FBD4F8A4250646D2F877
:10AE780064317BB1D2F868310133C2F86831D4F853
:10AE8800A425D2F86421934204DD0022B62120468D
:10AE980033F018FB204631F0DAFD0706307037D55D
:10AEA800D4F8A425D2F8643153B1D2F8683101330B
:10AEB800C2F86831D4F8A425D2F864219342E4DCBE
:10AEC800204631F00DFD9B4A0546A2F108012046B7
:10AED80032F07AFF4FF6FF73706000220821204697
:10AEE80035F0FCFE30814DB117A9204636F04DFFF4
:10AEF800002302461799204630F0B0FDD4F8A43557
:10AF0800D3F8642122B1D3F86821013AC3F8682143
:10AF1800204631F0E5FC003818BF01203378307343
:10AF28005D0607D54FF6FF7300220821204635F04D
:10AF3800D5FEF0813178D4F8A4258806D2F864319A
:10AF48002CD553B1D2F868310133C2F86831D4F83E
:10AF5800A425D2F86421934297DC204631F0C0FC46
:10AF68003074204631F0BCFC003818BF012096F937
:10AF780010307074002B07DA4FF6FF730022082197
:10AF8800204635F0ABFE7082D4F8A435D3F864219E
:10AF980022B1D3F86821013AC3F868213178D4F88E
:10AFA800A425C906D2F8643143F174865BB1D2F89E
:10AFB80068310133C2F86831D4F8A425D2F8642185
:10AFC80093423FF762AF204632F01AFD421C92B21C
:10AFD800012AB28204D0022A00F0A880072156E78D
:10AFE800D4F8A425D2F864315BB1D2F868310133C2
:10AFF800C2F86831D4F8A425D2F8642193423FF707
:10B0080044AF204632F0AFFD421C92B2531E328349
:10B018000F2BE3D8DFE813F08A008A008A001000BB
:10B028008A008A004A1D041EB91EB91EB91EB91E1F
:10B03800B91EB91EB91EB91ED4F8A425D2F86431B8
:10B048005BB1D2F868310133C2F86831D4F8A4256D
:10B05800D2F8642193423FF718AFD4F8A425D2F868
:10B0680064315BB1D2F868310133C2F86831D4F881
:10B07800A425D2F8642193423FF707AF204632F067
:10B08800BFFC421C92B2012AB2830FD0022AA5D17A
:10B09800D4F8A435D3F86421002A03F0DD85D3F869
:10B0A8006821013AC3F8682103F0D6BDD4F8A42575
:10B0B800D2F864315BB1D2F868310133C2F8683133
:10B0C800D4F8A425D2F8642193423FF7DEAE204697
:10B0D80032F0C0FC421C92B2511E00233284032974
:10B0E8003FF67CAFDFE811F00400931D931D931D1C
:10B0F800D4F8A425D2F864315BB1D2F868310133B1
:10B10800C2F86831D4F8A425D2F8642193423FF7F5
:10B11800BCAE0023204686F8243031F0E1FB0C90C9
:10B12800204631F094FC0206089005D500228921BA
:10B13800ADE600BFB09C0500089B5B0643F13F8469
:10B1480096F8243063F07F0386F82430D4F8A425D9
:10B15800D2F864315BB1D2F868310133C2F8683192
:10B16800D4F8A425D2F8642193423FF78EAE204646
:10B1780031F0B6FB0D90204631F01FFC070686F82B
:10B18800280041F12281D4F8A425D2F864315BB1BA
:10B19800D2F868310133C2F86831D4F8A425D2F85E
:10B1A800642193423FF771AE0023204686F82C3085
:10B1B80031F096FB0790204631F049FC05060490D3
:10B1C80040F1F58696F82C3063F07F0386F82C3032
:10B1D800D4F8A425D2F864315BB1D2F868310133D0
:10B1E800C2F86831D4F8A425D2F8642193423FF715
:10B1F8004CAE204631F074FB0990204631F099FBA3
:10B2080086F83000D4F8A425D2F864315BB1D2F8BE
:10B2180068310133C2F86831D4F8A425D2F8642122
:10B2280093423FF732AE204631F05AFB8246204621
:10B2380031F0C3FB06F1380186F83400204617F0D8
:10B2480081FC4FF6FF7300220F21204635F046FDA2
:10B258004FF0FF33B08700221121204635F03EFD24
:10B2680096F934303064002B08DA4FF6FF73002269
:10B278000A21204635F032FDA6F8440096F834300D
:10B2880058060CD50821204631F060F90222014603
:10B29800F06400232046A6F8482035F0F5F900238D
:10B2A800336596F83430990640F18F80D4F8A42598
:10B2B800D2F864315BB1D2F868310133C2F8683131
:10B2C800D4F8A425D2F8642193423FF7DEAD4FF0BD
:10B2D800000840220121204612AB8DF8488034F046
:10B2E8008DF90546002800F032811021204631F002
:10B2F8002DF981460746D4F8A425D2F864315BB10C
:10B30800D2F868310133C2F86831D4F8A425D2F8EC
:10B31800642193423FF7B9AD204631F0E1FA834604
:10B32800204632F0ACFC01304FF6FF7300220E21AC
:10B33800B880204635F0D2FCF880204632F060FB19
:10B348003881204632F05CFB7881204632F082FB5F
:10B35800B881BBF1000F09D017A9204636F015FDBA
:10B36800002302461799204630F078FBD4F8A4351C
:10B37800D3F8642122B1D3F86821013AC3F86821CF
:10B3880008F1010845450BD89DF848307BB94022A3
:10B398000121204612AB34F031F90544A84506D204
:10B3A8001021204631F0D2F838600746A3E7002381
:10B3B8003B60C6F85090D4F8A435D3F8642122B184
:10B3C800D3F86821013AC3F86821BAF1000F09D00F
:10B3D80017A9204636F0D9FC0023024617992046C3
:10B3E80030F03CFBD4F8A435D3F8642122B1D3F86B
:10B3F8006821013AC3F8682196F93030002B04DA45
:10B40800204632F082FCA6F854000023B36596F873
:10B4180030305A0640F1B585D4F8A425D2F8643105
:10B428005BB1D2F868310133C2F86831D4F8A42589
:10B43800D2F8642193423FF728AD0027102201215A
:10B4480020460DF149038DF8497034F0D7F882464B
:10B45800002801F0C0804021204631F077F80546E9
:10B4680006900597D4F8A425D2F864315BB1D2F8D8
:10B4780068310133C2F86831D4F8A425D2F86421C0
:10B4880093423FF702AD204631F02AFA0A9020464F
:10B4980031F026FA2871D4F8A425D2F864315BB1CA
:10B4A800D2F868310133C2F86831D4F8A425D2F84B
:10B4B800642193423FF7E9AC204631F011FA0B9032
:10B4C800204631F00DFA4FF6FF7300220E21287244
:10B4D800204635F003FC4FF0FF3368810022162127
:10B4E800204635F0FBFB95F90830E860002B04DABC
:10B4F800204632F00AFC40382882D4F8A425D2F835
:10B5080064315BB1D2F868310133C2F86831D4F8DC
:10B51800A425D2F8642193423FF7B7AC204631F016
:10B52800DFF9B0B9204632F095FA421C92B2032AEC
:10B53800AA823FF653ADAB8A013B042B00F20D857E
:10B54800DFE813F0130073001A01B8020E048146F5
:10B558002FE7204632F05FFF4FF6FB739842024612
:10B568003FF63CAD0432AA82E5E7D4F8A425D2F828
:10B5780064315BB1D2F868310133C2F86831D4F86C
:10B58800A425D2F8642193423FF77FAC204631F0DE
:10B59800A7F90746204631F0A3F94FF6FF7328763E
:10B5A80000220921204635F099FB95F91830688367
:10B5B800002B04DA204605F11C0136F061FD4FF638
:10B5C800FF7300221021204635F088FB2886002FC3
:10B5D80000F00282204617A936F0D7FB0746E8B1EB
:10B5E800179B93F90030002B18DA204635F0D9F96B
:10B5F800204631F075F903060DD52B7E002243F065
:10B6080040032B7612214FF0FF33204635F066FBBE
:10B6180000F580306863204638F080F801233A4608
:10B628002046179930F01AFAD6E1D4F8A425D2F8B2
:10B6380064315BB1D2F868310133C2F86831D4F8AB
:10B64800A425D2F8642193423FF71FAC204631F07D
:10B6580047F90746204631F043F92876D4F8A4255F
:10B66800D2F864315BB1D2F868310133C2F868317D
:10B67800D4F8A425D2F8642193423FF706AC2046BB
:10B6880032F0BEF9421C92B2012A6A831BD0022A08
:10B698007FF4A4ACD4F8A425D2F864315BB1D2F815
:10B6A80068310133C2F86831D4F8A425D2F864218E
:10B6B80093423FF7EAAB204631F012F98046204624
:10B6C80032F023FB1BE0D4F8A425D2F864315BB137
:10B6D800D2F868310133C2F86831D4F8A425D2F819
:10B6E800642193423FF7D1AB204631F0F9F84FF689
:10B6F800FF73804600220921204635F0EFFAA8831F
:10B70800B8F1000F09D017A9204636F03EFB0023F8
:10B7180002461799204630F0A1F9D4F8A435D3F899
:10B72800642122B1D3F86821013AC3F86821D4F81A
:10B73800A435D3F8642122B1D3F86821013AC3F8BB
:10B74800682195F91830002B04DA204605F120010C
:10B7580036F096FC4FF6FF7300220E21204635F096
:10B76800BDFAA886002F00F03781204617A936F0C9
:10B778000CFB0023024653E7D4F8A425D2F8643121
:10B788005BB1D2F868310133C2F86831D4F8A42526
:10B79800D2F8642193423FF778AB204631F0A0F805
:10B7A8000E90204631F09CF84FF6FF7300220A21D4
:10B7B8002876204635F092FA6883204632F05FFA00
:10B7C80095F91830A883002B80F20281D4F8A425BB
:10B7D800D2F864315BB1D2F868310133C2F868310C
:10B7E800D4F8A425D2F8642193423FF74EAB204603
:10B7F80031F076F8D4F8A4250F90D2F864315BB113
:10B80800D2F868310133C2F86831D4F8A425D2F8E7
:10B81800642193423FF739ABD4F8A425D2F86431B8
:10B828005BB1D2F868310133C2F86831D4F8A42585
:10B83800D2F8642193423FF728AB03224FF0000867
:10B848001146204617AB8DF85C8033F0D7FE0746CB
:10B85800002873D00821204630F078FE81468346C0
:10B86800204632F080F908F101084745ABF804009A
:10B878000BD89DF85C3083B903222046114617ABDC
:10B8880033F0BCFE0744B84507D20821204630F003
:10B898005DFECBF800008346E2E70023CBF80030DA
:10B8A800C5F82090D4F8A435D3F8642122B1D3F890
:10B8B8006821013AC3F86821D4F8A425D2F8643184
:10B8C8005BB1D2F868310133C2F86831D4F8A425E5
:10B8D800D2F8642193423FF7D8AA4FF00008032218
:10B8E8000221204617AB8DF85C8033F087FE0746AF
:10B8F800002800F0DD800821204630F027FE814630
:10B908008346204632F02FF908F101084745ABF885
:10B9180004000BD89DF85C3093B90322022120461D
:10B9280017AB33F06BFE0744B84509D2082120460F
:10B9380030F00CFECBF800008346E2E78146AFE723
:10B948000023CBF80030C5F82490D4F8A435D3F8F8
:10B95800642122B1D3F86821013AC3F86821D4F8E8
:10B96800A435D3F8642122B1D3F86821013AC3F889
:10B9780068210821204630F0E9FD10270146002300
:10B988003A46E8622F85204634F07EFE082120469C
:10B9980030F0DCFD0023014668633A4620462F86D6
:10B9A80034F072FE0F9B4BB117A9204636F0EDF923
:10B9B800002302461799204630F050F8D4F8A435F1
:10B9C800D3F8642122B1D3F86821013AC3F8682179
:10B9D8000E9B002B7FF4C9AED4F8A435D3F86421AC
:10B9E80022B1D3F86821013AC3F86821D4F8A43504
:10B9F800D3F8642122B1D3F86821013AC3F8682149
:10BA08000B9B4BB117A9204636F0BFF9002302461D
:10BA18001799204630F022F8D4F8A435D3F86421D9
:10BA280022B1D3F86821013AC3F86821204632F0E0
:10BA38006CF995F904302887002B06DA0022204695
:10BA4800C54931F039FD85F83A000A9B4BB117A971
:10BA5800204636F09AF900230246179920462FF01F
:10BA6800FDFFD4F8A435D3F8642122B1D3F86821B6
:10BA7800013AC3F86821059B01339A45059310D80C
:10BA88009DF84930002B40F06E820DF149031022D9
:10BA98000121204633F0B2FD059B8244534580F0D6
:10BAA80062824021204630F051FD28600546D9E4E5
:10BAB800814648E7204634F074FFD4F8A425D2F82C
:10BAC80064315BB1D2F868310133C2F86831D4F817
:10BAD800A425D2F8642193423FF7D7A9204630F035
:10BAE800FFFE0E90204630F0FBFE4FF6FF732876DF
:10BAF80000220921204635F0F1F895F918306883BD
:10BB0800002B80F2CA80D4F8A425D2F864315BB146
:10BB1800D2F868310133C2F86831D4F8A425D2F8D4
:10BB2800642193423FF7B1A9D4F8A425D2F864312F
:10BB38005BB1D2F868310133C2F86831D4F8A42572
:10BB4800D2F8642193423FF7A0A903224FF00008DE
:10BB58001146204617AB8DF85C8033F04FFD074641
:10BB6800002873D00821204630F0F0FC8146834637
:10BB7800204631F0F8FF08F101084745ABF804000A
:10BB88000BD89DF85C3083B903222046114617ABC9
:10BB980033F034FD0744B84507D20821204630F079
:10BBA800D5FCCBF800008346E2E70023CBF8003051
:10BBB800C5F81C90D4F8A435D3F8642122B1D3F881
:10BBC8006821013AC3F86821D4F8A425D2F8643171
:10BBD8005BB1D2F868310133C2F86831D4F8A425D2
:10BBE800D2F8642193423FF750A94FF0000803228E
:10BBF8000221204617AB8DF85C8033F0FFFC074626
:10BC0800002800F0A6800821204630F09FFC8146DD
:10BC18008346204631F0A7FF08F101084745ABF8F5
:10BC280004000BD89DF85C3093B90322022120460A
:10BC380017AB33F0E3FC0744B84509D20821204686
:10BC480030F084FCCBF800008346E2E78146AFE79A
:10BC58000023CBF80030C5F82090D4F8A435D3F8E9
:10BC6800642122B1D3F86821013AC3F86821082178
:10BC7800204630F06BFC1C2201460123A862AA84EE
:10BC8800204634F001FDD4F8A435D3F8642122B15C
:10BC9800D3F86821013AC3F86821D4F8A425D2F86A
:10BCA80064315BB1D2F868310133C2F86831D4F835
:10BCB800A425D2F8642193423FF7E7A8204630F044
:10BCC8000FFE0746204630F00BFE4FF0FF3385F895
:10BCD8002C0000221221204635F000F895F92C306E
:10BCE8002863002B06DA002220461C4931F0E4FBC9
:10BCF80085F834004FB117A9204636F046F80023DE
:10BD08000246179920462FF0A9FED4F8A435D3F897
:10BD1800642122B1D3F86821013AC3F868210E9B47
:10BD28004BB117A9204636F030F800230246179980
:10BD380020462FF093FED4F8A435D3F8642122B11D
:10BD4800D3F86821013AC3F86821204637F0E6FCA9
:10BD58004CE681467FE700BF009D0500F89C050082
:10BD6800204634F01EFED4F8A425D2F864315BB125
:10BD7800D2F868310133C2F86831D4F8A425D2F872
:10BD8800642193423FF781A8204630F0A9FD0E9028
:10BD9800204630F0A5FD4FF6FF73287600220A21D1
:10BDA800204634F09BFF95F918306883002B80F209
:10BDB800C980D4F8A425D2F864315BB1D2F86831CF
:10BDC8000133C2F86831D4F8A425D2F8642193422B
:10BDD8003FF75BA8D4F8A425D2F864315BB1D2F858
:10BDE80068310133C2F86831D4F8A425D2F8642147
:10BDF80093423FF74AA803224FF000081146204615
:10BE080017AB8DF85C8033F0F9FB0746002872D039
:10BE18000821204630F09AFB81468346204631F0BF
:10BE2800A2FE08F101084745ABF804000BD89DF8BD
:10BE38005C3083B903222046114617AB33F0DEFB92
:10BE48000744B84507D20821204630F07FFBCBF8DD
:10BE580000008346E2E70023CBF80030C5F81C90C9
:10BE6800D4F8A435D3F8642122B1D3F86821013A73
:10BE7800C3F86821D4F8A425D2F864315BB1D2F8AC
:10BE880068310133C2F86831D4F8A425D2F86421A6
:10BE980093423EF7FAAF4FF00008032202212046F2
:10BEA80017AB8DF85C8033F0A9FB0746002852D009
:10BEB8000821204630F04AFB81468346204631F06F
:10BEC80052FE08F101084745ABF804000BD89DF86D
:10BED8005C3093B903220221204617AB33F08EFB66
:10BEE8000744B84509D20821204630F02FFBCBF88B
:10BEF80000008346E2E78146B0E70023CBF8003034
:10BF0800C5F82090D4F8A435D3F8642122B1D3F829
:10BF18006821013AC3F868210821204630F016FB51
:10BF2800242201460123A862AA84204634F0ACFBEF
:10BF3800D4F8A435D3F8642122B1D3F86821013AA2
:10BF4800C3F868214FF0FF3300221621204634F051
:10BF5800C5FEE862E3E68146D2E700232046AB82CD
:10BF680037F0A2FB42E500232B60069BB365D4F8AB
:10BF7800A435D3F8642122B1D3F86821013AC3F873
:10BF88006821099B4BB117A9204635F0FEFE002316
:10BF98000246179920462FF061FDD4F8A435D3F84E
:10BFA800642122B1D3F86821013AC3F86821049BBF
:10BFB8005F0640F18E8096F82C3043F0400386F8F7
:10BFC8002C30D4F8A425D2F864315BB1D2F86831AA
:10BFD8000133C2F86831D4F8A425D2F86421934219
:10BFE8003EF753AF204630F07BFCD4F8A425054635
:10BFF800D2F864315BB1D2F868310133C2F86831E4
:10C00800D4F8A425D2F8642193423EF73EAF00222B
:10C01800D249204631F050FA4FF0FF330022172161
:10C0280086F85C00204634F059FE6FF000434FF06C
:10C03800004218213066204634F050FEA0F500007A
:10C048000022C7497066204631F036FA4FF6FF7372
:10C0580000220F2186F86800204634F03FFEA6F83B
:10C068006A00204631F051FEA6F86C00204631F0F7
:10C078004CFEA6F86E00204631F081FEA6F870004E
:10C08800204631F042FEA6F87200204631F03DFE0F
:10C09800A6F87400D4F8A435D3F8642122B1D3F8F3
:10C0A8006821013AC3F868214DB117A9204635F037
:10C0B8006CFE00230246179920462FF0CFFCD4F8D7
:10C0C800A435D3F8642122B1D3F86821013AC3F822
:10C0D8006821049B9D0640F1478196F82C3043F077
:10C0E800200386F82C30D4F8A425D2F864315BB14B
:10C0F800D2F868310133C2F86831D4F8A425D2F8EF
:10C10800642193423EF7C1AE204630F0E9FB054674
:10C11800204630F00EFC86F87800000640F1888052
:10C12800D4F8A425D2F864315BB1D2F86831013370
:10C13800C2F86831D4F8A425D2F8642193423EF7B6
:10C14800A4AE204630F0CCFB08210746204630F04C
:10C15800FDF9022201460023C6F88000A6F87C20DB
:10C16800204634F091FA47F6FF7308217D4A2046AD
:10C1780034F0B4FD803847F6FF730821794AA6F8F1
:10C188008400204634F0AAFD803847F6FF73082162
:10C19800744AA6F88600204634F0A0FD803847F699
:10C1A800FF7308216F4AA6F88800204634F096FDF0
:10C1B800803847F6FF7308216A4AA6F88A002046A5
:10C1C80034F08CFD803847F6FF730821654AA6F8DD
:10C1D8008C00204634F082FD803847F6FF73082132
:10C1E800604AA6F88E00204634F078FD8038A6F81C
:10C1F800900047F6FF73082120465A4A34F06EFD36
:10C208008038A6F892004FB117A9204635F0BDFD39
:10C2180000230246179920462FF020FCD4F8A435B5
:10C22800D3F8642122B1D3F86821013AC3F8682110
:10C2380096F8783059067AD5D4F8A425D2F864311E
:10C248005BB1D2F868310133C2F86831D4F8A4255B
:10C25800D2F8642193423EF718AE204630F040FBF6
:10C268000746204630F03DFC4FF6FF7300220B21B5
:10C2780086F89400204634F031FD47F6FF730B2111
:10C28800384AA6F89600204634F028FDA0F58060CC
:10C2980047F6FF73A6F898000E212046314A34F07D
:10C2A8001DFD96F99430A0F50050002BA6F89A00D1
:10C2B80004DA204631F0A4FBA6F89C0096F89430E6
:10C2C8005A0604D5204631F09BFBA6F89E0096F846
:10C2D80094309B0604D5204631F092FBA6F8A000C6
:10C2E80096F89430D80604D5204631F089FBA6F894
:10C2F800A20096F89430190704D5204631F080FB47
:10C30800A6F8A4004FB117A9204635F03EFD00233A
:10C318000246179920462FF0A1FBD4F8A435D3F88C
:10C32800642122B1D3F86821013AC3F868214DB1DC
:10C3380017A9204635F029FD002302461799204603
:10C348002FF08CFBD4F8A435D3F8642162B1D3F86C
:10C358006821013AC3F8682106E000BF089D05007E
:10C36800109D05000080FFFF049BDA063EF5DEAE57
:10C37800079B03B3204616A935F007FD0546A0B173
:10C38800169B93F90030002B0FDA204634F009FB96
:10C39800204630F012FB03063EF5C8AE10F0600FE1
:10C3A8007EF4C4AE204637F0B9F901232A46204668
:10C3B80016992FF053FBD4F8A435D3F8642122B191
:10C3C800D3F86821013AC3F868210023C6F8A830D9
:10C3D80096F828305F0642F15182D4F8A425D2F8A5
:10C3E80064315BB1D2F868310133C2F86831D4F8EE
:10C3F800A425D2F8642193423EF747AD00251022C8
:10C40800012120460DF14A038DF84A5033F0F6F821
:10C418000490002802F05E825021204630F096F801
:10C428009FEDC98B8346DFF830A309900695D4F8B1
:10C43800A425D2F864315BB1D2F868310133C2F86F
:10C448006831D4F8A425D2F8642193423EF71DAD93
:10C45800002520468BF8045030F042FA2B460A2279
:10C468000E9013A9204634F00FF920460BF108016D
:10C4780016F068FB9DF94C209DF84C30AA42FEF658
:10C4880055AE13F0600F7EF451AEDD0641F13081F8
:10C498009BF8043063F07F038BF80430D4F8A425AC
:10C4A800D2F864315BB1D2F868310133C2F868312F
:10C4B800D4F8A425D2F8642193423EF7E6AC20468E
:10C4C80030F00EFA0F90204631F09AFAABF80C00D3
:10C4D800D4F8A425D2F864315BB1D2F868310133BD
:10C4E800C2F86831D4F8A425D2F8642193423EF703
:10C4F800CCAC00274022012120460DF14B038DF8DA
:10C508004B7033F07BF80590002801F0E281B821E8
:10C51800204630F01BF89FED8E9B05460A90079742
:10C52800D4F8A435D3F864215AB1D3F8682101327C
:10C53800C3F86821D4F8A435D3F864319A423EF799
:10C54800A4AC002720462F7230F0CAF905F10A0181
:10C558001090204635F0C1FE082120462FF0F6FF46
:10C56800082201463B462861AA81204634F08CF80F
:10C578000B2302220093204605F1140135F0CCFA72
:10C58800D4F8A425D2F864315BB1D2F8683101330C
:10C59800C2F86831D4F8A425D2F8642193423EF752
:10C5A80074AC204630F09CF9B8B9204631F095FAC1
:10C5B800421C92B2052A2A833EF610AD2B8B013B12
:10C5C800052B00F2E982DFE813F014001201640180
:10C5D80016024F0280020690C7E4204631F01BFF86
:10C5E8004FF6F973984202463EF6F8AC06322A83B3
:10C5F800E4E7D4F8A425D2F864315BB1D2F8683105
:10C608000133C2F86831D4F8A425D2F864219342E2
:10C618003EF73BAC4FF0000902220121204614AB43
:10C628008DF8509032F0EAFF8046002800F0DD8057
:10C63800202120462FF08AFF0B90D4F8A425074626
:10C64800D2F864315BB1D2F868310133C2F868318D
:10C65800D4F8A425D2F8642193423EF716AC2046BC
:10C6680030F03EF91190204630F063F94FF6FF7331
:10C6780000220E213871204634F030FBF880204625
:10C6880031F0FDFA20386FF000434FF000421521D9
:10C698003881204634F022FBA0F580106FF000436B
:10C6A800F8604FF000421F21204634F017FB97F93D
:10C6B800043000F14040002B386109DA47F6FF7377
:10C6C80052460A21204634F009FBA0F50070B882D2
:10C6D8004FF6FF7300220821204634F0FFFA3B7919
:10C6E800F882580603D5204631F08AF93883119B21
:10C6F8004BB117A9204635F048FB0023024617998D
:10C7080020462FF0ABF9D4F8A435D3F8642122B130
:10C71800D3F86821013AC3F8682109F10109C8452D
:10C728000BD89DF85030CBB902220121204614AB1A
:10C7380032F064FF8044C14510D2202120462FF0FA
:10C7480005FF386079E700BFFFFFFFFFFFFFFF7FAE
:10C7580000000000000000800080FFFF00233B6015
:10C768000B9BEB61D4F8A435D3F8642122B1D3F83C
:10C778006821013AC3F86821D4F8A435D3F86421B4
:10C7880022B1D3F86821013AC3F86821D4F8A42566
:10C79800D2F864315BB1D2F868310133C2F868313C
:10C7A800D4F8A425D2F8642193423EF76EAB204614
:10C7B80030F096F8002840F0F581204631F08DF9E8
:10C7C800421C92B2052AA5F848203EF607ACB5F8F7
:10C7D8004830013B052B00F25E87DFE813F0F001DB
:10C7E800290366045505DE0574060B90B8E7D4F8EE
:10C7F800A425D2F864315BB1D2F868310133C2F8AC
:10C808006831D4F8A425D2F8642193423EF73DABB1
:10C81800204630F065F84FF6FF73002210210746D6
:10C82800204634F05BFA47F6FF7352460821A88386
:10C83800204634F053FA803847F6FF7352461021E9
:10C84800E883204634F04AFAA0F500406FF0004330
:10C858004FF0004216212884204634F03FFAA0F514
:10C868000010686247F6FF7352460821204634F0EC
:10C8780035FA80382885002F3FF474AF17A9204671
:10C8880035F083FA00230246179920462FF0E6F880
:10C8980068E7D4F8A425D2F864315BB1D2F86831DE
:10C8A8000133C2F86831D4F8A425D2F86421934240
:10C8B8003EF7EBAA204630F013F80746204630F042
:10C8C8005AF94FF6FF7300220B212877204634F0DF
:10C8D80005FA4FF6FF7300220B21E883204634F057
:10C8E800FDF92884204631F084F910386884204600
:10C8F80031F0F3F8A884204631F0EFF847F6FF73DB
:10C9080052460A21E884204634F0E8F9A0F5007080
:10C918006FF000434FF0004214212885204634F080
:10C92800DDF9A0F500206FF000434FF000421A2116
:10C93800E862204634F0D2F900F17E4047F6FF73F2
:10C94800286352460D21204634F0C8F995F91C3069
:10C95800A0F58050002BA88609DA47F6FF735246E7
:10C968000D21204634F0BAF9A0F58050E8862B7FD7
:10C97800590609D547F6FF7352460D21204634F073
:10C98800ADF9A0F5805028872B7F9A0609D547F680
:10C99800FF7352460D21204634F0A0F9A0F58050CF
:10C9A80068872B7FDB0609D547F6FF7352460D21B2
:10C9B800204634F093F9A0F58050A8872B7F1807FC
:10C9C80009D547F6FF7352460D21204634F086F903
:10C9D800A0F58050E8872B7F59077FF54CAF47F6C5
:10C9E800FF7352460D21204634F078F9A0F58050A7
:10C9F800A5F840003FE7D4F8A425D2F864315BB12C
:10CA0800D2F868310133C2F86831D4F8A425D2F8D5
:10CA1800642193423EF739AA20462FF061FF07466A
:10CA280020462FF05DFF6FF000434FF000421621C3
:10CA38002877204634F052F9A0F5001047F6FF7326
:10CA4800286252460B21204634F048F995F91C30EB
:10CA5800A0F58060002BA884BFF60DAF204631F00A
:10CA6800C8F81038E88406E7D4F8A425D2F8643169
:10CA78005BB1D2F868310133C2F86831D4F8A42523
:10CA8800D2F8642193423EF700AA20462FF028FFEF
:10CA98004FF6FF7300220D210746204634F01EF999
:10CAA80047F6FF7352460C21A883204634F016F946
:10CAB800A0F50060E88347F6FF7352460821204638
:10CAC80034F00CF980382884D5E6204633F069FF25
:10CAD800D4F8A425D2F864315BB1D2F868310133B7
:10CAE800C2F86831D4F8A425D2F8642193423EF7FD
:10CAF800CCA920462FF0F4FE0746204631F079F8FD
:10CB08004FF0FF3300221121A883204634F0E6F8C5
:10CB18006FF000434FF0004218212862204634F09D
:10CB2800DDF8A0F500006FF000434FF00042162139
:10CB38006862204634F0D2F8A0F5001047F6FF737B
:10CB480052460B21A862204634F0C8F8A0F5806050
:10CB5800A88547F6FF7352460A21204634F0BEF8EE
:10CB6800A0F50070E8854FB117A9204635F00DF9FA
:10CB780000230246179920462EF070FFD4F8A435FA
:10CB8800D3F8642122B1D3F86821013AC3F86821A7
:10CB9800204636F0C3FDEFE5002320462B8336F010
:10CBA80083FDE9E5204631F036FC4FF6F9739842EB
:10CBB80002463EF613AA0632A5F8482007E6D4F83E
:10CBC800A425D2F864315BB1D2F868310133C2F8D8
:10CBD8006831D4F8A425D2F8642193423EF755A9C8
:10CBE80020462FF07DFE4FF6FF7300220E210746E8
:10CBF800204634F073F86FF000434FF000422021D4
:10CC0800A5F85000204634F069F800F1004047F6D6
:10CC1800FF73524610216865204634F05FF8A0F58E
:10CC280000406FF000434FF000422021A5F8580063
:10CC3800204634F053F800F100406FF000434FF005
:10CC480000421821E865204634F048F8A0F50000B5
:10CC58004FF0FF33002220212866204634F03EF8AA
:10CC680047F6FF7352460E216866204634F036F8C0
:10CC7800A0F500504FF0FF3300222021A5F86800EE
:10CC8800204634F02BF86FF000434FF0004220218B
:10CC9800E866204634F022F800F100406FF00043C7
:10CCA8004FF0004220212867204634F017F800F1A1
:10CCB800004047F6FF73524610216867204634F05B
:10CCC8000DF8A0F5004047F6FF7352461021A5F86D
:10CCD8007800204634F002F8A0F5004047F6FF73CC
:10CCE80052461021A5F87A00204633F0F7FFA0F548
:10CCF800004047F6FF7352461021A5F87C002046F5
:10CD080033F0ECFFA0F5004047F6FF7352461021C0
:10CD1800A5F87E00204633F0E1FFA0F50040A5F815
:10CD2800800047F6FF7352461021204633F0D6FFA5
:10CD3800A0F50040A5F882004FB117A9204635F0AC
:10CD480024F800230246179920462EF087FED4F8CF
:10CD5800A435D3F8642122B1D3F86821013AC3F885
:10CD68006821D4F8A435D3F8642122B1D3F8682116
:10CD7800013AC3F86821109B6BB3204617A935F018
:10CD880004F8074608B3179B93F90030002B1CDA08
:10CD9800204633F006FE20462FF0A2FD030611D5EB
:10CDA8002B7A082163F07F032B7220462FF0CEFBED
:10CDB80004220146C5F8B40000232046A5F8B02097
:10CDC80033F062FC204636F0A9FC01233A4620469F
:10CDD80017992EF043FED4F8A435D3F8642122B174
:10CDE800D3F86821013AC3F86821079B01330793F8
:10CDF800079A059B934213D89DF84B30002B40F0BF
:10CE0800528440220DF14B030121204632F0F6FBFB
:10CE1800059B03440593059A079B934280F043843E
:10CE2800B82120462FF092FB28600546FFF778BB13
:10CE3800D4F8A425D2F864315BB1D2F86831013353
:10CE4800C2F86831D4F8A425D2F8642193423EF799
:10CE58001CA820462FF044FD074620462FF040FD31
:10CE680085F85000204630F07EFEA5F85200204696
:10CE780030F0C6FD4FF6FF7300221021A5F85400CC
:10CE8800204633F02BFF6FF000434FF00042202183
:10CE9800A5F85600204633F021FF00F1004047F680
:10CEA800FF7352461021A865204633F017FFA0F5FE
:10CEB80000406FF000434FF000422021A5F85C00CD
:10CEC800204633F00BFF00F100406FF000434FF0B5
:10CED800004218212866204633F000FFA0F5000024
:10CEE8004FF0FF33002220216866204633F0F6FE1B
:10CEF80047F6FF7352460E21A866204633F0EEFE31
:10CF0800A0F500504FF0FF3300222021A5F86C0057
:10CF1800204633F0E3FE6FF000434FF0004220213B
:10CF28002867204633F0DAFE00F100406FF0004336
:10CF38004FF0004220216867204633F0CFFE00F111
:10CF4800004047F6FF7352461021A867204633F089
:10CF5800C5FEA0F5004047F6FF7352461021A5F81C
:10CF68007C00204633F0BAFEA0F5004047F6FF7378
:10CF780052461021A5F87E00204633F0AFFEA0F5FA
:10CF8800004047F6FF7352461021A5F8800020465E
:10CF980033F0A4FEA0F5004047F6FF735246102177
:10CFA800A5F88200204633F099FEA0F5004047F628
:10CFB800FF73A5F8840052461021204633F08EFEF8
:10CFC80095F95030A0F50040002BA5F88600BFF673
:10CFD800B3AED4F8A425D2F864315BB1D2F8683185
:10CFE8000133C2F86831D4F8A425D2F864219342F9
:10CFF8003DF74BAF204630F02DFDA5F888002046C0
:10D0080030F0FEFCA5F88A00D4F8A425D2F86431E3
:10D018005BB1D2F868310133C2F86831D4F8A4257D
:10D02800D2F8642193423DF730AF4FF0FF3300222E
:10D038001721204633F052FE4FF0FF33002218210B
:10D04800C5F88C00204633F049FE4FF0FF3300222C
:10D058001821C5F89000204633F040FE4FF6FF73C4
:10D068000022C5F894001021204633F037FEA5F8B9
:10D078009800D4F8A435D3F8642122B1D3F86821F4
:10D08800013AC3F86821204630F0B3FDA5F89C00AA
:10D09800D4F8A435D3F86421002A3FF44DAED3F870
:10D0A8006821013AC3F8682146E6D4F8A425D2F8E5
:10D0B80064315BB1D2F868310133C2F86831D4F811
:10D0C800A425D2F8642193423DF7DFAE20462FF025
:10D0D80007FC4FF6FF7300220B210746204633F06A
:10D0E800FDFDA5F85000204630F083FD10386FF0A4
:10D0F80000434FF000421A21A5F85200204633F0B1
:10D10800EDFD00F17E406FF000434FF00042192121
:10D118006865204633F0E2FD00F17F406FF0004380
:10D128004FF000421121A865204633F0D7FDA0F545
:10D1380080306FF000434FF000421721E865204629
:10D1480033F0CCFDA0F580002866212200238DED68
:10D15800028B8DED009B204630F06AFB4FF0FF32CA
:10D168004FF0FF330139C5E91A01CDE90223002246
:10D1780000232046CDE900232122002330F058FB6C
:10D188002122C5E91C0100238DED028B8DED009B4A
:10D19800204630F04DFB0139C5E91E01212200234C
:10D1A8008DED028B8DED009B204630F041FB01395F
:10D1B800C5E920016FF000434FF0004211212046DD
:10D1C80033F08CFDA0F58030C5F8880021220023BB
:10D1D8008DED028B8DED009B204630F029FB013947
:10D1E800C5E9240147F6FF7352460F21204633F064
:10D1F80075FDA0F5804047F6FF7352461021A5F84B
:10D208009800204633F06AFDA0F5004047F6FF730A
:10D2180052461021A5F89A00204633F05FFDA0F58C
:10D2280000406FF000434FF000421821A5F89C0021
:10D23800204633F053FDA0F500006FF000434FF097
:10D2480000421821C5F8A000204633F047FDA0F59C
:10D2580000006FF000434FF000421521C5F8A4000C
:10D26800204633F03BFDA0F58010C5F8A8006FF00C
:10D2780000434FF000421521204633F02FFDA0F562
:10D288008010C5F8AC0057E5D4F8A425D2F864316D
:10D298005BB1D2F868310133C2F86831D4F8A425FB
:10D2A800D2F8642193423DF7F0AD20462FF018FBE9
:10D2B8000746204630F09DFC0821A5F8500020467E
:10D2C8002FF044F9022201460023A5F85420A8654E
:10D2D800204633F0D9F920462FF002FB003818BF5A
:10D2E800012085F85C00204630F0B4FB6FF0004365
:10D2F8004FF000421B21A5F85E00204633F0EEFCFB
:10D3080000F17C406FF000434FF00042182128667E
:10D31800204633F0E3FCA0F500006866204630F0B4
:10D3280068FC10386FF000434FF000421B21A5F84D
:10D338006800204633F0D2FC00F17C406FF00043D7
:10D348004FF000421821E866204633F0C7FCA0F5EC
:10D3580000002867204630F04CFC10386FF000437E
:10D368004FF000421B21A5F87400204633F0B6FCAC
:10D3780000F17C406FF000434FF000421821A8678D
:10D38800204633F0ABFCA0F50000E867204630F0FB
:10D3980030FC1038A5F88000CEE4D4F8A425D2F8E3
:10D3A80064315BB1D2F868310133C2F86831D4F81E
:10D3B800A425D2F8642193423DF767AD20462FF0AB
:10D3C8008FFA074620462FF08BFA020685F85000A0
:10D3D80008D54FF6FF7300220D21204633F07EFC5E
:10D3E800A5F85200082120462FF0B0F80422014683
:10D3F8000023A865A5F85420204633F045F96FF0BE
:10D4080000434FF000421E21204633F067FC00F134
:10D4180060406FF000434FF000421E21E86520464F
:10D4280033F05CFC00F160406FF000434FF00042C5
:10D4380019212866204633F051FC00F17F406FF037
:10D4480000434FF0004211216866204633F046FC45
:10D45800A0F580306FF000434FF000421121A8661C
:10D46800204633F03BFCA0F580306FF000434FF0CE
:10D4780000421221E866204633F030FCA0F5003067
:10D4880047F6FF7352460A212867204633F026FCE8
:10D49800A0F5007047F6FF7352460A21A5F87400FC
:10D4A800204633F01BFCA0F50070A5F8760047F67F
:10D4B800FF7352460A21204633F010FCA0F5007095
:10D4C800A5F8780038E4204633F06BFAD4F8A425A0
:10D4D800D2F864315BB1D2F868310133C2F86831EF
:10D4E800D4F8A425D2F8642193423DF7CEAC204667
:10D4F8002FF0F6F90746204630F07BFBA5F85000E0
:10D50800204630F030FB4FF0FF3300221121A5F800
:10D518005200204633F0E2FB4FF0FF330022202177
:10D528006865204633F0DAFB4FF0FF3300222021F4
:10D53800A865204633F0D2FB6FF000434FF000425D
:10D548002021E865204633F0C9FB00F1004047F68A
:10D55800FF73524610212866204633F0BFFBA0F522
:10D5680000406FF000434FF000422021A5F864000E
:10D57800204633F0B3FB00F100406FF000434FF05A
:10D5880000422021A866204633F0A8FB00F10040A5
:10D598006FF000434FF000421821E866204633F050
:10D5A8009DFBA0F500006FF000434FF000422021E2
:10D5B8002867204633F092FB00F1004047F6FF73DE
:10D5C80052460E216867204633F088FBA0F50050CC
:10D5D8006FF000434FF000421221A5F87800204672
:10D5E80033F07CFBA0F500306FF000434FF00042B1
:10D5F8001221E867204633F071FBA0F500306FF088
:10D6080000434FF000421221C5F88000204633F055
:10D6180065FBA0F500306FF000434FF00042122187
:10D62800C5F88400204633F059FBA0F500306FF0B0
:10D6380000434FF000421221C5F88800204633F01D
:10D648004DFBA0F50030C5F88C006FF000434FF09B
:10D6580000421221204633F041FBA0F50030C5F806
:10D6680090004FB117A9204634F08FFB00230246E3
:10D67800179920462EF0F2F9D4F8A435D3F864218E
:10D6880022B1D3F86821013AC3F86821204636F060
:10D6980045F8FFF766BB00232046A5F8483036F06A
:10D6A80003F8FFF75EBB00232B600A9BCBF8103012
:10D6B800D4F8A435D3F8642122B1D3F86821013A0B
:10D6C800C3F868210F9B4BB117A9204634F05DFBC6
:10D6D80000230246179920462EF0C0F9D4F8A43545
:10D6E800D3F8642122B1D3F86821013AC3F868213C
:10D6F8009DF84C30180740F113819BF8043043F033
:10D7080040038BF80430D4F8A425D2F864315BB117
:10D71800D2F868310133C2F86831D4F8A425D2F8B8
:10D72800642193423DF7B1AB20462FF0D9F8D4F8E5
:10D73800A4250790D2F864315BB1D2F8683101337F
:10D74800C2F86831D4F8A425D2F8642193423DF791
:10D758009CAB4FF0000840220121204615AB8DF804
:10D76800548031F04BFF0746002800F07C812021CF
:10D7780020462EF0EBFE81460546D4F8A425D2F8C3
:10D7880064315BB1D2F868310133C2F86831D4F83A
:10D79800A425D2F8642193423DF777AB20462FF0B9
:10D7A8009FF80A9020462FF09BF8A91D2871204663
:10D7B80034F093FD95F90430002B5DDAD4F8A425F4
:10D7C800D2F864315BB1D2F868310133C2F86831FC
:10D7D800D4F8A425D2F8642193423DF756AB4FF014
:10D7E800000320462B722FF07BF808210590204675
:10D7F8002EF0ACFE4FF0080301462861AB810822E9
:10D808000023204632F040FF059B5BB3204617A952
:10D8180034F0BBFA0590F8B1179B93F90030002B50
:10D828001ADA204633F0BDF820462FF059F80106E1
:10D838000FD52B7A082163F07F032B7220462EF038
:10D8480085FE10220146A86100232046AA8232F0F4
:10D858001BFF204635F062FF01232046059A1799E1
:10D868002EF0FCF8D4F8A435D3F8642122B1D3F80B
:10D878006821013AC3F868210A9B4BB117A92046D1
:10D8880034F083FA00230246179920462EF0E6F872
:10D89800D4F8A435D3F8642122B1D3F86821013A29
:10D8A800C3F8682108F1010847450BD89DF85430A2
:10D8B80093B940220121204615AB31F09FFE074461
:10D8C800B84509D2202120462EF040FE28600546A2
:10D8D80053E7059B0A93E8E600232B60CBF81490E6
:10D8E800D4F8A435D3F8642122B1D3F86821013AD9
:10D8F800C3F86821079B4BB117A9204634F045FAB5
:10D9080000230246179920462EF0A8F8D4F8A4352B
:10D91800D3F8642122B1D3F86821013AC3F8682109
:10D928009DF84C3013F0060F7DF400ACDA0740F197
:10D93800B4849BF8043043F020038BF80430D4F807
:10D94800A425D2F864315BB1D2F868310133C2F84A
:10D958006831D4F8A425D2F8642193423DF795AAFA
:10D9680020462EF0BDFF079020462FF026F803062C
:10D978008BF8180008D54FF6FF73002208212046BF
:10D9880033F0ACF9ABF81A009BF818305F0608D5ED
:10D998004FF6FF7300220821204633F09FF9ABF8B9
:10D9A8001C009BF818309D0604D5204630F052F82C
:10D9B800ABF81E0020462EF093FF003818BF012058
:10D9C8008BF82000D4F8A425D2F864315BB1D2F8E2
:10D9D80068310133C2F86831D4F8A425D2F864213B
:10D9E80093423DF752AA4FF00008402201212046F9
:10D9F80016AB8DF8588031F001FE0746002800F07C
:10DA08007E84382120462EF0A1FD0590D4F8A42567
:10DA18000546D2F864315BB1D2F868310133C2F8F7
:10DA28006831D4F8A425D2F8642193423DF72DAA91
:10DA380020462EF055FFC0B9204630F04EF8421C63
:10DA480092B2062AAA803DF6C9AAAB88013B062BEA
:10DA580000F2C583DFE813F01500E1005D01A001C5
:10DA68002702B2021203814638E7204630F0D3FC81
:10DA78004FF6F873984202463DF6B0AA0732AA80DC
:10DA8800E3E7D4F8A425D2F864315BB1D2F8683161
:10DA98000133C2F86831D4F8A425D2F8642193423E
:10DAA8003DF7F3A920462EF01BFF814620462EF0B5
:10DAB80017FF05F10A012872204634F00EFC4FF6D4
:10DAC800FF7300220B21204633F008F947F6FF7355
