:020000021000EC
:1080000008B2012081410200BDB603006D410200AB
:108010006D4102006D4102006D4102006D410200A0
:1080200000000000000000000000000015430200F6
:108030006D410200000000007D4202006D4102001F
:108040001D4502001D4502001D4502001D450200A0
:108050001D4502001D4502001D4502001D45020090
:108060001D4502001D4502001D4502001D45020080
:108070001D4502001D4502001D4502001D45020070
:108080001D4502001D4502001D4502001D45020060
:108090001D4502001D4502001D4502001D45020050
:1080A0001D4502001D4502001D4502001D45020040
:1080B0001D4502001D4502001D4502001D45020030
:1080C0001D4502001D4502001D4502001D45020020
:1080D0001D4502001D4502001D4502001D45020010
:1080E0001D4502001D4502001D4502001D45020000
:1080F0001D4502001D4502001D4502001D450200F0
:108100001D4502001D4502001D4502001D450200DF
:108110001D4502001D4502001D4502001D450200CF
:108120001D4502001D4502001D4502001D450200BF
:108130001D4502001D4502001D4502001D450200AF
:048140001D450200D7
:10814800EC46A0E8F05F4FF000007047B0E8F05F41
:10815800E546080008BF0120704700BF81F00041D4
:1081680002E000BF83F0004330B54FEA41044FEA14
:10817800430594EA050F08BF90EA020F1FBF54EAAF
:10818800000C55EA020C7FEA645C7FEA655C00F04B
:10819800E2804FEA5454D4EB5555B8BF6D420CDD1C
:1081A8002C4480EA020281EA030382EA000083EA9F
:1081B800010180EA020281EA0303362D88BF30BD3F
:1081C80011F0004F4FEA01314FF4801C4CEA113195
:1081D80002D0404261EB410113F0004F4FEA0333F4
:1081E8004CEA133302D0524263EB430394EA050F7F
:1081F80000F0A780A4F10104D5F1200E0DDB02FAEE
:108208000EFC22FA05F2801841F1000103FA0EF281
:10821800801843FA05F359410EE0A5F120050EF147
:10822800200E012A03FA0EFC28BF4CF0020C43FA78
:1082380005F3C01851EBE37101F0004507D54FF085
:10824800000EDCF1000C7EEB00006EEB0101B1F5D5
:10825800801F1BD3B1F5001F0CD349085FEA30001B
:108268004FEA3C0C04F101044FEA445212F5800F26
:1082780080F09A80BCF1004F08BF5FEA500C50F1C3
:10828800000041EB045141EA050130BD5FEA4C0CA6
:10829800404141EB0101013C28BFB1F5801FE9D203
:1082A80091F0000F04BF01460020B1FA81F308BF26
:1082B8002033A3F10B03B3F120020CDA0C3208DDF2
:1082C80002F1140CC2F10C0201FA0CF021FA02F1CD
:1082D8000CE002F11402D8BFC2F1200C01FA02F13D
:1082E80020FA0CFCDCBF41EA0C019040E41AA2BF62
:1082F80001EB0451294330BD6FEA04041F3C1CDA2A
:108308000C340EDC04F11404C4F1200220FA04F049
:1083180001FA02F340EA030021FA04F345EA0301F3
:1083280030BDC4F10C04C4F1200220FA02F001FAB5
:1083380004F340EA0300294630BD21FA04F0294637
:1083480030BD94F0000F83F4801306BF81F48011D0
:108358000134013D4EE77FEA645C18BF7FEA655C43
:1083680029D094EA050F08BF90EA020F05D054EA15
:10837800000C04BF1946104630BD91EA030F1EBF1A
:108388000021002030BD5FEA545C05D1400049411E
:1083980028BF41F0004130BD14F580043CBF01F511
:1083A800801130BD01F0004545F0FE4141F47001F7
:1083B8004FF0000030BD7FEA645C1ABF19461046D2
:1083C8007FEA655C1CBF0B46024650EA013406BFD3
:1083D80052EA033591EA030F41F4002130BD00BF92
:1083E80090F0000F04BF0021704730B54FF480644F
:1083F80004F132044FF000054FF0000150E700BFD0
:1084080090F0000F04BF0021704730B54FF480642E
:1084180004F1320410F0004548BF40424FF000011B
:108428003EE700BF42004FEAE2014FEA31014FEA5E
:1084380002701FBF12F07F4393F07F4F81F06051AD
:10844800704732F07F4208BF704793F07F4F04BFF8
:1084580041F40021704730B54FF4607401F00045D5
:1084680021F000411CE700BF50EA010208BF704735
:1084780030B54FF000050AE050EA010208BF704726
:1084880030B511F0004502D5404261EB41014FF48F
:10849800806404F132045FEA915C3FF4D8AE4FF097
:1084A80003025FEADC0C18BF03325FEADC0C18BF7A
:1084B800033202EBDC02C2F1200300FA03FC20FACB
:1084C80002F001FA03FE40EA0E0021FA02F1144418
:1084D800BDE600BF70B54FF0FF0C4CF4E06C1CEA31
:1084E80011541DBF1CEA135594EA0C0F95EA0C0FA2
:1084F80000F0DEF82C4481EA030621EA4C5123EA15
:108508004C5350EA013518BF52EA033541F4801143
:1085180043F4801338D0A0FB02CE4FF00005E1FBF6
:1085280002E506F00042E0FB03E54FF00006E1FB40
:1085380003569CF0000F18BF4EF0010EA4F1FF0483
:10854800B6F5007F64F5407404D25FEA4E0E6D41C3
:1085580046EB060642EAC62141EA55514FEAC520D4
:1085680040EA5E504FEACE2EB4F1FD0C88BFBCF550
:10857800E06F1ED8BEF1004F08BF5FEA500E50F101
:10858800000041EB045170BD06F0004646EA0101C7
:1085980040EA020081EA0301B4EB5C04C2BFD4EBF9
:1085A8000C0541EA045170BD41F480114FF0000EF2
:1085B800013C00F3AB8014F1360FDEBF002001F060
:1085C800004170BDC4F10004203C35DA0C341BDCDA
:1085D80004F11404C4F1200500FA05F320FA04F0AC
:1085E80001FA05F240EA020001F0004221F00041E0
:1085F80010EBD37021FA04F642EB06015EEA430E53
:1086080008BF20EAD37070BDC4F10C04C4F1200582
:1086180000FA04F320FA05F001FA04F240EA020035
:1086280001F0004110EBD37041F100015EEA430E06
:1086380008BF20EAD37070BDC4F1200500FA05F226
:108648004EEA020E20FA04F301FA05F243EA0203A5
:1086580021FA04F001F0004121FA04F220EA0200B4
:1086680000EBD3705EEA430E08BF20EAD37070BDFA
:1086780094F0000F0FD101F00046400041EB0101DA
:1086880011F4801F08BF013CF7D041EA060195F0BC
:10869800000F18BF704703F00046520043EB030376
:1086A80013F4801F08BF013DF7D043EA0603704763
:1086B80094EA0C0F0CEA135518BF95EA0C0F0CD06E
:1086C80050EA410618BF52EA4306D1D181EA0301B4
:1086D80001F000414FF0000070BD50EA410606BFAE
:1086E8001046194652EA430619D094EA0C0F02D1F3
:1086F80050EA013613D195EA0C0F05D152EA033638
:108708001CBF104619460AD181EA030101F0004155
:1087180041F0FE4141F470014FF0000070BD41F09E
:10872800FE4141F4780170BD70B54FF0FF0C4CF478
:10873800E06C1CEA11541DBF1CEA135594EA0C0F97
:1087480095EA0C0F00F0A7F8A4EB050481EA030EE4
:1087580052EA03354FEA013100F088804FEA0333CB
:108768004FF0805545EA131343EA12634FEA022299
:1087780045EA111545EA10654FEA00260EF000415A
:108788009D4208BF964244F1FD0404F5407402D2AC
:108798005B084FEA3202B61A65EB03055B084FEA3D
:1087A80032024FF480104FF4002CB6EB020E75EB3A
:1087B800030E22BFB61A754640EA0C005B084FEA62
:1087C8003202B6EB020E75EB030E22BFB61A7546DF
:1087D80040EA5C005B084FEA3202B6EB020E75EB2A
:1087E800030E22BFB61A754640EA9C005B084FEAA2
:1087F8003202B6EB020E75EB030E22BFB61A7546AF
:1088080040EADC0055EA060E18D04FEA051545EA9D
:1088180016754FEA06164FEAC30343EA52734FEA46
:10882800C2025FEA1C1CC0D111F4801F0BD141EABF
:1088380000014FF000004FF0004CB6E711F4801F24
:1088480004BF01430020B4F1FD0C88BFBCF5E06F04
:108858003FF6AFAEB5EB030C04BFB6EB020C5FEA14
:10886800500C50F1000041EB045170BD0EF0004E69
:108878004EEA113114EB5C04C2BFD4EB0C0541EA9B
:10888800045170BD41F480114FF0000E013C90E698
:1088980045EA060E8DE60CEA135594EA0C0F08BF5C
:1088A80095EA0C0F3FF43BAF94EA0C0F0AD150EA5B
:1088B80001347FF434AF95EA0C0F7FF425AF1046EE
:1088C80019462CE795EA0C0F06D152EA03353FF416
:1088D800FDAE1046194622E750EA410618BF52EA93
:1088E80043067FF4C5AE50EA41047FF40DAF52EA67
:1088F80043057FF4EBAE12E74FF0FF3C06E000BF04
:108908004FF0010C02E000BF4FF0010C4DF804CD10
:108918004FEA410C7FEA6C5C4FEA430C18BF7FEAD0
:108928006C5C1BD001B050EA410C0CBF52EA430CFE
:1089380091EA030F02BF90EA020F0020704710F17E
:10894800000F91EA030F58BF994208BF90422CBF0D
:10895800D8176FEAE37040F0010070474FEA410C06
:108968007FEA6C5C02D150EA013C07D14FEA430C24
:108978007FEA6C5CD6D152EA033CD3D05DF8040B95
:10898800704700BF8446104662468C4619466346C7
:1089980000E000BF01B5FFF7B7FF002848BF10F19E
:1089A800000F01BD4DF808EDFFF7F4FF0CBF0120E3
:1089B80000205DF808FB00BF4DF808EDFFF7EAFF5F
:1089C80034BF012000205DF808FB00BF4DF808ED1A
:1089D800FFF7E0FF94BF012000205DF808FB00BF0F
:1089E8004DF808EDFFF7CEFF94BF012000205DF899
:1089F80008FB00BF4DF808EDFFF7C4FF34BF0120A6
:108A080000205DF808FB00BF4FEA410C7FEA6C5C70
:108A180002D150EA013C0AD14FEA430C7FEA6C5C70
:108A280002D152EA033C02D14FF0000070474FF0E8
:108A3800010070474FEA410212F5001215D211D514
:108A48006FF47873B3EB625212D94FEAC12343F043
:108A5800004343EA505311F0004F23FA02F018BFC5
:108A6800404270474FF00000704750EA013005D18E
:108A780011F0004008BF6FF0004070474FF0000051
:108A8800704700BF4A0011D212F5001211D20DD55D
:108A98006FF47873B3EB62520ED44FEAC12343F0FC
:108AA800004343EA505323FA02F070474FF00000A6
:108AB800704750EA013002D14FF0FF3070474FF055
:108AC800000070474FEA4102B2F1E04324BFB3F51A
:108AD800001CDCF1FE5C0DD901F0004C4FEAC0022D
:108AE8004CEA5070B2F1004F40EB830008BF20F011
:108AF8000100704711F0804F21D113F13872BCBFCB
:108B080001F00040704741F480114FEA5252C2F11F
:108B18001802C2F1200C10FA0CF320FA02F018BF68
:108B280040F001004FEAC1234FEAD32303FA0CFCBB
:108B380040EA0C0023FA02F34FEA4303CCE77FEA4A
:108B4800625307D150EA01331EBF4FF0FE4040F494
:108B58004000704701F0004040F0FE4040F4000043
:108B6800704700BF80F0004002E000BF81F0004184
:108B780042001FBF5FEA410392EA030F7FEA226CBB
:108B88007FEA236C6AD04FEA1262D2EB1363C1BF4B
:108B9800D218414048404140B8BF5B42192B88BFBA
:108BA800704710F0004F40F4000020F07F4018BFDD
:108BB800404211F0004F41F4000121F07F4118BFFD
:108BC800494292EA030F3FD0A2F1010241FA03FCA5
:108BD80010EB0C00C3F1200301FA03F100F000438D
:108BE80002D5494260EB4000B0F5000F13D3B0F155
:108BF800807F06D340084FEA310102F10102FE2AC4
:108C080051D2B1F1004F40EBC25008BF20F0010033
:108C180040EA03007047490040EB0000013A28BFD2
:108C2800B0F5000FEDD2B0FA80FCACF1080CB2EB55
:108C38000C0200FA0CF0AABF00EBC25052421843D3
:108C4800BCBFD0401843704792F0000F81F4000178
:108C580006BF80F400000132013BB5E74FEA41034B
:108C68007FEA226C18BF7FEA236C21D092EA030FB7
:108C780004D092F0000F08BF0846704790EA010F31
:108C88001CBF0020704712F07F4F04D1400028BF5E
:108C980040F00040704712F100723CBF00F5000040
:108CA800704700F0004343F0FE4040F40000704776
:108CB8007FEA226216BF08467FEA23630146420222
:108CC80006BF5FEA412390EA010F40F48000704735
:108CD8004FF0000304E000BF10F0004348BF4042DB
:108CE8005FEA000C08BF704743F0964301464FF017
:108CF80000001CE050EA010208BF70474FF0000373
:108D08000AE000BF50EA010208BF704711F00043B3
:108D180002D5404261EB41015FEA010C02BF844683
:108D28000146002043F0B64308BFA3F18053A3F5E2
:108D38000003BCFA8CF2083AA3EBC25310DB01FA29
:108D480002FC634400FA02FCC2F12002BCF1004FAD
:108D580020FA02F243EB020008BF20F0010070473E
:108D680002F1200201FA02FCC2F1200250EA4C0092
:108D780021FA02F243EB020008BF20EADC707047D8
:108D88007BB972B90029BEBF00204FF0004106E050
:108D980008BF00281CBF6FF000414FF0FF3000F003
:108DA80057B8ADF1080C6DE904CE002909DB002B9A
:108DB8001ADB00F061F8DDF804E0DDE9022304B015
:108DC8007047404261EB4101002B1BDB00F054F877
:108DD800DDF804E0DDE9022304B0404261EB410123
:108DE800524263EB43037047524263EB430300F084
:108DF80043F8DDF804E0DDE9022304B0404261EB0A
:108E080041017047524263EB430300F035F8DDF847
:108E180004E0DDE9022304B0524263EB43037047E8
:108E280053B94AB9002908BF00281CBF4FF0FF31C9
:108E38004FF0FF3000F00CB8ADF1080C6DE904CE2E
:108E480000F01AF8DDF804E0DDE9022304B0704709
:108E5800704700BF10F8012B11F8013B012A28BF09
:108E68009A42F7D0D01A7047034613F8012B002A0C
:108E7800FBD1181A013870472DE9F04786468C4611
:108E88000846089E154674461946002B40F0C180D6
:108E98008542B2FA82F245D94AB1C2F1200300FAFA
:108EA80002FC954094402EFA03F343EA0C0C4FEA77
:108EB800154EA8B2230CBCFBFEF80EFB18CC08FB21
:108EC80000F943EA0C43994528D9EB1808F1FF3714
:108ED80004D2994502D9A8F102072B44A3EB090350
:108EE800A4B2B3FBFEFC0EFB1C330CFB00F044EAFF
:108EF8000344A04214D92C190CF1FF3304D2A04228
:108F080002D9ACF102032C44241A43EA07401EB1EB
:108F1800D440002334607360BDE8F0874746DDE73E
:108F28006346F1E792BB431B01214FEA154EAFB2EE
:108F3800200CB3FBFEFC0EFB1C330CFB07F840EACD
:108F48000343984561D9EB180CF1FF3004D29845DA
:108F580002D9ACF102002B44A3EB0803A4B2B3FB83
:108F6800FEFC0EFB1C330CFB07F744EA0344A74244
:108F78004DD92C190CF1FF3304D2A74202D9ACF118
:108F880002032C44E41B43EA0040C0E7C2F120037B
:108F98009540944020FA03F12EFA03F34FEA154E58
:108FA8009040AFB20343B1FBFEFC0EFB1C10190C42
:108FB8000CFB07F841EA0041884522D969180CF1F1
:108FC800FF3004D2884502D9ACF102002944A1EB54
:108FD80008019BB2B1FBFEFC0EFB1C110CFB07F752
:108FE80043EA01439F420ED9EB180CF1FF3104D23A
:108FF8009F4202D9ACF102012B44DB1B41EA00413C
:1090080093E76046E3E76146F7E76046A4E763460F
:10901800B8E7834206D916B9002108467CE7C6E9B5
:1090280000E0F9E7B3FA83F78FB9834201D37245B9
:1090380008D8BEEB020460EB030301209C461EB96E
:10904800002169E73846FAE7C6E9004CF8E7C7F1B6
:10905800200CBB400EFA07F522FA0CF42EFA0CF19C
:10906800BA401C4320FA0CF3B8404FEA14490143B4
:109078001FFA84FEB3FBF9F809FB18300B0C08FB48
:109088000EFA43EA00439A4540D9E31808F1FF3045
:1090980004D29A4502D9A8F102002344A3EB0A039B
:1090A80089B2B3FBF9F809FB183308FB0EFE41EA55
:1090B80003418E452CD9611808F1FF3304D28E453F
:1090C80002D9A8F10203214443EA0040A1EB0E01B2
:1090D800A0FB02984145CE46434602D306D14D45F2
:1090E80004D20138B9EB020E68EB0403002EA7D0B6
:1090F800B5EB0E0261EB030101FA0CFC22FA07F34F
:10910800F9404CEA0303C6E9003199E74046C5E750
:109118004346D9E7000000002DE9F04F2DED028B02
:109128009DB0032102AF744A744821F073F90023FB
:10913800FB63734B4FF48052BB6307F138037149EB
:109148007148009305231CF035F907F0D5FC034658
:1091580020B102216D4A694821F05EF903216C4A69
:10916800664821F057F907F0C7FE044668B303467E
:10917800684A0121614821F04FF923460121664AD6
:109188005E4821F049F907F0A1F907F0D3FA08F091
:10919800FFFB0321614A594821F03CF914F0A6FB72
:1091A800044630B303465E4A0121544821F034F99D
:1091B80023465C4A0121514821F02EF920466C379C
:1091C800BD46BDEC028BBDE8F08F002140F6CD40D6
:1091D80030F0A3F807F0A2FE044610B10346524A45
:1091E800C7E708F0F5F904460028CCD003464F4AF3
:1091F800BFE74F4815F010FA01202CF052FE034645
:1092080020B102214B4A3D4821F006F903214A4A80
:109218003A4821F0FFF82CF03FFE044610B103460F
:10922800464AC1E700234FF4160245481BF060FF89
:10923800444A0321314821F0EDF8434943482FF0CF
:1092480085FF314807F00CF9034620B10221404A56
:109258002A4821F0E1F803213E4A284821F0DAF8AB
:109268003D481BF09BFA044640B103463B4A0121A6
:10927800224821F0D1F82346394A9BE705201BF004
:1092880007FA034620B10221364A1C4821F0C4F8E7
:1092980001201BF029FA044610B10346324AE6E7DA
:1092A8001BF050FA034620B10221304A134821F03E
:1092B800B3F81BF07DF9044610B103462C4AD6E7F3
:1092C80003212C4A0D4821F0A5F82B4C2B4820608F
:1092D8002FF07EFD002857D10121294A074821F0A7
:1092E80099F86FF012030121264A044821F094F8F6
:1092F8006FF0120462E700BF8ACD0400B8A804002A
:10930800B3CD0400C86B012050E00020BECD04009E
:10931800EBCD040003CE040056CE04006ECE04004C
:1093280084CE040001CF04001DCE040036CE040014
:1093380025A40300A2CE0400BCCE0400D9CE0400AC
:109348003CDE0020F3CE040085010200E411012078
:1093580017CF040048CF0400E10002005DCF0400ED
:1093680014D0040082CF04009DCF0400BCCF0400B9
:10937800D9CF0400F2CF0400E011012070A404004A
:1093880029D0040041D00400072101230622C7E99F
:109398001213206807F148033F2121F02EF80346F5
:1093A800002800F0BC800221744A754821F034F886
:1093B800072200230D21C7E91223206807F148037B
:1093C800062221F01AF80346002800F0AE80022198
:1093D8006C4A6B4821F020F8172300223F21C7E987
:1093E8001232206807F1480321F007F8034620B13C
:1093F8000221654A624821F00FF800230325142250
:10940800C7E912533F2107F14803206820F0F5FF10
:109418000346002800F08F8002215C4A584820F05B
:10942800FBFF002140F6CD402FF077FF20688368CE
:109438003F21DB689847034620B10221544A50482F
:1094480020F0EAFF0321534A4D4820F0E3FF07F0DC
:109458003FFEA8B10321504A494820F0DBFF08F03D
:109468000FF9044600286CD003464C4A01214448B1
:1094780020F0D2FF23460121484A414820F0CCFF82
:1094880000250321464A3E4820F0C4FF2E46A84640
:10949800A9464FF0000A4FF0000B2FF0B8FF4FF429
:1094A8007A72A0FB020302FB0131C40BCB0B44EA26
:1094B8004144FB62002200233A481BF019FE10B910
:1094C800394820F0F4FFFB6AB4EB080263EB0903A8
:1094D800642A73F10003C0F22581DFF8F090D9F80F
:1094E800000083683F21DB689847804680B9D9F837
:1094F800000083680E211B6907F1400298478046E7
:10950800002865D003460221284A1D4820F084FF20
:1095180043460221264A1A4820F07EFFFFE0032135
:10952800244A174820F076FF42E70321224A1448CC
:1095380020F070FF50E72946204A114820F06AFFC2
:109548006FE708F05DFA044610B103461C4A8DE740
:1095580008F002F96D4688B002AA1A4BC2E9053034
:109568004FF400739383184B42F8103F4FF4E651C1
:109578002346034809F086FDAD4681E75BD0040029
:10958800B8A80400B5D0040011D1040027D1040004
:1095980067D1040094D10400C9D10400E1D10400CA
:1095A80032D2040054DE002068DF00205ED20400BE
:1095B80018D304007AD00400E0D0040049D1040094
:1095C800FDD104001ED2040003000001E0110120B7
:1095D800D9F8000083680D211B6907F148029847F4
:1095E800034630B10221B04AB04820F015FFC7E960
:1095F8001288786CFEF704FFA9A3D3E90023FFF7CC
:1096080093F88046386C8946FEF7FAFE02460B4608
:1096180040464946FEF7A8FDFFF754FA08EE100A3F
:10962800F86CFEF7EDFE9EA3D3E90023FFF77CF864
:109638008046B86C8946FEF7E3FE02460B46404674
:109648004946FEF791FDFFF73DFADFED997AB4EE52
:10965800E78AF1EE10FA08EE900A06D4DFED957A63
:10966800B4EEE78AF1EE10FA1BDDE94688B00DF199
:109678000808914B18EE100AC8F81430FEF7D2FE0D
:1096880052465B46FEF770FD42460423C8E90601D0
:1096980042F8103F00234FF40251844809F0F2FCCD
:1096A800CD46DFED867AF4EEE78AF1EE10FA06D4BD
:1096B800DFED837AF4EEE78AF1EE10FA1BDDE94676
:1096C80088B00DF108087F4B18EE900AC8F81430DE
:1096D800FEF7A8FE52465B46FEF746FD42460423C7
:1096E800C8E9060142F8103F00234FF402516F48C1
:1096F80009F0C8FCCD46B5EEC08AF1EE10FA40F389
:10970800A980DFED717AB4EEE78AF1EE10FA40F144
:10971800A180F0EE680AB0EE480A08F0AFF9A0465A
:10972800D7F82C9042F21072FB6A611B63EB0603B8
:10973800914273F10003C0F2858006F00DFF0546E3
:1097480007F038F8064607F08BFB00234FF47A72CF
:10975800FFF716FBC7E90C0107F130001CF0CEFC3F
:109768000346002800F093802021584A07F148005A
:1097780030F0EAF806F0C6FE06F0F2FEB86207F02E
:1097880013F807F01BF852465B467862D5E90601E4
:10979800FEF7EAFC52465B46C7E90601D5E908012F
:1097A800FEF7E2FCC7E90401286BFEF73BFE5246D0
:1097B8005B46FEF7D9FCC7E90201B069FEF732FE45
:1097C80052465B46FEF7D0FCC7E90001F069FEF798
:1097D80029FE52465B46FEF7C7FC6D4696B002AAC4
:1097E80097ED067B82ED0A7B97ED047B82ED0C7B7F
:1097F80097ED027B364B82ED0E7B536107F14803F0
:109808009361BB6A97ED007BD361324BC2E91201C9
:109818003B6440F20243A7F844307B6A796C1362D8
:109828002C482D4B82ED107B1065A2F8541042F89D
:10983800103F002348F6C0411C4809F023FCAD4600
:109848002546FE6A08F04EFA002140F6CD402FF07A
:1098580064FD22E6E94688B00DF108081F4B18EEB2
:10986800100AC8F81430FEF7DDFD52465B46FEF7D5
:109878007BFC42460423C8E9060142F8103F002356
:109888004FF40251094809F0FDFBCD4647E714495A
:1098980007F1480030F050F86CE700BFAFF30080E4
:1098A8000000000080842E4182D20400B8A8040081
:1098B800005043470060EA47B4D20400000048C2A1
:1098C8000000C842D3D20400005043482DD30400FE
:1098D8003FD304000002010310000003F4D2040087
:1098E80055CC0400000000002DE9F04F2DED028B4F
:1098F8000124AFB0DFF82C9202AF54220021786027
:1099080007F15C0089F800402FF0B6FE4FF4806341
:10991800BC66734C0621734A3B6607F1100041F69A
:109928006C431DF081FC204607F10C0307F15C0233
:1099380007F1100121F07CFFF8B16D468AB002AA48
:10994800694BD061C2E905344FF400731384674B47
:1099580042F8103F00234FF41151654809F092FB7B
:10996800AD464FF0FF3500232846B43789F800305C
:10997800BD46BDEC028BBDE8F08F9FED578BFD68AF
:109988005C4CD5B100262A22314607F13000FE6230
:109998002FF072FED5F81C8006220121B8F80000CD
:1099A80021F061FFB042206018DA21F02DFF036832
:1099B800514A01214E4821F067FDF86821F036FF31
:1099C8004B4801214D4A21F056FD20680028C8DB8C
:1099D80021F01CFF4FF0FF332360C2E710233E62E3
:1099E80087ED068B14220093012107F1180321F05B
:1099F80033FF064620B121F007FF0368404AD8E745
:109A0800414607F12C0B5A462E2331F8040B21F05E
:109A180009FFEA468AB002AA3A4BC2E9053B41F679
:109A28006C434FF4007BD361304BA2F820B042F86E
:109A3800103F4FF4135133462D4809F023FB41469C
:109A4800D546AA69206821F0F5FE064678B1206857
:109A580021F0DCFE4FF0FF33236021F0D5FE0368D0
:109A68000221294A224821F00FFD2D6889E7F8686C
:109A780021F0DCFE0321254A1D4821F0FCFC786812
:109A880015F024FD224A051E88B0224B08BF134654
:109A980002AA2149A2F81CB0C2E905131F4B42F8DB
:109AA800103F134833464FF4E65109F0EBFA2068AB
:109AB800D5460028FFF657AF21F0A8FE002804DAA3
:109AC8000121174A0A4821F0D6FC4FF0FF332360E2
:109AD80049E700BFAFF3008001000000000000006C
:109AE80002D5040015D804001CD5040004000001A8
:109AF80060A90400ECC5002045D50400E3D50400A6
:109B080067D504008ED50400A7D50400CDD5040080
:109B180012D5040017EF040004D604000300000166
:109B280014D60400C72001202DE9F04F8DB007F0AE
:109B3800CFFA002800F0ED80794D2B7853B9012138
:109B4800784A794821F097FC6FF0150420460DB04B
:109B5800BDE8F08F95F8380006F002FD824695F8CA
:109B6800390006F02BFED5E91089704B0022002839
:109B780014BF83469B46BAF1000F08BF9A46404679
:109B880000234946FEF70EFF0446002840F09C805B
:109B9800D5E912670022002330463946FEF702FF56
:109BA800002840F09280002240464946604BFEF76C
:109BB80017FF0446002800F08880002240464946E6
:109BC8005C4BFEF703FF044600287ED00022304697
:109BD8003946594BFEF704FF0446002875D0002289
:109BE80030463946554BFEF7F1FE044600286CD046
:109BF80049A3D3E9002340464946FEF76BFCFEF72C
:109C080019FF45A3D3E90023804639463046FEF7BD
:109C180061FCFEF70FFF0446D5ED147AF5EE407AA5
:109C2800F1EE10FA53D09FED467AF4EEC77AF1EED2
:109C380010FA4CDB9FED437AF4EEC77AF1EE10FA96
:109C480045D8B2EE047A67EE877AFDEEE77A17EE2A
:109C5800900A6B6D3C4E0A93FEF7D2FB00223B4BF9
:109C6800FEF762FDCDE908012046FEF7C9FB2AA3ED
:109C7800D3E90023FEF758FDCDE906014046FEF77B
:109C8800BFFB25A3D3E90023FEF74EFDCDE902ABC8
:109C9800CDE904012B6B2E4A0193AB6A4FF4806126
:109CA800009330461E4B1DF0BFFA40F2FE33421EB1
:109CB8009A4204460DD901210346264A1A4821F042
:109CC800E3FB6FF00B0441E70024A046A4E7002063
:109CD800BFE70023335407F083FB032123461E4AC2
:109CE800114821F0D1FB224631461C4807F096FA6C
:109CF800044640B101210346194A0B4821F0C4FB30
:109D080007F05CFB22E70321164A074821F0B3FB62
:109D1800F6E76FF0120419E70000000080842E4176
:109D280038EE002092DD040048A9040055CC040058
:109D3800008056C000805640008066C000806640A3
:109D480000007AC40050C347CA2001200000244004
:109D5800AFDD040075DE040097DE0400FFDC0400BC
:109D6800B9DE0400DADE04002DE9F04F824617461A
:109D78001C4600259FB00391387810B9284600F09A
:109D8800A9BD252809D00399D0470028C0F2A2858B
:109D98007B1C01350593059FEEE71822002110A8CA
:109DA8002FF06AFC7B78252B00F0BC8000239846B6
:109DB8009E469C461846791C0E4611F8012B2B2A04
:109DC80000F0E38000F2DA80202A00F0E180232A04
:109DD80000F0E1802BB19DF8483043F040038DF846
:109DE8004830B8F1000F05D09DF8483043F0200303
:109DF8008DF84830BEF1000F05D09DF8483043F08B
:109E080010038DF84830BCF1000F05D09DF848309C
:109E180043F008038DF8483028B19DF8483043F0E6
:109E280004038DF848309DF8483003F04401442974
:109E380003D16FF386138DF848309DF848302A2AED
:109E480043F080030E968DF8483040F0A9809DF8C5
:109E5800493043F001038DF84930731C1A782E2AD3
:109E68000CBF012100219DF8492061F341028DF8C2
:109E780049200CD15A1C0E925A782A2A40F0A08008
:109E88009DF84920023342F004028DF849201A78DF
:109E98006C2A00F0C18000F2A380682A00F0A98033
:109EA8006A2A00F0C2804C2A00F0C78013F8012B00
:109EB800782A05938DF84B2000F209816D2A00F26B
:109EC800C980692A00F20381572A00F2E280412AF8
:109ED80004D0A2F14503022B00F2F98004219DF879
:109EE8004A3002F0DF02A2F1410961F30203D9F11D
:109EF80000029DF8491042EB090262F3C7110A06F5
:109F08008DF84A308DF84910CBB200F11F8103F06B
:109F18007802182A40F009816FF3C6038DF849309A
:109F28000023F8E08DF84B30BB1C05939DF84930B1
:109F38009DF84A20DE0702F0070040F1098154F835
:109F4800041B0029049108DA9DF8481041F0040127
:109F58008DF84810049949420491590740F100814D
:109F680054F8046B002E80F2FF809DF849306FF39F
:109F780041038DF849304FF0FF36F5E02D2A0DD01A
:109F8800302A7FF427AF012316E74FF0010C13E7BF
:109F98004FF0010E10E74FF001080DE701200BE725
:109FA8000EA808F04DFC0E9BB3423FF457AF9DF846
:109FB80048201390C00F60F341028DF848204DE708
:109FC8000EA808F03DFC9DF848301490C3F34002F9
:109FD80042EAD07262F341038DF848300E9B56E78F
:109FE800742A26D07A2A7FF461AF06219DF8492089
:109FF8000CE05A78682A9DF8492006D1012161F3BE
:10A00800C6028DF84920023350E7022161F3C602E7
:10A018008DF84920013349E75A786C2A9DF8492080
:10A0280001D10421EBE70321F0E705219DF8492040
:10A03800ECE707219DF84920E8E7BDF8482022F41D
:10A04800F04222F0020242F4804242F00202ADF8ED
:10A058004820DFE76E3AD3B201229A4040F28243A9
:10A068001A429DF8493039D112F0240F61D1D10735
:10A078002DD503219DF84A2003F07803A3F1400869
:10A0880061F30202D8F100038DF84A2043EB08037C
:10A0980041E00120A2F15801C9B200FA01F111F41E
:10A0A800624F7FF41BAF40F6010319429DF8493017
:10A0B8001AD111F4043F0AD09DF84A2060F3020235
:10A0C80003F07803402B8DF84A207FF429AF9DF8E0
:10A0D800483043F001038DF8483021E702219DF80C
:10A0E8004A2061F30202EBE702209DF84A1003F0D0
:10A0F800780360F30201402B8DF84A1002BF9DF8E7
:10A10800481041F001018DF84810632A7FF408AF28
:10A11800003B18BF01239DF84820C2F340010B43C0
:10A1280063F341028DF8482000E713F0380FCED1D1
:10A13800F6E603219DF84A2013F0780F61F3020236
:10A1480014BF012300238DF84A20E4E70123E2E746
:10A158009DF948100029ACBF4FF0FF311399FBE679
:10A168009E077FF508AF149E00230428CDE913331A
:10A178009DF8493007D1990705D49DF94910002960
:10A18800ACBF06260D2602F00702012AC3F3C3035B
:10A1980032D1DA1E042A04D8DFE802F0204545202F
:10A1A80020002268012B4FEAE271CDE910211BD172
:10A1B8009DF94020D117CDE9102104349DF848209D
:10A1C800069292074FD03A465046059B039920F0D5
:10A1D80043FD0028C0F27E830544DCE554F8042BD7
:10A1E800D117CDE91021E9E7022BE6D111B242F3EC
:10A1F800C032CDE91012E0E7022A24D1DA1E042A7F
:10A2080004D8DFE802F0181010181800012B4FF0DE
:10A21800000154F8042B14D0022BCDE91021CDD124
:10A2280092B21092CAE7073424F00704F4E8020156
:10A23800CDE91001C2E754F8042B109200221192C4
:10A24800BCE7D2B2CDE7042A08D1073424F00704CA
:10A25800D4E900010834CDE91001AFE7032AADD1F4
:10A2680054F8042BDDE79DF84B80B8F1780F3FF6E2
:10A2780092ADB8F1570F5CD8B8F1250F00F0A48063
:10A28800B8F1240F7FF687ADB8F1410F04D0A8F1DB
:10A298004503022B3FF67FADDDE91023002BC0F20A
:10A2A8004D810699080700F14C81C1F300194FEA66
:10A2B8004919C3F30A51C3F31303002940F0448139
:10A2C80052EA030014BF4FF0010C4FF0000CD80203
:10A2D80040EA5250D702CDE90C70B8F1460F47EA70
:10A2E800010740EAE17008BF4FF06608384300F004
:10A2F800B781BCF1000F10D01B0343EA12531703B8
:10A308003A4618464FF0000C002880F25681BCF1FE
:10A31800000F40F05981CDE90C730D9BA1F2FE3B73
:10A3280043F000430D930021DDE90C230F4605207F
:10A3380060E1A8F15802202A3FF62DAD01A151F89D
:10A3480022F000BF17A501009F9D01009F9D0100FD
:10A358009F9D01009F9D01009F9D01009F9D010001
:10A368009F9D01009F9D0100A1A201009F9D0100EA
:10A37800C3A40100D7A40100A1A20100A1A2010069
:10A38800A1A201009F9D0100D7A401009F9D01008B
:10A398009F9D01009F9D01009F9D01001DA501003B
:10A3A80017A5010067A401009F9D01009F9D010062
:10A3B800E1A301009F9D010017A501009F9D0100D9
:10A3C8009F9D010017A5010040460399D04700282A
:10A3D800C0F280820135DEE4002E109F3BDB31465F
:10A3E80038462FF0D8FA002F3FF4D5AC4FF00009CB
:10A3F8003E18F31B9DF84A2012F01001069100F058
:10A408005E82023312F04002DDF84C80089218BFD9
:10A41800149A434418BF9B18049ACDF81C80002A4C
:10A4280040F36882D31A9DF8482004935007C2F37A
:10A43800800B00F15F82510640F14F82B9F1000FA5
:10A4480007D048460399D0470028C0F24382D9462E
:10A458000135302242E23846FEF706FDC6E710987D
:10A46800002800F027820DF175030093002117AB37
:10A4780012AA08F0FBF94FF000090746BDF84A3068
:10A4880003F0EF0343F4F04343F01003ADF84A3010
:10A49800002E0CDB9DF848200DF17503DB1B6FF3D4
:10A4A80086129E428DF8482001D9F31A1393002F83
:10A4B8003FF471AC0DF175066DE0109B4FF000098B
:10A4C8008DF85C300DF15D06012317AF92E7069B0E
:10A4D8001F0754BFC3F300194FF02B09DDE9102300
:10A4E80058BF4FEA4919002B06DA4FF02D0952429E
:10A4F80063EB4303CDE91023DDE910010DF175038A
:10A50800009312AA17AB08F0B1F90746C0E74FF05D
:10A518000009F1E7109A072B3FF63DACDFE803F09E
:10A528000C04060C08080C0C157034E4158032E491
:10A53800EB17C2E900532EE415602CE44FF02D0907
:10A54800B7E64FF02B09B4E640F2FF70814231D1F3
:10A55800A34908F101085FFA88F811F808101343B5
:10A5680001F003011ED101290BBF492369234E21A4
:10A578006E210CBF462266228DF85C309DF848306B
:10A588008DF85D106FF386138DF85E208DF84830D6
:10A598000DF15F0617AFF31BB9F1000F3FF42AAFB7
:10A5A800013327E7012915BF6E234E23612141217D
:10A5B8001A46E1E74FF0000C89E692184FF0010CBB
:10A5C80001F1FF3140419FE6CDE90C20A5E6520894
:10A5D80042EAC3725B08B3F1333F59460BF1010BF2
:10A5E800F5D201F1020B012100FB03FCA2FB0023C1
:10A5F800013F63441BF1020FE9DB09B1CDE90C23EC
:10A60800DDE90C32BBF1000F2DDCCBF10401A1F127
:10A6180020000BF11C0B02FA0BFB22FA00F0CA40D7
:10A62800CB40079208F0DF0243EA0B03472A43EACC
:10A6380000037BD1F91C01DBBE422ADAA8F102082B
:10A64800002E5FFA88F87ADD9DF84820013E9206D0
:10A6580075D4B6F1000B18BF4FF0010B721C26E041
:10A668004FF0000B5FE6023342F100020CA80BF139
:10A67800FF3B0137CDE90C3220F0BFFADDE90C329F
:10A68800DB185241002A0BF1FF3BF9DACDE90C3215
:10A69800B6E79DF84820F61B90064DD4B6F1000B9E
:10A6A80018BF4FF0010BF2194FF066084AD4102A70
:10A6B800A8BF10229FED487B10208DED0E7B0B90DC
:10A6C800DDE90E01002A3FD1079A1B1842EB010170
:10A6D800B1F1805F47D2CDE90C31069BB8F1660F26
:10A6E80003F0200240F0C680002F47DC30238DF8AD
:10A6F8005C30002A76D1002E40F3BD812E238DF8E0
:10A708005D3087B17B42B342A8BF3346002B139319
:10A71800A6EB0306D4BF002301239DF84A2063F368
:10A7280045128DF84A200DF15E0340E0B8F1660F3E
:10A738004FF0000BB7D091E74FF0000BB3E74FF0A5
:10A74800000B8BE70022B5E7400840EAC1704908D2
:10A75800CDE90E010EA8CDE9082320F04EFA089A9B
:10A76800099B013AACE75B0843EAC1730CA84908A6
:10A77800CDE90C31013720F040FAAEE717AB0B9961
:10A7880000290BDD0BA90CA8CDE9063220F04DFA03
:10A79800069B013F079A03F8010BF0D11397AAB95A
:10A7A800002E40F366812E2103F8011B0027002E9E
:10A7B80021DD0B9A002A1EDD0BA90CA8069320F0B8
:10A7C80034FA069B013E03F8010BF0E72E2203F84A
:10A7D800012BEBE7AFF30080000000000000000849
:10A7E8001A6805002E238DF85D30002F9BD0002EAF
:10A7F80088DC0DF15E03BBF1000F4FD114961E46A5
:10A8080008F0DF03452B24D1002FBABF7F422D2348
:10A818002B23632FC8BF64227370C4BFB7FBF2F346
:10A8280002FB13774FF00A02C8BF03F13001B7FBF0
:10A83800F2F3C8BFB17003F1300102FB137386F85D
:10A84800008003F13003D4BF0236033631707370D1
:10A858000236139B002B2BDC149B002BD4BF002348
:10A8680001239DF84A2063F3861200238DF84A20BD
:10A8780033708FE60BA90CA8069220F0D6F9069A39
:10A8880030288DF85C0018BF07F1FF3712B9002E89
:10A8980040F3F1802E238DF85D3044E71E4616F80C
:10A8A800012C013B302AF9D02E2A08BF1E46A7E703
:10A8B8000123D6E7714E81460523771F9AE51107D4
:10A8C80048BF01339EE5104609920399D0470028F6
:10A8D800099A05DA1FB0BDE8F08F2022DDF810B024
:10A8E800594600290BF1FF3BEDDC049BCDF810B075
:10A8F8002B445D1AB9F1000F05D048460399D0479B
:10A908000028E7DB0135089B002B77D09DF94930FB
:10A91800002B28DB3B46DFF8689118789B4619F82E
:10A928000020013352073FD49DF84A30EF1B9806A8
:10A938005F4407D44246002A08F1FF383BDC079BF6
:10A948003B449F1A9BF800002E280AD10399D04750
:10A958000028BFDBB8F1000F07F1010731DC0BF16C
:10A96800010B5D4638E0B94699F80000C8467028E2
:10A9780009F1010913D1EF1B149D47443D44EB1B1A
:10A98800002B33DC334642465046039920F064F9E5
:10A9980000289FDB3844049E0546064464E003997A
:10A9A800D0470028E0DA95E706930399D0470028B6
:10A9B800069BB2DA8EE730200399D0470028B9DA2F
:10A9C80088E730200399D04708F1FF38C0E703999A
:10A9D800D0470028FFF67EAF2878A84619F800303F
:10A9E80001355907F3D4A7EB0B07C5E730200399C6
:10A9F800D0470028FFF66EAF0137C0E79DF84A3010
:10AA0800DA0601D41B0706D530200399D047002861
:10AA1800FFF660AF0135069B3BB103999DF84B00EB
:10AA2800D0470028FFF656AF0135A84406E030208D
:10AA38000399D0470028FFF64DAF0135A8EB050371
:10AA4800002BF4DC33463A465046039920F004F9CB
:10AA58000028FFF63FAF28449DE720200399D04700
:10AA68000028FFF637AF0135731B002BF5DCFFF725
:10AA780092B91746BFE60DF15D03BCE697E1040005
:10AA88001B6805000000000001282DE9F0418846F8
:10AA980007D020F0B9FE162303604FF0FF30BDE861
:10AAA800F0818A68244B9A42F3D82EF0B0FC054610
:10AAB8000F462EF0ACFC214CD8F80030D8F8042012
:10AAC800A3FB043604FB0266D8F808209B1846EB63
:10AAD800E276EA0B42EA4742A2FB0421FF0B9B1AEB
:10AAE800C0F30E0204FB0711A2FB04244FEAD23282
:10AAF80042EA444266EB0101981A61F100010CA395
:10AB0800D3E90023FEF73CF9EFF31184202383F304
:10AB18001288BFF36F8F0A4BC3E900019A6084F370
:10AB28001188BFF36F8F0020B9E700BFAFF3008033
:10AB380000CA9A3B00000000FFC99A3B00CA9A3B32
:10AB48000000012000000000032973B505461446E3
:10AB580071D8002A40D0072A5CD15A681C6813466D
:10AB68003948D117C4FB0031012B71F1000225DBF4
:10AB780000F56E1000F65D70181841F1000130A361
:10AB8800D3E90023FEF7FCF880B202281ED004287F
:10AB98001ED008281ED0102833D103232B492A6938
:10ABA80051F8231028461161526823211469302274
:10ABB800A4461B0102B0BDE870406047244818183D
:10ABC80061F100011EA3D3E90023DBE70023E5E7D9
:10ABD8000123E3E70223E1E71A881E4B33F8021B3F
:10ABE8008A420BD12E692021736828469B680DF193
:10ABF80007029847002807DA02B070BD01340B2C11
:10AC0800ECD16FF01500F7E79DF80720130704D47F
:10AC1800082C05D16FF08500EEE70A2C08BF09243F
:10AC2800736802F00F0242EA041220212846DB680A
:10AC3800D2B29847E0E702B0BDE870400DF01ABB09
:10AC48003AA395000000000040420F0088CA002087
:10AC5800632EB5FFE4C704002DE9F04F00232DED66
:10AC6800048B0446C0F84033C02199B023F051FA50
:10AC7800D4F8A4250646D2F864317BB1D2F86831FD
:10AC88000133C2F86831D4F8A425D2F8642193427C
:10AC980004DD0022B621204625F0F7F9204623F0EE
:10ACA800B9FC0706307037D5D4F8A425D2F864313A
:10ACB80053B1D2F868310133C2F86831D4F8A42509
:10ACC800D2F864219342E4DC204623F0ECFB9B4A53
:10ACD8000546A2F10801204624F059FE4FF6FF73FD
:10ACE800706000220821204627F0DBFD30814DB13D
:10ACF80017A9204628F02CFE002302461799204663
:10AD080022F08FFCD4F8A435D3F8642122B1D3F80B
:10AD18006821013AC3F86821204623F0C4FB0038B3
:10AD280018BF0120337830735D0607D54FF6FF73DF
:10AD380000220821204627F0B4FDF0813178D4F8AC
:10AD4800A4258806D2F864312CD553B1D2F86831DD
:10AD58000133C2F86831D4F8A425D2F864219342AB
:10AD680097DC204623F09FFB3074204623F09BFBA2
:10AD7800003818BF012096F910307074002B07DADC
:10AD88004FF6FF7300220821204627F08AFD7082C3
:10AD9800D4F8A435D3F8642122B1D3F86821013A54
:10ADA800C3F868213178D4F8A425C906D2F86431EB
:10ADB80043F174865BB1D2F868310133C2F8683167
:10ADC800D4F8A425D2F8642193423FF762AF204615
:10ADD80024F0F9FB421C92B2012AB28204D0022A62
:10ADE80000F0A880072156E7D4F8A425D2F86431EA
:10ADF8005BB1D2F868310133C2F86831D4F8A425C0
:10AE0800D2F8642193423FF744AF204624F08EFCE9
:10AE1800421C92B2531E32830F2BE3D8DFE813F0A3
:10AE28008A008A008A0010008A008A004A1D041ECF
:10AE3800B91EB91EB91EB91EB91EB91EB91EB91E52
:10AE4800D4F8A425D2F864315BB1D2F86831013363
:10AE5800C2F86831D4F8A425D2F8642193423FF7A8
:10AE680018AFD4F8A425D2F864315BB1D2F86831B0
:10AE78000133C2F86831D4F8A425D2F8642193428A
:10AE88003FF707AF204624F09EFB421C92B2012AEE
:10AE9800B2830FD0022AA5D1D4F8A435D3F86421FF
:10AEA800002A03F0DD85D3F86821013AC3F8682148
:10AEB80003F0D6BDD4F8A425D2F864315BB1D2F83A
:10AEC80068310133C2F86831D4F8A425D2F8642176
:10AED80093423FF7DEAE204624F09FFB421C92B21D
:10AEE800511E0023328403293FF67CAFDFE811F0BE
:10AEF8000400931D931D931DD4F8A425D2F8643142
:10AF08005BB1D2F868310133C2F86831D4F8A425AE
:10AF1800D2F8642193423FF7BCAE0023204686F85E
:10AF2800243023F0C0FA0C90204623F073FB02066D
:10AF3800089005D500228921ADE600BF24C0040091
:10AF4800089B5B0643F13F8496F8243063F07F0347
:10AF580086F82430D4F8A425D2F864315BB1D2F84D
:10AF680068310133C2F86831D4F8A425D2F86421D5
:10AF780093423FF78EAE204623F095FA0D90204677
:10AF880023F0FEFA070686F8280041F12281D4F85A
:10AF9800A425D2F864315BB1D2F868310133C2F824
:10AFA8006831D4F8A425D2F8642193423FF771AEF2
:10AFB8000023204686F82C3023F075FA07902046A7
:10AFC80023F028FB0506049040F1F58696F82C300E
:10AFD80063F07F0386F82C30D4F8A425D2F86431C6
:10AFE8005BB1D2F868310133C2F86831D4F8A425CE
:10AFF800D2F8642193423FF74CAE204623F053FA2F
:10B008000990204623F078FA86F83000D4F8A42571
:10B01800D2F864315BB1D2F868310133C2F86831D3
:10B02800D4F8A425D2F8642193423FF732AE2046E3
:10B0380023F039FA8246204623F0A2FA06F13801B5
:10B0480086F83400204610F085FC4FF6FF73002286
:10B058000F21204627F025FC4FF0FF33B087002250
:10B068001121204627F01DFC96F934303064002B5E
:10B0780008DA4FF6FF7300220A21204627F011FC58
:10B08800A6F8440096F8343058060CD50821204616
:10B0980023F03FF802220146F06400232046A6F878
:10B0A800482027F0D4F80023336596F83430990601
:10B0B80040F18F80D4F8A425D2F864315BB1D2F87E
:10B0C80068310133C2F86831D4F8A425D2F8642174
:10B0D80093423FF7DEAD4FF00008402201212046A1
:10B0E80012AB8DF8488026F06CF80546002800F071
:10B0F80032811021204623F00CF881460746D4F807
:10B10800A425D2F864315BB1D2F868310133C2F8B2
:10B118006831D4F8A425D2F8642193423FF7B9AD39
:10B12800204623F0C0F98346204624F08BFB0130EB
:10B138004FF6FF7300220E21B880204627F0B1FB9E
:10B14800F880204624F03FFA3881204624F03BFA64
:10B158007881204624F061FAB881BBF1000F09D04C
:10B1680017A9204628F0F4FB002302461799204629
:10B1780022F057FAD4F8A435D3F8642122B1D3F8D1
:10B188006821013AC3F8682108F1010845450BD840
:10B198009DF848307BB940220121204612AB26F0A9
:10B1A80010F80544A84506D21021204622F0B1FF28
:10B1B80038600746A3E700233B60C6F85090D4F8F0
:10B1C800A435D3F8642122B1D3F86821013AC3F831
:10B1D8006821BAF1000F09D017A9204628F0B8FB5A
:10B1E800002302461799204622F01BFAD4F8A4350A
:10B1F800D3F8642122B1D3F86821013AC3F8682151
:10B2080096F93030002B04DA204624F061FBA6F8CA
:10B2180054000023B36596F830305A0640F1B585DE
:10B22800D4F8A425D2F864315BB1D2F8683101337F
:10B23800C2F86831D4F8A425D2F8642193423FF7C4
:10B2480028AD00271022012120460DF149038DF871
:10B25800497025F0B6FF8246002801F0C0804021E1
:10B26800204622F056FF054606900597D4F8A425F7
:10B27800D2F864315BB1D2F868310133C2F8683171
:10B28800D4F8A425D2F8642193423FF702AD2046B2
:10B2980023F009F90A90204623F005F92871D4F81B
:10B2A800A425D2F864315BB1D2F868310133C2F811
:10B2B8006831D4F8A425D2F8642193423FF7E9AC69
:10B2C800204623F0F0F80B90204623F0ECF84FF6D8
:10B2D800FF7300220E212872204627F0E2FA4FF071
:10B2E800FF33688100221621204627F0DAFA95F903
:10B2F8000830E860002B04DA204624F0E9FA4038E8
:10B308002882D4F8A425D2F864315BB1D2F8683128
:10B318000133C2F86831D4F8A425D2F864219342E5
:10B328003FF7B7AC204623F0BEF8B0B9204624F06A
:10B3380074F9421C92B2032AAA823FF653ADAB8A33
:10B34800013B042B00F20D85DFE813F013007300B6
:10B358001A01B8020E0481462FE7204624F03EFE6B
:10B368004FF6FB73984202463FF63CAD0432AA8280
:10B37800E5E7D4F8A425D2F864315BB1D2F8683196
:10B388000133C2F86831D4F8A425D2F86421934275
:10B398003FF77FAC204623F086F80746204623F087
:10B3A80082F84FF6FF73287600220921204627F0FD
:10B3B80078FA95F918306883002B04DA204605F1ED
:10B3C8001C0128F040FC4FF6FF7300221021204694
:10B3D80027F067FA2886002F00F00282204617A976
:10B3E80028F0B6FA0746E8B1179B93F90030002B0E
:10B3F80018DA204627F0B8F8204623F054F8030658
:10B408000DD52B7E002243F040032B7612214FF0FE
:10B41800FF33204627F045FA00F580306863204660
:10B4280029F05FFF01233A462046179922F0F9F8E0
:10B43800D6E1D4F8A425D2F864315BB1D2F86831EA
:10B448000133C2F86831D4F8A425D2F864219342B4
:10B458003FF71FAC204623F026F80746204623F086
:10B4680022F82876D4F8A425D2F864315BB1D2F852
:10B4780068310133C2F86831D4F8A425D2F86421C0
:10B4880093423FF706AC204624F09DF8421C92B246
:10B49800012A6A831BD0022A7FF4A4ACD4F8A4251D
:10B4A800D2F864315BB1D2F868310133C2F868313F
:10B4B800D4F8A425D2F8642193423FF7EAAB20469A
:10B4C80022F0F1FF8046204624F002FA1BE0D4F86F
:10B4D800A425D2F864315BB1D2F868310133C2F8DF
:10B4E8006831D4F8A425D2F8642193423FF7D1AB50
:10B4F800204622F0D8FF4FF6FF738046002209212C
:10B50800204627F0CEF9A883B8F1000F09D017A973
:10B51800204628F01DFA002302461799204622F0FB
:10B5280080F8D4F8A435D3F8642122B1D3F868217F
:10B53800013AC3F86821D4F8A435D3F8642122B1BC
:10B54800D3F86821013AC3F8682195F91830002B1F
:10B5580004DA204605F1200128F075FB4FF6FF7349
:10B5680000220E21204627F09CF9A886002F00F023
:10B578003781204617A928F0EBF90023024653E744
:10B58800D4F8A425D2F864315BB1D2F8683101331C
:10B59800C2F86831D4F8A425D2F8642193423FF761
:10B5A80078AB204622F07FFF0E90204622F07BFFEA
:10B5B8004FF6FF7300220A212876204627F071F9FA
:10B5C8006883204624F03EF995F91830A883002BAB
:10B5D80080F20281D4F8A425D2F864315BB1D2F8A4
:10B5E80068310133C2F86831D4F8A425D2F864214F
:10B5F80093423FF74EAB204622F055FFD4F8A425DE
:10B608000F90D2F864315BB1D2F868310133C2F8D7
:10B618006831D4F8A425D2F8642193423FF739ABB6
:10B62800D4F8A425D2F864315BB1D2F8683101337B
:10B63800C2F86831D4F8A425D2F8642193423FF7C0
:10B6480028AB03224FF000081146204617AB8DF8AF
:10B658005C8025F0B6FD0746002873D008212046F7
:10B6680022F057FD81468346204624F05FF808F112
:10B6780001084745ABF804000BD89DF85C3083B946
:10B6880003222046114617AB25F09BFD0744B84519
:10B6980007D20821204622F03CFDCBF80000834663
:10B6A800E2E70023CBF80030C5F82090D4F8A435A1
:10B6B800D3F8642122B1D3F86821013AC3F868218C
:10B6C800D4F8A425D2F864315BB1D2F868310133DB
:10B6D800C2F86831D4F8A425D2F8642193423FF720
:10B6E800D8AA4FF0000803220221204617AB8DF894
:10B6F8005C8025F066FD0746002800F0DD80082103
:10B70800204622F006FD81468346204624F00EF8A6
:10B7180008F101084745ABF804000BD89DF85C30E8
:10B7280093B903220221204617AB25F04AFD0744AE
:10B73800B84509D20821204622F0EBFCCBF80000DE
:10B748008346E2E78146AFE70023CBF80030C5F82F
:10B758002490D4F8A435D3F8642122B1D3F8682111
:10B76800013AC3F86821D4F8A435D3F8642122B18A
:10B77800D3F86821013AC3F868210821204622F04D
:10B78800C8FC1027014600233A46E8622F85204668
:10B7980026F05DFD0821204622F0BBFC002301466F
:10B7A80068633A4620462F8626F051FD0F9B4BB121
:10B7B80017A9204628F0CCF80023024617992046FE
:10B7C80021F02FFFD4F8A435D3F8642122B1D3F89F
:10B7D8006821013AC3F868210E9B002B7FF4C9AE9B
:10B7E800D4F8A435D3F8642122B1D3F86821013AFA
:10B7F800C3F86821D4F8A435D3F8642122B1D3F86A
:10B808006821013AC3F868210B9B4BB117A9204660
:10B8180028F09EF8002302461799204621F001FFE0
:10B82800D4F8A435D3F8642122B1D3F86821013AB9
:10B83800C3F86821204624F04BF895F9043028878E
:10B84800002B06DA00222046C54923F018FC85F8AB
:10B858003A000A9B4BB117A9204628F079F8002333
:10B8680002461799204621F0DCFED4F8A435D3F817
:10B87800642122B1D3F86821013AC3F86821059BF5
:10B8880001339A45059310D89DF84930002B40F0B4
:10B898006E820DF1490310220121204625F091FC0A
:10B8A800059B8244534580F062824021204622F065
:10B8B80030FC28600546D9E4814648E7204626F052
:10B8C80053FED4F8A425D2F864315BB1D2F86831BC
:10B8D8000133C2F86831D4F8A425D2F86421934220
:10B8E8003FF7D7A9204622F0DEFD0E90204622F031
:10B8F800DAFD4FF6FF73287600220921204626F04C
:10B90800D0FF95F918306883002B80F2CA80D4F8EC
:10B91800A425D2F864315BB1D2F868310133C2F89A
:10B928006831D4F8A425D2F8642193423FF7B1A92D
:10B93800D4F8A425D2F864315BB1D2F86831013368
:10B94800C2F86831D4F8A425D2F8642193423FF7AD
:10B95800A0A903224FF000081146204617AB8DF826
:10B968005C8025F02EFC0746002873D0082120466D
:10B9780022F0CFFB81468346204623F0D7FE08F10C
:10B9880001084745ABF804000BD89DF85C3083B933
:10B9980003222046114617AB25F013FC0744B8458F
:10B9A80007D20821204622F0B4FBCBF800008346DA
:10B9B800E2E70023CBF80030C5F81C90D4F8A43592
:10B9C800D3F8642122B1D3F86821013AC3F8682179
:10B9D800D4F8A425D2F864315BB1D2F868310133C8
:10B9E800C2F86831D4F8A425D2F8642193423FF70D
:10B9F80050A94FF0000803220221204617AB8DF80A
:10BA08005C8025F0DEFB0746002800F0A6800821B0
:10BA1800204622F07EFB81468346204623F086FEA0
:10BA280008F101084745ABF804000BD89DF85C30D5
:10BA380093B903220221204617AB25F0C2FB074425
:10BA4800B84509D20821204622F063FBCBF8000054
:10BA58008346E2E78146AFE70023CBF80030C5F81C
:10BA68002090D4F8A435D3F8642122B1D3F8682102
:10BA7800013AC3F868210821204622F04AFB1C221B
:10BA880001460123A862AA84204626F0E0FBD4F8E8
:10BA9800A435D3F8642122B1D3F86821013AC3F858
:10BAA8006821D4F8A425D2F864315BB1D2F86831A2
:10BAB8000133C2F86831D4F8A425D2F8642193423E
:10BAC8003FF7E7A8204622F0EEFC0746204622F082
:10BAD800EAFC4FF0FF3385F82C00002212212046A3
:10BAE80026F0DFFE95F92C302863002B06DA0022B9
:10BAF80020461C4923F0C3FA85F834004FB117A932
:10BB0800204627F025FF002302461799204621F0FA
:10BB180088FDD4F8A435D3F8642122B1D3F868217C
:10BB2800013AC3F868210E9B4BB117A9204627F0AC
:10BB38000FFF002302461799204621F072FDD4F822
:10BB4800A435D3F8642122B1D3F86821013AC3F8A7
:10BB58006821204629F0C5FB4CE681467FE700BFF7
:10BB680074C004006CC00400204626F0FDFCD4F824
:10BB7800A425D2F864315BB1D2F868310133C2F838
:10BB88006831D4F8A425D2F8642193423FF781A8FC
:10BB9800204622F088FC0E90204622F084FC4FF6C6
:10BBA800FF73287600220A21204626F07AFE95F9AE
:10BBB80018306883002B80F2C980D4F8A425D2F805
:10BBC80064315BB1D2F868310133C2F86831D4F816
:10BBD800A425D2F8642193423FF75BA8D4F8A425A2
:10BBE800D2F864315BB1D2F868310133C2F86831F8
:10BBF800D4F8A425D2F8642193423FF74AA8032237
:10BC08004FF000081146204617AB8DF85C8025F0F0
:10BC1800D8FA0746002872D00821204622F079FA7F
:10BC280081468346204623F081FD08F101084745F7
:10BC3800ABF804000BD89DF85C3083B9032220468A
:10BC4800114617AB25F0BDFA0744B84507D20821BD
:10BC5800204622F05EFACBF800008346E2E7002394
:10BC6800CBF80030C5F81C90D4F8A435D3F864217B
:10BC780022B1D3F86821013AC3F86821D4F8A42581
:10BC8800D2F864315BB1D2F868310133C2F8683157
:10BC9800D4F8A425D2F8642193423EF7FAAF4FF0C6
:10BCA800000803220221204617AB8DF85C8025F09E
:10BCB80088FA0746002852D00821204622F029FA9F
:10BCC80081468346204623F031FD08F101084745A7
:10BCD800ABF804000BD89DF85C3093B9032202211D
:10BCE800204617AB25F06DFA0744B84509D208215C
:10BCF800204622F00EFACBF800008346E2E78146A0
:10BD0800B0E70023CBF80030C5F82090D4F8A4356C
:10BD1800D3F8642122B1D3F86821013AC3F8682125
:10BD28000821204622F0F5F9242201460123A862C1
:10BD3800AA84204626F08BFAD4F8A435D3F86421D7
:10BD480022B1D3F86821013AC3F868214FF0FF33D4
:10BD580000221621204626F0A4FDE862E3E681468B
:10BD6800D2E700232046AB8229F081FA42E500237E
:10BD78002B60069BB365D4F8A435D3F8642122B1AF
:10BD8800D3F86821013AC3F86821099B4BB117A978
:10BD9800204627F0DDFD002302461799204621F0B2
:10BDA80040FCD4F8A435D3F8642122B1D3F8682133
:10BDB800013AC3F86821049B5F0640F18E8096F82B
:10BDC8002C3043F0400386F82C30D4F8A425D2F860
:10BDD80064315BB1D2F868310133C2F86831D4F804
:10BDE800A425D2F8642193423EF753AF204622F0AF
:10BDF8005AFBD4F8A4250546D2F864315BB1D2F8D1
:10BE080068310133C2F86831D4F8A425D2F8642126
:10BE180093423EF73EAF0022D249204623F02FF945
:10BE28004FF0FF330022172186F85C00204626F0E9
:10BE380038FD6FF000434FF000421821306620466D
:10BE480026F02FFDA0F500000022C74970662046A5
:10BE580023F015F94FF6FF7300220F2186F86800CA
:10BE6800204626F01EFDA6F86A00204623F030FD85
:10BE7800A6F86C00204623F02BFDA6F86E0020469D
:10BE880023F060FDA6F87000204623F021FDA6F8F7
:10BE98007200204623F01CFDA6F87400D4F8A435DF
:10BEA800D3F8642122B1D3F86821013AC3F8682194
:10BEB8004DB117A9204627F04BFD002302461799DC
:10BEC800204621F0AEFBD4F8A435D3F8642122B182
:10BED800D3F86821013AC3F86821049B9D0640F114
:10BEE800478196F82C3043F0200386F82C30D4F89C
:10BEF800A425D2F864315BB1D2F868310133C2F8B5
:10BF08006831D4F8A425D2F8642193423EF7C1AE33
:10BF1800204622F0C8FA0546204622F0EDFA86F8B7
:10BF28007800000640F18880D4F8A425D2F864315E
:10BF38005BB1D2F868310133C2F86831D4F8A4256E
:10BF4800D2F8642193423EF7A4AE204622F0ABFA21
:10BF580008210746204622F0DCF802220146002389
:10BF6800C6F88000A6F87C20204626F070F947F62F
:10BF7800FF7308217D4A204626F093FC803847F657
:10BF8800FF730821794AA6F88400204626F089FC28
:10BF9800803847F6FF730821744AA6F886002046C1
:10BFA80026F07FFC803847F6FF7308216F4AA6F811
:10BFB8008800204626F075FC803847F6FF73082174
:10BFC8006A4AA6F88A00204626F06BFC803847F6B5
:10BFD800FF730821654AA6F88C00204626F061FC0C
:10BFE800803847F6FF730821604AA6F88E0020467D
:10BFF80026F057FC8038A6F8900047F6FF73082112
:10C0080020465A4A26F04DFC8038A6F892004FB1D7
:10C0180017A9204627F09CFC0023024617992046C2
:10C0280021F0FFFAD4F8A435D3F8642122B1D3F86B
:10C038006821013AC3F8682196F8783059067AD50C
:10C04800D4F8A425D2F864315BB1D2F86831013351
:10C05800C2F86831D4F8A425D2F8642193423EF797
:10C0680018AE204622F01FFA0746204622F01CFB95
:10C078004FF6FF7300220B2186F89400204626F025
:10C0880010FC47F6FF730B21384AA6F896002046A5
:10C0980026F007FCA0F5806047F6FF73A6F8980025
:10C0A8000E212046314A26F0FCFB96F99430A0F583
:10C0B8000050002BA6F89A0004DA204623F083FAF1
:10C0C800A6F89C0096F894305A0604D5204623F02A
:10C0D8007AFAA6F89E0096F894309B0604D5204676
:10C0E80023F071FAA6F8A00096F89430D80604D583
:10C0F800204623F068FAA6F8A20096F894301907AB
:10C1080004D5204623F05FFAA6F8A4004FB117A97A
:10C11800204627F01DFC002302461799204621F0EF
:10C1280080FAD4F8A435D3F8642122B1D3F8682171
:10C13800013AC3F868214DB117A9204627F008FC39
:10C14800002302461799204621F06BFAD4F8A4354B
:10C15800D3F8642162B1D3F86821013AC3F86821A1
:10C1680006E000BF7CC0040084C004000080FFFF1C
:10C17800049BDA063EF5DEAE079B03B3204616A9FC
:10C1880027F0E6FB0546A0B1169B93F90030002B7B
:10C198000FDA204626F0E8F9204622F0F1F90306E6
:10C1A8003EF5C8AE10F0600F7EF4C4AE204629F00C
:10C1B80098F801232A462046169921F032FAD4F835
:10C1C800A435D3F8642122B1D3F86821013AC3F821
:10C1D80068210023C6F8A83096F828305F0642F197
:10C1E8005182D4F8A425D2F864315BB1D2F8683111
:10C1F8000133C2F86831D4F8A425D2F864219342F7
:10C208003EF747AD00251022012120460DF14A03D3
:10C218008DF84A5024F0D5FF0490002802F05E8281
:10C228005021204621F075FF9FEDC98B8346DFF82A
:10C2380030A309900695D4F8A425D2F864315BB1EF
:10C24800D2F868310133C2F86831D4F8A425D2F89D
:10C25800642193423EF71DAD002520468BF804501B
:10C2680022F021F92B460A220E9013A9204625F028
:10C27800EEFF20460BF108010FF06CFB9DF94C20F6
:10C288009DF84C30AA42FEF655AE13F0600F7EF4CE
:10C2980051AEDD0641F130819BF8043063F07F0335
:10C2A8008BF80430D4F8A425D2F864315BB1D2F805
:10C2B80068310133C2F86831D4F8A425D2F8642172
:10C2C80093423EF7E6AC204622F0EDF80F90204668
:10C2D80023F079F9ABF80C00D4F8A425D2F864312E
:10C2E8005BB1D2F868310133C2F86831D4F8A425BB
:10C2F800D2F8642193423EF7CCAC002740220121BA
:10C3080020460DF14B038DF84B7024F05AFF059031
:10C31800002801F0E281B821204621F0FAFE9FEDC5
:10C328008E9B05460A900797D4F8A435D3F8642164
:10C338005AB1D3F868210132C3F86821D4F8A4357A
:10C34800D3F864319A423EF7A4AC002720462F72F6
:10C3580022F0A9F805F10A011090204627F0A0FD67
:10C368000821204621F0D5FE082201463B462861D7
:10C37800AA81204625F06BFF0B230222009320465A
:10C3880005F1140127F0ABF9D4F8A425D2F86431EB
:10C398005BB1D2F868310133C2F86831D4F8A4250A
:10C3A800D2F8642193423EF774AC204622F07BF821
:10C3B800B8B9204623F074F9421C92B2052A2A83A0
:10C3C8003EF610AD2B8B013B052B00F2E982DFE82E
:10C3D80013F014001201640116024F028002069045
:10C3E800C7E4204623F0FAFD4FF6F9739842024657
:10C3F8003EF6F8AC06322A83E4E7D4F8A425D2F84E
:10C4080064315BB1D2F868310133C2F86831D4F8CD
:10C41800A425D2F8642193423EF73BAC4FF00009C3
:10C4280002220121204614AB8DF8509024F0C9FE59
:10C438008046002800F0DD802021204621F069FE9A
:10C448000B90D4F8A4250746D2F864315BB1D2F832
:10C4580068310133C2F86831D4F8A425D2F86421D0
:10C4680093423EF716AC204622F01DF81190204664
:10C4780022F042F84FF6FF7300220E213871204651
:10C4880026F00FFAF880204623F0DCF920386FF008
:10C4980000434FF0004215213881204626F001FA6A
:10C4A800A0F580106FF00043F8604FF000421F21A4
:10C4B800204626F0F6F997F9043000F14040002BA9
:10C4C800386109DA47F6FF7352460A21204626F0FA
:10C4D800E8F9A0F50070B8824FF6FF730022082132
:10C4E800204626F0DEF93B79F882580603D5204627
:10C4F80023F069F83883119B4BB117A9204627F020
:10C5080027FA002302461799204621F08AF8D4F822
:10C51800A435D3F8642122B1D3F86821013AC3F8CD
:10C52800682109F10109C8450BD89DF85030CBB9ED
:10C5380002220121204614AB24F043FE8044C14569
:10C5480010D22021204621F0E4FD386079E700BFB1
:10C55800FFFFFFFFFFFFFF7F0000000000000080DB
:10C568000080FFFF00233B600B9BEB61D4F8A435F0
:10C57800D3F8642122B1D3F86821013AC3F86821BD
:10C58800D4F8A435D3F8642122B1D3F86821013A4C
:10C59800C3F86821D4F8A425D2F864315BB1D2F885
:10C5A80068310133C2F86831D4F8A425D2F864217F
:10C5B80093423EF76EAB204621F075FF002840F00D
:10C5C800F581204623F06CF8421C92B2052AA5F8A2
:10C5D80048203EF607ACB5F84830013B052B00F281
:10C5E8005E87DFE813F0F001290366045505DE05D0
:10C5F80074060B90B8E7D4F8A425D2F864315BB17F
:10C60800D2F868310133C2F86831D4F8A425D2F8D9
:10C61800642193423EF73DAB204621F044FF4FF69C
:10C62800FF73002210210746204626F03AF947F604
:10C63800FF7352460821A883204626F032F9803835
:10C6480047F6FF7352461021E883204626F029F961
:10C65800A0F500406FF000434FF0004216212884F7
:10C66800204626F01EF9A0F50010686247F6FF7311
:10C6780052460821204626F014F980382885002FD4
:10C688003FF474AF17A9204627F062F90023024649
:10C698001799204620F0C5FF68E7D4F8A425D2F8FA
:10C6A80064315BB1D2F868310133C2F86831D4F82B
:10C6B800A425D2F8642193423EF7EBAA204621F044
:10C6C800F2FE0746204622F039F84FF6FF730022A3
:10C6D8000B212877204626F0E4F84FF6FF73002256
:10C6E8000B21E883204626F0DCF82884204623F036
:10C6F80063F810386884204622F0D2FFA8842046C8
:10C7080022F0CEFF47F6FF7352460A21E8842046FE
:10C7180026F0C7F8A0F500706FF000434FF0004214
:10C7280014212885204626F0BCF8A0F500206FF0DB
:10C7380000434FF000421A21E862204626F0B1F883
:10C7480000F17E4047F6FF73286352460D212046CC
:10C7580026F0A7F895F91C30A0F58050002BA88684
:10C7680009DA47F6FF7352460D21204626F099F85C
:10C77800A0F58050E8862B7F590609D547F6FF7348
:10C7880052460D21204626F08CF8A0F580502887C7
:10C798002B7F9A0609D547F6FF7352460D2120468E
:10C7A80026F07FF8A0F5805068872B7FDB0609D537
:10C7B80047F6FF7352460D21204626F072F8A0F581
:10C7C8008050A8872B7F180709D547F6FF73524674
:10C7D8000D21204626F065F8A0F58050E8872B7FCC
:10C7E80059077FF54CAF47F6FF7352460D21204697
:10C7F80026F057F8A0F58050A5F840003FE7D4F898
:10C80800A425D2F864315BB1D2F868310133C2F89B
:10C818006831D4F8A425D2F8642193423EF739AAA6
:10C82800204621F040FE0746204621F03CFE6FF0EE
:10C8380000434FF0004216212877204626F031F8B1
:10C84800A0F5001047F6FF73286252460B212046D8
:10C8580026F027F895F91C30A0F58060002BA884F5
:10C86800BFF60DAF204622F0A7FF1038E88406E790
:10C87800D4F8A425D2F864315BB1D2F86831013319
:10C88800C2F86831D4F8A425D2F8642193423EF75F
:10C8980000AA204621F007FE4FF6FF7300220D2163
:10C8A8000746204625F0FDFF47F6FF7352460C2148
:10C8B800A883204625F0F5FFA0F50060E88347F639
:10C8C800FF7352460821204625F0EBFF8038288464
:10C8D800D5E6204625F048FED4F8A425D2F86431E0
:10C8E8005BB1D2F868310133C2F86831D4F8A425B5
:10C8F800D2F8642193423EF7CCA9204621F0D3FD1B
:10C908000746204622F058FF4FF0FF33002211213E
:10C91800A883204625F0C5FF6FF000434FF0004282
:10C9280018212862204625F0BCFFA0F500006FF012
:10C9380000434FF0004216216862204625F0B1FFFF
:10C94800A0F5001047F6FF7352460B21A862204657
:10C9580025F0A7FFA0F58060A88547F6FF7352462B
:10C968000A21204625F09DFFA0F50070E8854FB10B
:10C9780017A9204626F0ECFF002302461799204607
:10C9880020F04FFED4F8A435D3F8642122B1D3F8AF
:10C998006821013AC3F86821204628F0A2FCEFE597
:10C9A800002320462B8328F062FCE9E5204623F08B
:10C9B80015FB4FF6F973984202463EF613AA063263
:10C9C800A5F8482007E6D4F8A425D2F864315BB16D
:10C9D800D2F868310133C2F86831D4F8A425D2F806
:10C9E800642193423EF755A9204621F05CFD4FF69D
:10C9F800FF7300220E210746204625F052FF6FF0F4
:10CA080000434FF000422021A5F85000204625F0B1
:10CA180048FF00F1004047F6FF7352461021686551
:10CA2800204625F03EFFA0F500406FF000434FF090
:10CA380000422021A5F85800204625F032FF00F1D9
:10CA480000406FF000434FF000421821E86520468F
:10CA580025F027FFA0F500004FF0FF33002220212A
:10CA68002866204625F01DFF47F6FF7352460E2123
:10CA78006866204625F015FFA0F500504FF0FF33FB
:10CA880000222021A5F86800204625F00AFF6FF053
:10CA980000434FF000422021E866204625F001FFC0
:10CAA80000F100406FF000434FF00042202128675A
:10CAB800204625F0F6FE00F1004047F6FF73524687
:10CAC80010216867204625F0ECFEA0F5004047F6E7
:10CAD800FF7352461021A5F87800204625F0E1FEA4
:10CAE800A0F5004047F6FF7352461021A5F87A00DA
:10CAF800204625F0D6FEA0F5004047F6FF735246C3
:10CB08001021A5F87C00204625F0CBFEA0F50040BA
:10CB180047F6FF7352461021A5F87E00204625F0FF
:10CB2800C0FEA0F50040A5F8800047F6FF73524606
:10CB38001021204625F0B5FEA0F50040A5F882009A
:10CB48004FB117A9204626F003FF00230246179984
:10CB5800204620F066FDD4F8A435D3F8642122B12C
:10CB6800D3F86821013AC3F86821D4F8A435D3F87A
:10CB7800642122B1D3F86821013AC3F86821109BD7
:10CB88006BB3204617A926F0E3FE074608B3179BA8
:10CB980093F90030002B1CDA204625F0E5FC2046EE
:10CBA80021F081FC030611D52B7A082163F07F035D
:10CBB8002B72204621F0ADFA04220146C5F8B400D4
:10CBC80000232046A5F8B02025F041FB204628F098
:10CBD80088FB01233A462046179920F022FDD4F815
:10CBE800A435D3F8642122B1D3F86821013AC3F8F7
:10CBF8006821079B01330793079A059B934213D833
:10CC08009DF84B30002B40F0528440220DF14B032D
:10CC18000121204624F0D5FA059B03440593059A83
:10CC2800079B934280F04384B821204621F071FA93
:10CC380028600546FFF778BBD4F8A425D2F86431FC
:10CC48005BB1D2F868310133C2F86831D4F8A42551
:10CC5800D2F8642193423EF71CA8204621F023FC19
:10CC68000746204621F01FFC85F85000204622F098
:10CC78005DFDA5F85200204622F0A5FC4FF6FF7393
:10CC880000221021A5F85400204625F00AFE6FF076
:10CC980000434FF000422021A5F85600204625F019
:10CCA80000FE00F1004047F6FF7352461021A865C8
:10CCB800204625F0F6FDA0F500406FF000434FF048
:10CCC80000422021A5F85C00204625F0EAFD00F18D
:10CCD80000406FF000434FF00042182128662046BC
:10CCE80025F0DFFDA0F500004FF0FF3300222021E2
:10CCF8006866204625F0D5FD47F6FF7352460E219B
:10CD0800A866204625F0CDFDA0F500504FF0FF3372
:10CD180000222021A5F86C00204625F0C2FD6FF006
:10CD280000434FF0004220212867204625F0B9FD36
:10CD380000F100406FF000434FF000422021686787
:10CD4800204625F0AEFD00F1004047F6FF7352463D
:10CD58001021A867204625F0A4FDA0F5004047F65D
:10CD6800FF7352461021A5F87C00204625F099FD56
:10CD7800A0F5004047F6FF7352461021A5F87E0043
:10CD8800204625F08EFDA0F5004047F6FF73524679
:10CD98001021A5F88000204625F083FDA0F500406D
:10CDA80047F6FF7352461021A5F88200204625F069
:10CDB80078FDA0F5004047F6FF73A5F884005246B9
:10CDC8001021204625F06DFD95F95030A0F5004062
:10CDD800002BA5F88600BFF6B3AED4F8A425D2F888
:10CDE80064315BB1D2F868310133C2F86831D4F8E4
:10CDF800A425D2F8642193423DF74BAF204622F098
:10CE08000CFCA5F88800204622F0DDFBA5F88A0076
:10CE1800D4F8A425D2F864315BB1D2F86831013373
:10CE2800C2F86831D4F8A425D2F8642193423DF7BA
:10CE380030AF4FF0FF3300221721204625F031FD97
:10CE48004FF0FF3300221821C5F88C00204625F04A
:10CE580028FD4FF0FF3300221821C5F89000204626
:10CE680025F01FFD4FF6FF730022C5F8940010212E
:10CE7800204625F016FDA5F89800D4F8A435D3F877
:10CE8800642122B1D3F86821013AC3F86821204609
:10CE980022F092FCA5F89C00D4F8A435D3F86421BC
:10CEA800002A3FF44DAED3F86821013AC3F868214F
:10CEB80046E6D4F8A425D2F864315BB1D2F86831DB
:10CEC8000133C2F86831D4F8A425D2F8642193421A
:10CED8003DF7DFAE204621F0E6FA4FF6FF73002259
:10CEE8000B210746204625F0DCFCA5F8500020461B
:10CEF80022F062FC10386FF000434FF000421A2114
:10CF0800A5F85200204625F0CCFC00F17E406FF0D9
:10CF180000434FF0004219216865204625F0C1FC06
:10CF280000F17F406FF000434FF000421121A865E7
:10CF3800204625F0B6FCA0F580306FF000434FF096
:10CF480000421721E865204625F0ABFCA0F58000DB
:10CF58002866212200238DED028B8DED009B204653
:10CF680022F049FA4FF0FF324FF0FF330139C5E99B
:10CF78001A01CDE90223002200232046CDE900232F
:10CF88002122002322F037FA2122C5E91C010023BF
:10CF98008DED028B8DED009B204622F02CFA013995
:10CFA800C5E91E01212200238DED028B8DED009B2A
:10CFB800204622F020FA0139C5E920016FF000432C
:10CFC8004FF000421121204625F06BFCA0F580307F
:10CFD800C5F88800212200238DED028B8DED009B82
:10CFE800204622F008FA0139C5E9240147F6FF7303
:10CFF80052460F21204625F054FCA0F5804047F604
:10D00800FF7352461021A5F89800204625F049FCE8
:10D01800A0F5004047F6FF7352461021A5F89A0084
:10D02800204625F03EFCA0F500406FF000434FF08D
:10D0380000421821A5F89C00204625F032FCA0F5F6
:10D0480000006FF000434FF000421821C5F8A0001F
:10D05800204625F026FCA0F500006FF000434FF0B5
:10D0680000421521C5F8A400204625F01AFCA0F5B9
:10D078008010C5F8A8006FF000434FF0004215215A
:10D08800204625F00EFCA0F58010C5F8AC0057E549
:10D09800D4F8A425D2F864315BB1D2F868310133F1
:10D0A800C2F86831D4F8A425D2F8642193423DF738
:10D0B800F0AD204621F0F7F90746204622F07CFB28
:10D0C8000821A5F85000204621F023F80222014645
:10D0D8000023A5F85420A865204625F0B8F8204676
:10D0E80021F0E1F9003818BF012085F85C002046DE
:10D0F80022F093FA6FF000434FF000421B21A5F88D
:10D108005E00204625F0CDFB00F17C406FF0004327
:10D118004FF0004218212866204625F0C2FBA0F5F2
:10D1280000006866204622F047FB10386FF0004385
:10D138004FF000421B21A5F86800204625F0B1FBFE
:10D1480000F17C406FF000434FF000421821E86680
:10D15800204625F0A6FBA0F500002867204622F00F
:10D168002BFB10386FF000434FF000421B21A5F84D
:10D178007400204625F095FB00F17C406FF00043D9
:10D188004FF000421821A867204625F08AFBA0F539
:10D198000000E867204622F00FFB1038A5F8800051
:10D1A800CEE4D4F8A425D2F864315BB1D2F8683162
:10D1B8000133C2F86831D4F8A425D2F86421934227
:10D1C8003DF767AD204621F06EF90746204621F06D
:10D1D8006AF9020685F8500008D54FF6FF73002259
:10D1E8000D21204625F05DFBA5F8520008212046B8
:10D1F80020F08FFF042201460023A865A5F85420DB
:10D20800204625F024F86FF000434FF000421E211D
:10D21800204625F046FB00F160406FF000434FF0D8
:10D2280000421E21E865204625F03BFB00F16040E6
:10D238006FF000434FF0004219212866204625F080
:10D2480030FB00F17F406FF000434FF000421121A6
:10D258006866204625F025FBA0F580306FF0004376
:10D268004FF000421121A866204625F01AFBA0F5D0
:10D2780080306FF000434FF000421221E8662046EC
:10D2880025F00FFBA0F5003047F6FF7352460A2140
:10D298002867204625F005FBA0F5007047F6FF73C8
:10D2A80052460A21A5F87400204625F0FAFAA0F59E
:10D2B8000070A5F8760047F6FF7352460A2120460B
:10D2C80025F0EFFAA0F50070A5F8780038E42046BC
:10D2D80025F04AF9D4F8A425D2F864315BB1D2F824
:10D2E80068310133C2F86831D4F8A425D2F8642132
:10D2F80093423DF7CEAC204621F0D5F807462046AC
:10D3080022F05AFAA5F85000204622F00FFA4FF002
:10D31800FF3300221121A5F85200204625F0C1FA5A
:10D328004FF0FF33002220216865204625F0B9FA26
:10D338004FF0FF3300222021A865204625F0B1FADE
:10D348006FF000434FF000422021E865204625F0A9
:10D35800A8FA00F1004047F6FF73524610212866EC
:10D36800204625F09EFAA0F500406FF000434FF0EC
:10D3780000422021A5F86400204625F092FA00F129
:10D3880000406FF000434FF000422021A86620467D
:10D3980025F087FA00F100406FF000434FF000429B
:10D3A8001821E866204625F07CFAA0F500006FF009
:10D3B80000434FF0004220212867204625F071FAEB
:10D3C80000F1004047F6FF7352460E216867204679
:10D3D80025F067FAA0F500506FF000434FF00042C7
:10D3E8001221A5F87800204625F05BFAA0F5003058
:10D3F8006FF000434FF000421221E867204625F005
:10D4080050FAA0F500306FF000434FF000421221AF
:10D41800C5F88000204625F044FAA0F500306FF0EA
:10D4280000434FF000421221C5F88400204625F041
:10D4380038FAA0F500306FF000434FF00042122197
:10D44800C5F88800204625F02CFAA0F50030C5F86C
:10D458008C006FF000434FF000421221204625F067
:10D4680020FAA0F50030C5F890004FB117A9204662
:10D4780026F06EFA002302461799204620F0D1F8CC
:10D48800D4F8A435D3F8642122B1D3F86821013A3D
:10D49800C3F86821204627F024FFFFF766BB002366
:10D4A8002046A5F8483027F0E2FEFFF75EBB0023D0
:10D4B8002B600A9BCBF81030D4F8A435D3F864213C
:10D4C80022B1D3F86821013AC3F868210F9B4BB108
:10D4D80017A9204626F03CFA002302461799204651
:10D4E80020F09FF8D4F8A435D3F8642122B1D3F8FA
:10D4F8006821013AC3F868219DF84C30180740F1BB
:10D5080013819BF8043043F040038BF80430D4F8BF
:10D51800A425D2F864315BB1D2F868310133C2F87E
:10D528006831D4F8A425D2F8642193423DF7B1AB11
:10D53800204620F0B8FFD4F8A4250790D2F864312B
:10D548005BB1D2F868310133C2F86831D4F8A42548
:10D55800D2F8642193423DF79CAB4FF0000840227B
:10D568000121204615AB8DF8548023F02AFE07468A
:10D57800002800F07C812021204620F0CAFD814649
:10D588000546D4F8A425D2F864315BB1D2F86831E5
:10D598000133C2F86831D4F8A425D2F86421934243
:10D5A8003DF777AB204620F07EFF0A90204620F01A
:10D5B8007AFFA91D2871204626F072FC95F90430DF
:10D5C800002B5DDAD4F8A425D2F864315BB1D2F827
:10D5D80068310133C2F86831D4F8A425D2F864213F
:10D5E80093423DF756AB4FF0000320462B7220F0D4
:10D5F8005AFF08210590204620F08BFD4FF00803C4
:10D6080001462861AB8108220023204624F01FFE32
:10D61800059B5BB3204617A926F09AF90590F8B147
:10D62800179B93F90030002B1ADA204624F09CFF50
:10D63800204620F038FF01060FD52B7A082163F029
:10D648007F032B72204620F064FD10220146A8615A
:10D6580000232046AA8224F0FAFD204627F041FE46
:10D6680001232046059A17991FF0DBFFD4F8A4354B
:10D67800D3F8642122B1D3F86821013AC3F86821AC
:10D688000A9B4BB117A9204626F062F900230246EF
:10D69800179920461FF0C5FFD4F8A435D3F86421A4
:10D6A80022B1D3F86821013AC3F8682108F10108CA
:10D6B80047450BD89DF8543093B9402201212046A4
:10D6C80015AB23F07EFD0744B84509D2202120463A
:10D6D80020F01FFD2860054653E7059B0A93E8E6FE
:10D6E80000232B60CBF81490D4F8A435D3F8642128
:10D6F80022B1D3F86821013AC3F86821079B4BB1DE
:10D7080017A9204626F024F9002302461799204637
:10D718001FF087FFD4F8A435D3F8642122B1D3F8D9
:10D728006821013AC3F868219DF84C3013F0060FC0
:10D738007DF400ACDA0740F1B4849BF8043043F080
:10D7480020038BF80430D4F8A425D2F864315BB1F7
:10D75800D2F868310133C2F86831D4F8A425D2F878
:10D76800642193423DF795AA204620F09CFE07903D
:10D77800204620F005FF03068BF8180008D54FF661
:10D78800FF7300220821204625F08BF8ABF81A0019
:10D798009BF818305F0608D54FF6FF730022082162
:10D7A800204625F07EF8ABF81C009BF818309D0643
:10D7B80004D5204621F031FFABF81E00204620F0AA
:10D7C80072FE003818BF01208BF82000D4F8A42579
:10D7D800D2F864315BB1D2F868310133C2F86831EC
:10D7E800D4F8A425D2F8642193423DF752AA4FF009
:10D7F800000840220121204616AB8DF8588023F0FE
:10D80800E0FC0746002800F07E843821204620F0FE
:10D8180080FC0590D4F8A4250546D2F864315BB1A4
:10D82800D2F868310133C2F86831D4F8A425D2F8A7
:10D83800642193423DF72DAA204620F034FEC0B95A
:10D84800204621F02DFF421C92B2062AAA803DF6FE
:10D85800C9AAAB88013B062B00F2C583DFE813F0A9
:10D868001500E1005D01A0012702B2021203814602
:10D8780038E7204622F0B2FB4FF6F873984202468A
:10D888003DF6B0AA0732AA80E3E7D4F8A425D2F877
:10D8980064315BB1D2F868310133C2F86831D4F829
:10D8A800A425D2F8642193423DF7F3A9204620F03D
:10D8B800FAFD8146204620F0F6FD05F10A0128729E
:10D8C800204626F0EDFA4FF6FF7300220B21204682
:10D8D80024F0E7FF47F6FF7352460B21A881204644
:10D8E80024F0DFFFA0F5806047F6FF7352460B2156
:10D8F800E881204624F0D5FFA0F580600821288221
:10D90800204620F006FC042201460023A861AA82D2
:10D91800204624F09CFC95F90830002B0BDA0821EE
:10D92800204620F0F6FB022201462862002320460A
:10D93800AA8324F08CFC47F6FF7352460D2120463B
:10D9480024F0AFFFA0F5805047F6FF735246102130
:10D95800A884204624F0A5FFA0F5004047F6FF73F1
:10D9680052461021E884204624F09BFFA0F5004091
:10D9780047F6FF73524610212885204624F091FF70
:10D98800A0F5004047F6FF735246102168852046EF
:10D9980024F087FFA0F50040A88547F6FF7352469C
:10D9A8000D21204624F07DFFA0F58050E885B9F1CF
:10D9B800000F09D017A9204625F0CAFF0023024608
:10D9C800179920461FF02DFED4F8A435D3F864210A
:10D9D80022B1D3F86821013AC3F86821D4F8A435F4
:10D9E800D3F8642122B1D3F86821013AC3F8682139
:10D9F80008F1010847450ED89DF85830002B40F033
:10DA0800F88240220121204616AB23F0DAFB0744B6
:10DA1800B84580F0EE823821204620F07AFB286055
:10DA2800F8E6D4F8A425D2F864315BB1D2F86831AD
:10DA38000133C2F86831D4F8A425D2F8642193429E
:10DA48003DF727A9204620F02EFD05F10801814663
:10DA5800204626F025FA4FF6FF73002210212046B3
:10DA680024F01FFF47F6FF735246102168812046B5
:10DA780024F017FFA0F5004047F6FF735246102127
:10DA8800A881204624F00DFFA0F500404FF6FF7353
:10DA980000220821E881204624F003FF4FF0FF33DD
:10DAA800002218212882204624F0FBFE6FF0004354
:10DAB8004FF0004218216861204624F0F2FEA0F5DC
:10DAC80000006FF000434FF000421821A861204683
