:020000040000FA
:10000000C0540020F52100005F8D0000E1210000B8
:10001000E1210000E1210000E1210000E1210000D8
:100020000000000000000000000000005923000054
:10003000E121000000000000C5220000E1210000D5
:100040006125000061250000612500006125000098
:100050006125000061250000612500006125000088
:100060006125000061250000612500006125000078
:100070006125000061250000612500006125000068
:100080006125000061250000612500006125000058
:100090006125000061250000612500006125000048
:1000A0006125000061250000612500006125000038
:1000B0006125000061250000612500006125000028
:1000C0006125000061250000612500006125000018
:1000D0006125000061250000612500006125000008
:1000E00061250000612500006125000061250000F8
:1000F00061250000612500006125000061250000E8
:1001000061250000612500006125000061250000D7
:1001100061250000612500006125000061250000C7
:1001200061250000612500006125000061250000B7
:1001300061250000612500006125000061250000A7
:100140006125000053B94AB9002908BF00281CBF27
:100150004FF0FF314FF0FF3000F00CB8ADF1080C5C
:100160006DE904CE00F008F8DDF804E0DDE90223D3
:1001700004B07047704700BF2DE9F04786468C46B3
:100180000846089E154674461946002B40F0C1806B
:100190008542B2FA82F245D94AB1C2F1200300FA8F
:1001A00002FC954094402EFA03F343EA0C0C4FEA0C
:1001B000154EA8B2230CBCFBFEF80EFB18CC08FBB6
:1001C00000F943EA0C43994528D9EB1808F1FF37A9
:1001D00004D2994502D9A8F102072B44A3EB0903E5
:1001E000A4B2B3FBFEFC0EFB1C330CFB00F044EA94
:1001F0000344A04214D92C190CF1FF3304D2A042BD
:1002000002D9ACF102032C44241A43EA07401EB180
:10021000D440002334607360BDE8F0874746DDE7D3
:100220006346F1E792BB431B01214FEA154EAFB283
:10023000200CB3FBFEFC0EFB1C330CFB07F840EA62
:100240000343984561D9EB180CF1FF3004D298456F
:1002500002D9ACF102002B44A3EB0803A4B2B3FB18
:10026000FEFC0EFB1C330CFB07F744EA0344A742D9
:100270004DD92C190CF1FF3304D2A74202D9ACF1AD
:1002800002032C44E41B43EA0040C0E7C2F1200310
:100290009540944020FA03F12EFA03F34FEA154EED
:1002A0009040AFB20343B1FBFEFC0EFB1C10190CD7
:1002B0000CFB07F841EA0041884522D969180CF186
:1002C000FF3004D2884502D9ACF102002944A1EBE9
:1002D00008019BB2B1FBFEFC0EFB1C110CFB07F7E7
:1002E00043EA01439F420ED9EB180CF1FF3104D2CF
:1002F0009F4202D9ACF102012B44DB1B41EA0041D1
:1003000093E76046E3E76146F7E76046A4E76346A4
:10031000B8E7834206D916B9002108467CE7C6E94A
:1003200000E0F9E7B3FA83F78FB9834201D372454E
:1003300008D8BEEB020460EB030301209C461EB903
:10034000002169E73846FAE7C6E9004CF8E7C7F14B
:10035000200CBB400EFA07F522FA0CF42EFA0CF131
:10036000BA401C4320FA0CF3B8404FEA1449014349
:100370001FFA84FEB3FBF9F809FB18300B0C08FBDD
:100380000EFA43EA00439A4540D9E31808F1FF30DA
:1003900004D29A4502D9A8F102002344A3EB0A0330
:1003A00089B2B3FBF9F809FB183308FB0EFE41EAEA
:1003B00003418E452CD9611808F1FF3304D28E45D4
:1003C00002D9A8F10203214443EA0040A1EB0E0147
:1003D000A0FB02984145CE46434602D306D14D4587
:1003E00004D20138B9EB020E68EB0403002EA7D04B
:1003F000B5EB0E0261EB030101FA0CFC22FA07F3E4
:10040000F9404CEA0303C6E9003199E74046C5E7E5
:100410004346D9E7F0B5394B394A4921C3F800269C
:100420003848C3F8042687B0C3F80826C3F80C265A
:10043000C3F81026C3F81426C3F81826C3F81C26E0
:1004400008F0E7FB07F076FF00F09EFA054603A8E8
:1004500000F040FD0446284600F0A6FA2A4B1B682F
:10046000A34205D04521294808F0D3FB08F0ACF899
:100470004921059A264808F0CCFB039925484B7D75
:100480000A7DC98A0091492108F0C3FB492122480D
:1004900008F0BFFB4FF48031002003F0D1FC04468C
:1004A00020B145211D4808F0B4FBFEE702A99DF8E4
:1004B000100000F037F8029B059D1D44039B1E8928
:1004C00003F0A6FCAF1901F06FF801F03FF801F05E
:1004D00059F884F30B8884F30A88AB5983F30888AE
:1004E00084F31488BFF36F8FBFF36F8F7B689847D7
:1004F00045210B4808F08DFBFEE700BF008001504E
:100500003546526EAAAD000008000020C3AD0000C1
:10051000E6AD000015AE000033AE000058AE00009E
:100520008BAE0000024608B538B1054800234521CE
:1005300008F06FFB6FF0150008BD0860FCE700BF16
:10054000AEAE000021B1012906D06FF01500704752
:10055000044B53F830007047024B03EBC00358685C
:10056000704700BF58A900002DE9F04F9B468C4B07
:10057000DBB01546DDE965891E6807460C4600F0CC
:10058000AFFF0122874B3AA8C3F8002506F0F0FD23
:10059000B8F1000F07D0B9F1000F04DD4A4641461B
:1005A0003AA808F01BFA4FF0000823896289D4F8B2
:1005B0000CA013449A44C2456AD80DA93AA806F083
:1005C00049FE0022774BC3F80025C3F80025679B3E
:1005D00023B1202218460DA908F00AFC00232A4660
:1005E000009321464FF6FF7307A807F0A4FE80464C
:1005F00000285ED1294638460C9C00F0AFF98442B1
:1006000057D84FF0FF34DFF8A8B1DFF898910DF11B
:10061000160305AA06A907A807F0DBFE002848DB99
:1006200040F0B480069907A807F01FFF50B94FF6B5
:10063000FF71BDF816005C4A32F8023B8B4238D09D
:100640009842F9D1BDF81670102F3CD0222F7AD0E5
:10065000012FDCD1BDF81430202B2AD8284606996A
:100660003AAA08F0E4FA044618BB9DF81430202B8F
:1006700002930AD8DBF80030DFF838A10393039B1C
:100680009C423FDB0023C9F800354FF0FF34BEE742
:10069000649BAAEB0809994528BF99465A464B46E0
:1006A0004146284608F0C3FA30B100223D4BC3F85A
:1006B00000253B4B1E686CE04A4659463AA808F0B4
:1006C0008DF9C84477E7BDF81470202FF1D13B466F
:1006D000284606993AAA08F0AAFA0028E9D100F0BB
:1006E00053F93A4680463AA90DA800F0E7F80746C4
:1006F000404600F059F92D4B1B68BB42D9D14FF051
:10070000010884E700F0ECFEC9F800751DA806F0AA
:100710002FFDDAF804201DA812685AF8081B08F00B
:100720005DF915A91DA806F095FD0022C9F8002560
:10073000029A3AA915A808F04BFB10B9C9F80005B0
:1007400065E701349BE7631C3FF461AFDBF80030E1
:10075000A3429ADDBDF81430802BAAD8284606990A
:100760003AAA08F064FA0028A3D100F00DF9E4B227
:1007700007462021BDF814303AAA00940DA800F0D5
:100780001BF80646384600F00FF97EE7B8F1000F77
:100790008FD000F001F930465BB0BDE8F08F00BFAC
:1007A00004000020000084507CAD00000800002000
:1007B00060A9000064A900002DE9F04796B0164634
:1007C0001D469DF87820384B074653F8321003EB4E
:1007D000C2035B6801911868DFF8DC8001443023B4
:1007E00002AA01A8D8F8009008F086F8002851D194
:1007F000DDE901431C44214606AB03AA01A808F029
:10080000A3F8002846D1049A072A43D1274905981E
:1008100008F0DEFA00283DD1079A082A3AD1244987
:10082000089808F0D5FAA8BB214602AA01A808F04A
:1008300077F878BBDDE901A30AEB0302944229D1E2
:10084000412B27D135443023294603AA02A802961A
:1008500008F052F8E0B9DDE9023213449D4217D3A3
:100860002A4602A906A807F00EFE88B92A4602A960
:100870000EA807F008FE58B99AF80030042B07D1EB
:100880002023384606AA0AF1010100F041FE38B1E2
:10089000D8F8009000F080F8484616B0BDE8F08720
:1008A000044BD3F80090F5E764A90000DDAE00002A
:1008B000D4AE0000080000200400002070B5094BF1
:1008C00004461D680023934205D1074B1D6800F0C4
:1008D00063F8284670BDE65CC85C8642F7D10133F8
:1008E000F1E700BF0400002008000020094A400092
:1008F0000B7852F820108B4209D0013052F82000BA
:10090000834214BF4FF0FF304FF4407070474FF4F4
:10091000407070476CA900001FB5582303FB01000D
:10092000046A1023A1686A462046103908F07FF94E
:10093000034640B122784521064808F06AF90024B0
:10094000204604B010BD10226846034908F040FA62
:10095000F6E700BFE5AE00009AAD000013B508460B
:100960000C4607F0C1FD6A460146204607F0C9FC67
:1009700030B10448452108F04CF9002002B010BD08
:100980000098FBE711AF0000024B1868421C1A6088
:10099000704700BF48050020024A1368013B1360FE
:1009A000704700BF48050020034B1B68834201D0FD
:1009B00007F00ABE704700BF480500202DE9FF4739
:1009C0002C2707FB01073D6A0446284690460E4641
:1009D00008F078F97B1EFA1C13F8011F814227D119
:1009E0009A42F9D1BEB12946204607F082FE98F816
:1009F0000730042B0AD12046216A07F07AFE02460E
:100A000048B949212C4808F004F904E0002003F01B
:100A1000ABFA0428EFD0294B1C68FFF7BDFF204636
:100A200004B0BDE8F087264B1C6836E0254A40E05C
:100A30002C237343E1180869C206D3D4E258224B31
:100A40009A42F0D1CA680B899B18ECD24A89D21815
:100A5000E9D2AB689A42E6D240F60C6A10EA0A0A7A
:100A6000E1D1FFF791FF8046FFF78EFF4FF48073CF
:100A700081462A46394600932046144BCDE902AA06
:100A8000CDF804A0FFF770FD04464846FFF78CFF41
:100A9000FFF782FF4046FFF787FF0D4B1B68A3421D
:100AA000BBD0002EC2D0AA680021284608F0E9F881
:100AB000084A45210848A6E75EAF00000000002074
:100AC000040000204CAF00003DB8F39658220020EF
:100AD0000800002054AF00009DAF000073B50D4624
:100AE000002104462846CDE9001107F0C1FD28B3D6
:100AF00023681A4EB34203D1204601AA07F01CFD19
:100B0000E36AB34204D16A460121204607F014FD8E
:100B1000DDE90032934288BF0193019BAB60019AEB
:100B20002946204600F0DAFB0D4B1A68002A03DD47
:100B300057210C4808F06DF802B070BD0146204600
:100B4000FFF7EAFE064605F1080107F0D8FCAB689E
:100B50003046019308F06AF8E1E700BF3DB8F3962C
:100B6000AC190020C5AF00002DE9F84F884691462A
:100B70009A460026DFF870B0194C1A4D0B9B9E4226
:100B800001D300200FE00B9B40469F1BB7F5806F01
:100B900028BF4FF48067144A3B4606EB0A0108F071
:100BA00046F810B10120BDE8F88F0A993B465A4635
:100BB0004846711808F050F80028F3D1C4F80056E0
:100BC0003E44C4F80456C4F80856C4F80C56C4F899
:100BD0001056C4F81456C4F81856C4F81C56CDE77D
:100BE000008001503546526E4C0500202DE9F04141
:100BF0000E460021AE4B0446436203F5006388B005
:100C000003650846FFF79EFC04F120010546C0B2CB
:100C100001F05CF848B100232A4645210190009379
:100C2000A44807F0F6FF07F0CFFC01210020FFF7F2
:100C300089FC04F14C010546C0B201F047F850B1FF
:100C400001232A464521019000939A48002307F08A
:100C5000E0FF07F0B9FC204607F0DFFC054668B965
:100C600000222046114607F0C2FC054608B30022C8
:100C70005721914807F0CDFF0123A1E04FF4807286
:100C800057218E4807F0C5FF01239D4284F8583054
:100C9000E6D194F85830042B8DF8173000F2938089
:100CA000012B00F2978000F0AA80FF2384F85830CF
:100CB000A5E0204600F01AFA0028DDD004A807F0CD
:100CC000CEFC0146204607F060FD18B12A465721A8
:100CD0007B48CFE704A807F0CBFC80F0010104AA11
:100CE0002046C9B207F083FC02460028BFD104A801
:100CF00007F0BEFC054660BB204604A9FFF7EEFEE8
:100D00009DF8173084F85830033B012B06D828464D
:100D100000F010F910B1FF2384F858309DF8173017
:100D2000023B022B0BD8002000F0EEF838B1FF2375
:100D300084F858304521634807F06BFFFEE794F8CC
:100D40005830FF2BF6D000222046114607F04FFC0A
:100D500092E79DF81770012F1FD1104603F004F998
:100D6000831E022B054615D8FFF70EFE3946804636
:100D700004AA2046FFF722FE07464046FFF714FE6E
:100D8000514B1B689F4205D0504B1D68AF4214BFAA
:100D90000525012584F858507BE7FFF7F5FD012173
:100DA000074604AA2046FFF709FE05463846FFF726
:100DB000FBFD454B1B689D4214BF05239DF8173072
:100DC00084F8583065E7052B7FF46FAF002000F002
:100DD000B1F811E0204604A9FFF780FE94F85830DE
:100DE000DA1E012A34D8002000F0A4F800287FF48D
:100DF0005CAF002000F088F800287FF456AF94F82C
:100E00005830FF2B05D145212E4807F002FF07F08F
:100E1000DBFB002294F858302D4F012B03921AD09F
:100E20001146204607F0E3FBA8B13D6810220021DF
:100E30000DEB020007F0E7FFE06C07F0F7FE206A19
:100E400007F0F4FEFFF7A8FD284608B0BDE8F081E2
:100E5000022BD4D1CDE7FFF797FD00228046114643
:100E60002046FFF7ABFD05464046FFF79DFDDFF846
:100E70005880D8F800309D42D7D13B689D42D4D0ED
:100E8000124B1B689D42D0D0039B01330393039BFD
:100E9000012B01D007F098FB206A07F030FA30717F
:100EA000236A5B683460D8F80050B360BEE700BFC7
:100EB0004C090020F4AF000083B0000041B00000F6
:100EC000AFB00000D9B000000800002000000020F2
:100ED0000400002070B50B4E04466022002130460D
:100EE00007F091FFFFF750FD214605463046FFF71A
:100EF0007DFE04462846FFF757FDFFF74DFD2046CF
:100F000070BD00BF4C19002013B5094B01A913F89F
:100F1000300000F0DBFE48B9019808F022FF0446DB
:100F2000019807F083FE204602B010BD0124FAE7C5
:100F300074A900001FB50F4B01A913F8300000F091
:100F4000C5FEA8B9019802A902F0B8FF044668B925
:100F50009DF80B30032B03D1019808F0D0FE044616
:100F6000019807F063FE204604B010BD0124F7E7A6
:100F70000124F8E774A900002DE9F34106460C4668
:100F800017461D460BB9002121E0184607F070FBFB
:100F900001460028F7D13046FFF7BEFC18B9012002
:100FA00002B0BDE8F08101A907F0A9FA0028F6D146
:100FB0000199304607F037FC736A59686B79012B49
:100FC00018D1002CDFD12B68834298BF00212C233D
:100FD00003FB04663A462023306A07F028FE002807
:100FE000DDD1002DDCD038680D4BC01A18BF4FF092
:100FF000FF30D5E7022BC6D12B68012B05D98342E0
:10100000C1D8B4FA84F46409BDE7BCD1002CDED0A9
:10101000012CB8D12C79023C18BF0124B3E700BFE2
:101020003DB8F3962DE9F04F07460C4685B00146D2
:1010300000201646FFF75AFC051E51DB3846E46DCA
:1010400007F052FA5FFA84F94FF0000A4FF0010BF3
:101050004FF0FF346B1E09FB03089DB9BAF1010F75
:1010600003DD4521204807F0D4FD631C06D0FF2C8A
:101070002ADC40F2011301343460B380284605B005
:10108000BDE8F08F6B1E00934146012338460DF1F9
:101090000F0207F0CCFD031E019323DB012238462B
:1010A0000DF10F0108F0C6FD019B40B15B4501D079
:1010B0000AF1010A9B46009DA8EB0908CDE7B4F1AF
:1010C000FF3F08BF2C46F5E70223A4F58074737137
:1010D000631004F001040133013433603471CDE74F
:1010E0000725CBE70125C9E7E5B00000F8B5866A1A
:1010F000456D044607F086FBAE420AD06B1CB34236
:1011000007D0834205D05721174807F082FD002001
:10111000F8BDB6F5807F19D957211448F5E7626A02
:1011200002EBC3025768226D02EBC302526897427A
:1011300002D057210E48E8E701339D42EFD1204607
:1011400007F067FC28B957210A48DEE700231F464D
:10115000F3E7AE4205D9636A03EBC5035B68BB42A4
:10116000E7D10120D4E700BF08B1000040B1000082
:101170006FB100009BB1000010B588B0044604A90F
:10118000006A02F09BFE9DF81020012A40D0254BFA
:101190002549032A08BF0B469DF8132049210292D6
:1011A0009DF81220214801929DF811200092204ABA
:1011B00007F02FFDE06C06A902F080FE9DF81820D4
:1011C000012A27D0174B1849032A08BF0B469DF860
:1011D0001B20492102929DF81A20144801929DF883
:1011E00019200092134A07F014FD9DF81030012BCE
:1011F00012D19DF81230032B0ED19DF81830012B1F
:101200000AD00D48492107F004FD022008B010BDA6
:101210000A4BC1E7094BDAE70948492107F0F9FC15
:101220000020F3E7D4B10000DDB10000F1B100000F
:10123000E3B1000032B2000042B20000D8B10000B9
:1012400061B2000070B54B6814461E4A03F0FF23DC
:10125000934206460D4686B02FD10B68012B2CD148
:10126000204604A902F02AFE9DF81020012A26D06B
:10127000154B1649032A08BF0B469DF81320492138
:1012800002929DF81220124801929DF811200092BE
:10129000104A07F0BEFC9DF81030032B0DD12146FB
:1012A000304607F026FA204608F029FD2046A968B6
:1012B00007F033F9204602F0E1FD06B070BD064BA1
:1012C000DBE700BF00010004D4B10000DDB1000085
:1012D000F1B1000032B20000D8B100002DE9F04FAA
:1012E0001646054689B00C467448492107F091FC22
:1012F0003146284607F097FA6B6A824620465E68B8
:1013000007F0B6F9E8B1E86D07F0E9F80023AF6A35
:10131000013F3344984201D9013FFAE7BA4510D35F
:101320005721674807F075FC07FB06F357210AFBB6
:101330000662644807F06DFC0123E37109B0BDE863
:10134000F08F06A9032000F0C1FC07A9092000F0D6
:10135000BDFC21462846079AFFF774FF6379012BED
:101360004BD15746DFF860B141E02268C2F101037A
:1013700053449F423AD86B6A012A196853F83700E0
:1013800003EBC70353F8083CA0EB0109A3EB0103EF
:10139000049311D1079B0393E368022B08D04146C5
:1013A000284607F0A6F922464146284607F0CEF91E
:1013B0002846039907F09DF932464946404607F012
:1013C00096F9049B424641462846CDE90096FFF730
:1013D000CBFB2146284607F058F9236801332360E8
:1013E00020B1DBF800300133CBF80030013FDDF8ED
:1013F0001880002FB9D101232360022301276371D4
:10140000BA45DDF8189006D2484607F00FFC079859
:1014100007F00CFC92E723689F424DD36A6AFB00F9
:1014200052F83710083B04911168DDF81CB00391A5
:10143000D1582A6DD0581368A0EB03082379012BEB
:1014400038D1039B3246C91A4846059107F04FF937
:10145000059943464A460091284659460196FFF7AA
:1014600083FB2146284607F010F90223237118B1A7
:10147000154A13680133136032464146584607F057
:1014800036F9DDE9032349469B1A28465A46CDE939
:101490000086FFF769FB2146284607F0F6F8236827
:1014A000013323600123237130B1074A13680133EC
:1014B000136001E0022BDFD00137A1E778B2000012
:1014C000A1B20000D0B20000AC1900200A4619B148
:1014D000024B00211B681847704700BF0C0000201A
:1014E00070B5094D2B780BB1002070BD0126074C5B
:1014F000C4F8006505F0DEFE18B92E70C4F80005CA
:10150000F2E74FF0FF30F0E758230020000084504E
:101510002DE9F041ACB01F4606460C461546FFF7D4
:10152000DFFF0123DFF820802A46C8F80035214676
:101530003346009703A808F0C9FF0023C8F8003518
:101540002CB0BDE8F08100BF00008450BFF36F8F66
:1015500072B600234FF0FF30094A03F12001013336
:10156000102B42F82100F8D100234FF0FF30044A3D
:1015700003F160010133102B42F82100F8D17047CC
:1015800000E100E0002318460649D1F89020C2F39C
:101590000722934200DB7047C1F89830C1F8A000E1
:1015A0000133F6E700ED00E02DE9F8434FF0FF3599
:1015B00001274FF00008204BDFF884905F60C3F8EC
:1015C0004853C3F8085303F580535F60C3F848538A
:1015D000C3F8085359F8044B002644F30730C4F805
:1015E000085300F0D9FE80226760C4F84C61D4F83B
:1015F0004C31C4F81061D4F81031C4F8446131465C
:10160000D4F84431A018C4F8006507F0FCFB802230
:10161000314604F5C07007F0F6FBB8F1000F08D0B2
:10162000064BC3F808554FF05023C3F80853BDE8E4
:10163000F8834FF00108CDE70040015000700150E1
:1016400080A90000014B1B68184700BF1000002054
:1016500007B50B46002102460091034800F006F84A
:1016600003B05DF804FB00BF451600002DE9F04F04
:1016700082464FF000098DB01D46531E0191039321
:10168000039B58785C1C252819D100204FF0FF38A7
:101690001E464446034602360290317803963929A5
:1016A00055D81F2914D8002900F0EF810199252071
:1016B000D04701993078D04709F10209E0E70028C6
:1016C00000F0E3810199D04709F101090394D7E7BC
:1016D000A1F12002192AE9D801A757F822F000BF8A
:1016E00049170000AD160000AD16000049170000B4
:1016F000AD160000C9170000AD160000AD160000C1
:10170000AD160000AD1600001518000049170000C6
:10171000AD16000029180000D5170000AD16000016
:10172000E31700000318000003180000031800006E
:10173000031800000318000003180000031800003D
:10174000031800000318000008460136A5E75829D1
:1017500000F0EB80A1F16302D7B2172FA6D8172AA9
:10176000A4D801A757F822F0D11900004F180000A3
:10177000AD160000AD160000AD1600002F180000D9
:101780004F180000AD160000AD1600002F18000025
:10179000AD160000AD160000AD16000005190000E2
:1017A000AD160000AD160000A5190000AD16000032
:1017B0004F180000AD160000AD160000051900001E
:1017C000AD1600002F18000025200199D04709F11F
:1017D000010955E7029A4FF0000802F0FE0202925A
:1017E000B3E7002C0DDAB8F1000F0DDA029A002AE7
:1017F00000F043810A2224EAE47402FB0414303C22
:10180000A3E7B8F1000FF5DB0A2202FB0812A2F1F0
:1018100030089AE7B8F1000F55F8042B80F22F81B9
:10182000002A80F22E815442022202928DE768291A
:1018300003D1682B06D1482387E76C2902D16C2B92
:1018400000F02181002B7FF431AF0B467DE77A2B2E
:1018500006D1752955F8046B14D14FF0000B0CE03C
:101860006C2BF6D04C2BF4D1073525F007037529E6
:1018700003F10805D3E9006B06D120283BD1854F41
:10188000013C09E04FEAE67BBBF1000FF5DA764256
:10189000814F6BEB4B0B013C0DF12D0305930023A6
:1018A0000493304659460A220023FEF74BFC059B61
:1018B000B446303203F8012D5A460593049BBCF11F
:1018C0000A0F8B4672F1000203F1FF3106460491C4
:1018D000E7D2C3F1010B30330DEB0306B8F1000F73
:1018E000A6F104066DDA029BD9077DD4A8EB0B03A1
:1018F000A4EB0B0413E02B280ABF684F684F04F1D8
:10190000FF34C9E770290FD155F8042B0023FAB929
:101910006FF004034FF0050B614F624E053C029AD5
:10192000920770D4A04666E078216C2B03D1002387
:1019300055F8042B08E04C2BF9D1073525F00703A7
:101940001D465B6855F8082B232825D1880621D52C
:10195000554F023C002601F06001A1F1390B0DF159
:101960002D0E02F00F01092988BF594430310EF8BD
:10197000011D102A4FEA121141EA03714FEA131CAC
:1019800073F1000306F1FF3008D2C6F1010B06F136
:101990003003A1E7454FDCE7414FDBE706460A4647
:1019A0006346DEE755F8046B304607F00AFAB8F1F3
:1019B000000F834602DB4045A8BFC3464FF0000836
:1019C000374FA8EB0B03002B92DDA4EB0804A6E72E
:1019D00055F8043B4FF0010B8DF81830304F4FF0A5
:1019E000FF33013C06AE9AE7A046EAE702932020C7
:1019F0000199D047029BB8F10108F7D524EAE472B7
:101A0000013C9144A41AB84606E00493029201995D
:101A1000D047029A049B9046424612F8010B0028D8
:101A2000F3D11A46013A15D5002BACBFC7EB03071B
:101A30007F425B46013B15D5BBF1000FA8BF5F4459
:101A400026464F44013E14D5002CA8BF3F1907EB92
:101A5000080915E60493029230200199D047049BAF
:101A6000029ADFE70293019916F8010BD047029B17
:101A7000E0E701992020D047E4E70122D5E690462F
:101A800063E6144661E64C235FE648460DB0BDE8C8
:101A9000F08F00BF5EB300005CB3000060B30000D5
:101AA00010AF000068B3000062B3000065B300002F
:101AB0002DE9F047058B04462807904611D40229EA
:101AC00005F0070540F0CC80204606F0C9FF78B14C
:101AD0000138218B042811D8DFE800F0C2106D8591
:101AE000950001290CBF45F0100545F02005258320
:101AF00088F31188BFF36F8FBDE8F08701F0070A04
:101B0000AA4500F0A5800027B9463E46A368002BF1
:101B100000F0BC8041F00801218388F31188BFF3F5
:101B20006F8FA168002900F0BA800D68002900F0CD
:101B3000B680334652462046D1F80480C047002D77
:101B400076D02B6829461D46F0E701F007035A1F9F
:101B5000012A1BD8002221F00701062B276889B231
:101B6000C4E9002209D13B4603E0628B0132628363
:101B70001B68002BF9D141F002012046218306F0B9
:101B80006FFF00287AD041F0200176E0042B0AD1C3
:101B900021F0070189B22046218306F061FF10B1D0
:101BA00041F020012183218B01F0070AAA454FD083
:101BB0000027B946AAE7236921F0070141F0060191
:101BC000062DD3F8009021832DD1B9F1000F3FD01D
:101BD00041F00801218388F31188BFF36F8F2046FD
:101BE0003949C84729E021F00701236941F0040180
:101BF00089B2042DD3F804902183E6D000274FF05A
:101C0000040A3E4682E721F00701236941F00501FD
:101C100089B2052DD3F808902183D6D000274FF044
:101C2000050A3E4672E700274FF0060A3E466DE77A
:101C30002B4687E7B9F1000FD1D1EFF311882023AC
:101C400083F31288BFF36F8F238B23F00803238362
:101C5000258BEA062ED525F01003238305F0070512
:101C60006669218B002EBFF670AF00232768C4E998
:101C7000003321F0070141F001012183218B4FF056
:101C8000000901F0070AAA457FF440AF002F9CD05D
:101C900041F00801218388F31188BFF36F8F002F73
:101CA000C8D03D68394633465246204606F004FF08
:101CB0002F46F4E7AB067FF51BAF25F02003238307
:101CC00005F0070500E700BFE58A000070B5104B7E
:101CD0000D461C68B4B10F4B196800238B4202DB20
:101CE0006FF0010070BD224612F8106B864202D0E0
:101CF00014460133F2E7E06808F00DFA28B100203D
:101D00002C60EFE76FF00C00ECE76FF01200E9E7F2
:101D10001400002088A9000010B5436888B0029321
:101D200083680C46CDE9033200230A68C068CDE918
:101D30000623054901AA059307F020F9079808B979
:101D4000059B236008B010BDD38C000008B5054882
:101D500006F06FFE044806F06CFEBDE8084003483C
:101D600006F067BE6EB300009FB30000D2B3000060
:101D7000014804F015BF00BF2CAA000038B5044686
:101D800018B90F4B0F485B6898476168B1F5683F19
:101D900010D0B1F5680F0DD00B4DA9420AD011F447
:101DA0006861206807D00146084808F00FFA002350
:101DB0002360656038BD142207F025F8F9E700BFFD
:101DC0002401002000B400002C5F5CA9B01E00209C
:101DD00008B500B34368B3F5683F0CD1012203682E
:101DE000D3E8EF1F002903D1C3E8E02F0028F7D183
:101DF0000DD1002008BD094A93420AD000684FF077
:101E0000FF324FF0FF3303F0B3FE0028F1D0044857
:101E1000F0E70448EEE76FF4E040EBE72C5F5CA9E5
:101E2000E98FFFFFEA8FFFFF08B5B8B14368B3F54C
:101E3000683F0CD100220368D3E8EF1F012903D1CA
:101E4000C3E8E02F0028F7D10BD1002008BD074AD6
:101E5000934208D0006803F003FFF6E76FF4E04018
:101E6000F4E70348F2E70348F0E700BF2C5F5CA902
:101E7000E98FFFFFEA8FFFFF10B5044618B91D4B2D
:101E80001D485B6898476368B3F5683F2FD0B3F58A
:101E9000680F2CD0194A934219D1236803BB4FF025
:101EA000FF324FF0FF332146154803F033FE08B9E7
:101EB00023681BB90F4B13485B6898471422002115
:101EC000206806F0A0FF4FF46863636008E0B3F594
:101ED000683F0DD83A2B03D040F6BA629342DED168
:101EE000206808F0BDF9636843F03A03636010BDF1
:101EF000054AF3E72401002000B400002C5F5CA930
:101F0000B01E002026B400003A00003A08B5064989
:101F100040231422054808F04BF9BDE80840044965
:101F2000044804F0AFBE00BFB0190020B01E00206E
:101F300034AA000048AA000030BFFFF7FDBF00BF71
:101F4000074A936893F90E10002907DB92699342C0
:101F50001FBF044A536843F080535360704700BF6B
:101F60004020002000ED00E0154B9A6A12F0007F3F
:101F70009A6A14BF1E201D2012F0807F9A6A18BF33
:101F80001F2012F4801F9A6A18BF022012F4002F3B
:101F90009A6A18BF212012F4802F9A6A18BF222053
:101FA00012F4003F9A6A18BF232012F4803F9A6A05
:101FB00018BF24206FEA02426FEA12429A62704709
:101FC00000ED00E010B5194B0246986A9C6A10F4C7
:101FD000805F14BF1720162014F4006F9C6A18BF8E
:101FE0001820A40509D5986B986A000404D51AB185
:101FF0009A6A22F400429A6219200C4B9A6A12F4EF
:10200000806F9A6A18BF1A20D2050CD49B6A13F409
:10201000005F18BF1C20054A936A43F47F43936214
:1020200000230B7010BD1B20F5E700BF00ED00E0A2
:1020300010B51C4B0246986A9C6A10F0100F14BF32
:102040001120102014F0080F9C6A18BF1220A4075A
:1020500009D5586B986A000604D51AB19A6A22F01D
:1020600080029A6213200F4B9A6A12F0010F9A6A4B
:1020700018BF142012F0200F9A6A18BF1520D4063A
:1020800058BF9B6A074B9A6A920642BF5A6A22F46B
:1020900000525A629A6A42F0FF029A6200230B7061
:1020A00010BD00BF00ED00E070B5444B06465B6814
:1020B00000259CB0C3F3080385F31188BFF36F8F2D
:1020C00002F07F40B0F17F4F11D102F00C000828E0
:1020D0000DD010074CBF0E4601250022033B8DF8A2
:1020E0000720032B05D8DFE803F01E5C60592E465D
:1020F000F3E700249DF807309BB96822314602A817
:1021000006F076FE099B002D53D0C3F3080222B9D6
:102110006FEA53236FEA43230993204602A906F08E
:1021200014FE1CB070BD254BDA6A9107E1D4DA6A5F
:10213000002ADEDBDA6A5200DBD55A69B16942F463
:1021400080725A61BFF34F8FBFF36F8F5A6931F8B6
:10215000021C22F480725A61BFF34F8FBFF36F8F5E
:102160004DF60272914209D09A6AD2B242B1012070
:102170000DF10701FFF75CFF0446BBE73468B9E7E0
:102180009A6A12F47F4F05D001200DF10701FFF785
:1021900019FFF1E79B6AB3F5803FAAD3FFF7E4FE8E
:1021A000EAE700200DF10701E4E700200DF1070147
:1021B000EDE723F4FF7323F00103ADE700ED00E04A
:1021C000064B5A6942F010025A615A6942F4806221
:1021D0005A615A6922F008025A61704700ED00E026
:1021E000EFF30880EFF3098101B57246FFF75CFF5A
:1021F00001BD00BF002080F31488BFF36F8F002063
:1022000080F30A8880F30B880F4880F3088801F078
:1022100069FF00200D490860BFF34F8F00F01AF8E6
:10222000202080F311880A484FF40061401880F3A1
:102230000988EFF314800221084380F31488BFF368
:102240006F8F00F0E1F80000C054002094ED00E032
:102250008023002072B6002383F313884FF0FF30F1
:102260000C4A03F120010133102B42F82100F8D170
:1022700000234FF0FF30074A03F160010133102BB8
:1022800042F82100F8D162B6BFF34F8FBFF36F8FD2
:10229000704700BF00E100E0084B9B6883420BD110
:1022A000EFF3058343B1064B5A6842F080525A60FF
:1022B0005A6A22F400425A6204F0BEB9402000205B
:1022C00000ED00E022498A6882F8BDE04FF030005E
:1022D0001044EFF3098C80E8F01F1EF0100F03D1BB
:1022E00002F17C0080EC108A202080F31288BFF37A
:1022F0006F8F184F4FF000668A698A603E6092F9CE
:10230000BDE0506F0023536780F311881EF0100F5B
:1023100003D00023E1EE103A03E002F17C0090ECE0
:10232000108AEFF3148323F0040383F31488BFF3BC
:102330006F8F02F1300090E8F01F8CF3098802F1F2
:10234000000004B506F016FDBDE80440704700002B
:102350004020002004ED00E01EF0040F0CBFEFF35E
:102360000880EFF30980816911F8021C0229FFD06F
:1023700001B5724606F0EFFC01BD00BF40B2002877
:1023800007DB01234109034A00F01F00834042F8A4
:102390002130704700E100E040B200280CDB012250
:1023A0000649430900F01F008240203341F82320F2
:1023B000BFF34F8FBFF36F8F704700BF00E100E0A6
:1023C000054B420953F82220012300F01F0003FAB5
:1023D00000F01040704700BF00E100E040B200286C
:1023E00001F10101ACBF00F16040064B4FEA411121
:1023F000C9B2ABBF00F5614000F00F0080F80013D8
:102400001954704714ED00E0144A08B5144B22F03B
:102410007F029A60BFF34F8FBFF36F8FD3F888208E
:1024200022F47002C3F88820D3F8882042F4A00276
:10243000C3F888204FF04042C3F83422BFF34F8FD7
:10244000BFF36F8F0023E1EE103A03F0A7FA04F018
:1024500015FA00F079F803F0E1FA00BF000000007F
:1024600000ED00E042F8203C009B0D4942F81C3C86
:10247000019B21F0010142F8183C029B42F8081C24
:1024800042F8143C4FF0807342F8043C0023436749
:102490004FF47D43203A0265C0F8BC30704700BF5E
:1024A0004D8A0000104B9B6883421AD1EFF30580E0
:1024B000B8B9EFF31181202282F31288BFF36F8F36
:1024C0001A7B22F002021A73EFF3148323F0040341
:1024D00083F31488BFF36F8F81F31188BFF36F8F7D
:1024E00070476FF015007047402000200E461546DB
:1024F000002300B5E1EE103AEFF3148323F0040358
:1025000083F31488BFF36F8FBFF36F8F084B98600E
:10251000436E83F30B882C4686F309880020054B15
:1025200098472046002100220023034C204700BF8B
:10253000402000207D8D00004D8A00001022014BBC
:102540001A61704700ED00E0002320210348C21803
:102550000133412B82F80013F9D1704700E100E00C
:1025600008B5EFF30583064A103B02EBC30152F8AE
:10257000330049688847BDE80840FFF7E1BC00BF69
:1025800058A600000122024B0020C3F840257047E6
:102590000090035020B1034B800143F00103184722
:1025A000704700BF50A90000084B70B5C31A0D4614
:1025B00007499B10044659434022064806F035FC63
:1025C0002B4601462046BDE870401847E01E00201B
:1025D000B76DDBB6A4A50000402373B50B4C009388
:1025E000041B0B460D460A49A41061430646094ADE
:1025F000094806F045FC011E05DA30462B4602B0BC
:10260000BDE87040184702B070BD00BFE01E00205A
:10261000B76DDBB6E98E0000A4A5000010B5EFF39E
:102620001184202383F31288BFF36F8F074A136846
:1026300023F00201DB07116002D4012007F01BFC2C
:1026400084F31188BFF36F8F10BD00BF301F0020CF
:1026500070B50022012104460520FFF7BFFE0F4898
:1026600001F070FE0E4B984215D101F07BFE2669F9
:102670000C49304606F044FA00280BDB012535648E
:102680002469084904F11C0006F03AFA002801DB2D
:102690000020E56470BD6FF00400FBE7A527000093
:1026A0000000AD0B58AA00001FB500220123CDE9A0
:1026B00002236B46084ACDF800D0CDF804D006F0CE
:1026C0000CFC002805DB4FF480420023684603F031
:1026D0004BFB05B05DF804FB098F00000C22104B8A
:1026E000014602FB0033002030B4D3E90E52986358
:1026F000EFF31180202484F31288BFF36F8F1C6CDA
:1027000004F0C00444F002041C6480F31188BFF399
:102710006F8F1DB12B4630BC0248184730BC704744
:10272000E01E0020A4A5000010B4EFF311822023C6
:1027300083F31288BFF36F8F1848016841F00204D9
:102740000460C80708D482F31188BFF36F8F01209B
:102750005DF8044B01F01ABE4FF05021D1F80C0483
:10276000D1F80C14C907EED5EFF3118083F312886A
:10277000BFF36F8F0A490B6C03F0C00343F00203F1
:102780000B6480F31188BFF36F8F82F31188BFF35E
:102790006F8F00205DF8044BFFF7A0BF301F0020B3
:1027A000E01E002010B1012804D07047034B1B6CC1
:1027B0005B0701D1FFF792BF704700BFE01E00200A
:1027C0002DE9F041012207463649D1E8EF3FC1E843
:1027D000E02F0028F9D133B9334934484B60CB603E
:1027E0008A6006F0A0F97B1E012B2BD8012F07D1A0
:1027F0004FF05023D3F81C3403F00303022B21D0F5
:1028000007F076FD0546F8B9294B1B78E3B14FF088
:10281000502302220646C3F808234FF05024DFF865
:102820009480D4F81824D4F81834D20315D503F0C2
:102830000303022B01D0012F0FD16DB386F3118852
:10284000BFF36F8FBDE8F081EFF31186202383F390
:102850001288BFF36F8F0125DFE7C5B1304606F060
:10286000A1FAD4F81835DBB2012BDAD1D4F804215F
:10287000002AD6D00022C4F80421D4F80421022270
:10288000C4F818252022C8F88021A360C9E70021D8
:10289000212007F0A0FDE4E74FF050230222C3F807
:1028A0000423CFE7DC1E0020CC1E0020FC1E0020ED
:1028B0007B23002000E100E0024B0B60012313604A
:1028C000704700BF341F0020004870477CAA0000FA
:1028D00010B501220648114607F0C9FC07F032FB8B
:1028E000044C206007F02BFB6060002010BD00BF8F
:1028F0003C1F0020341F002070B50C46154607F021
:102900001EFB29460646204606F06DFB08B3B4FBC5
:10291000F6F306FB1343E3B9B5FBF6F306FB1353DB
:10292000BBB9AE4201D9002070BD4FF0FF324FF06D
:10293000FF33094803F018FA07F001FB064620466A
:1029400002F04EF9AD1B3444F9D1034803F0D8F935
:10295000E9E76FF01500E7E73C1F0020F8B50E46E9
:102960001946304617461C4606F03DFB08B346EABA
:10297000040515F003051CD1A4B14FF0FF324FF050
:10298000FF330D4803F0F0F924F00304A54206EBF1
:10299000050009D1094AD2F80034DB07FBD5064807
:1029A00003F0AEF90020F8BD795902F037F904358B
:1029B000ECE76FF01500F6E73C1F00200090035095
:1029C00000487047B8AA00002DE9F34743680F1E7E
:1029D00005461646D3F818907DDBBB184B457AD8D0
:1029E00047EA0204C4F30B04002C74D1006906F01A
:1029F0002DFB2146284606F076FB4FF0FF3A0446B1
:102A0000002E45D10121284606F06DFB002C08BFA1
:102A10000446286906F018FB204602B0BDE8F0879E
:102A200080462E4B5A7882B10AFA02F137EA010148
:102A30000BD101219140B14207D8B8F1000F1ED04F
:102A400098F80110914238BF98460134042C03F1E4
:102A50000203E7D1B8F1000F13D00023812298F8C8
:102A600000102846CDE900333B4606F0F5FA012375
:102A700098F80120044693401F44F61A21E0984636
:102A8000E3E76FF015040121284606F02CFBC0E7B0
:102A9000002CF8D12346CDE90044802206212846A7
:102AA00006F0DAFA04460028EDD1B145B8D1034664
:102AB000CDE900008022C721284606F0CDFA002685
:102AC0000446002CDFD140F267620023284606F05E
:102AD00038FB044694E76FF015049DE78DB40000C1
:102AE00038B545682B69B3B11035284601F054FF5D
:102AF000044680B90146284601F01CFF084B984265
:102B00000BD122462846074901F0FCFE224605214A
:102B10000D20FFF763FC002038BD6FF00400FBE7D9
:102B20000000AD0B292B0000430970B507D10B4BFA
:102B3000596821B101250C68094E854001B970BD65
:102B40008A682A4002D030464B6898471CB12368F7
:102B500021461C46F2E72346FAE700BF681F002023
:102B6000B8A500002DE9F04340F206354668D006CE
:102B700048BF0320337B02EA050558BFC2F340106B
:102B800087B001F01F07B5F5837F144647EA431766
:102B90008DF8030042D00FD8062D18D007D8B5B154
:102BA000022D3DD06FF0150007B0BDE8F083B5F5FC
:102BB000807FF7D101250AE040F20222954231D010
:102BC000B5F5407F30D0B5F5007FEBD1022501236C
:102BD000220303FA01F129D573689960326952BB67
:102BE00007F01F037F0973D13B4A84F4803102EB65
:102BF0008302D2F80032C1F30041C4F3404423F40D
:102C0000E16344EA410423F007031C4344EA8004DF
:102C100044EA0524C2F800420020C5E70725D6E7AC
:102C20000425D4E70525D2E70325D0E7630344BF95
:102C30007368D960D2E71036394630460DF102028A
:102C400001F066FE14F4403F80460CD13946304610
:102C500007F06BF9214B9845DED130469DF8021004
:102C600001F0A4FED8E74FF0000901AB3946304629
:102C700003AACDE90439CDE90199CDF80C9001F012
:102C80001BFD164B98428DD114F4003315D09DF8DE
:102C9000033084F48034C4F300448DF80E30394698
:102CA0004B46304603AA8DF80C508DF80D4001F0CC
:102CB000B1FD0A4B9842CDD074E7CDE904333946D3
:102CC0000DF10303304603AA039301F0F5FCF0E78E
:102CD000803352F82330FFDE002584500000AD0B16
:102CE000F0B5406801F01F04057B87B044EA451445
:102CF0000569002D5FD0B2F5001F00F1100506D167
:102D00002146284607F013F9002007B0F0BD002740
:102D1000B2F5800F01AE0197776037D1B3F1007F34
:102D200014BF052304238DF804300023CDE9046388
:102D30000393836823FA01F111F0010118D1B2F174
:102D4000A07F15D104F01F03620903F1800338D17D
:102D50001D4A52F82330DB070AD40DF10306324630
:102D60002146284601F0D4FD184B984219D002960E
:102D70002146284603AA01F09FFC154B98421DD11D
:102D800001222146284601F01DFEBDE7B3F1C06FC8
:102D900005D0B3F1007F14BF01230223C3E703234F
:102DA000C1E73146284601F007FE094B9842DED0C4
:102DB0006FF00B00A9E76FF08500A6E76FF0150034
:102DC000A3E751F82330FFDE002584500400AD0B4B
:102DD0000000AD0B02780B69012A08D0022A08D046
:102DE0004AB9064A1A6203F1100002F089BF044A88
:102DF000F8E7044AF6E7044AF4E700BF0000AD0B29
:102E00000100AE0B0200AE0B0100AD0B2DE9F04F3F
:102E100087B004934368D0F810B0D3F828A09B8BF8
:102E2000174603934FF0FF324FF0FF3305460C4631
:102E300006F098FC0BF110030293002600230022F9
:102E4000029802F091FF3346BE4201D300234EE0C8
:102E5000207A010776D40136BE4221680BD2820760
:102E600009D4227D80EA020C0CF0010C02F004026D
:102E70005CEA020C08D023B901F06042B2F1005FB5
:102E80001BD04FF0000801E04FF00108D4F804E037
:102E9000039A03EB0E0C944557D8C20706D40AEBED
:102EA00003007246059305F0A3FF059B62681A4470
:102EB00093B2B8F1000F2FD113BB4FF00008D4F834
:102EC0000090A388049A217A284600924A4600F08E
:102ED00061F8031E0BDB4FF480420023029802F0DE
:102EE00043FF80B1284600F035F86FF00403284610
:102EF000029306F03AFC029B184607B0BDE8F08F3B
:102F00009846D146DEE7DBF82030114A9342ECD1F7
:102F1000237ADB0702D400230C3495E7CA45FAD1A3
:102F200023460AE0A8EB0201D8681FFA81F819FAD3
:102F300081F1059305F05CFF059B5A680C3B9045B9
:102F4000F0D2E8E76FF08503D1E76FF01B03CEE71F
:102F50000000AD0B70B5446823682046D3F80855CF
:102F6000D3F80C6502F08AF93146284602F01CFCC1
:102F700005460021606A06F0FBFB204602F06EF970
:102F8000034B9D4214BF6FF00F00002070BD00BFC7
:102F90000000AD0BF0B50C461D46164687B04768DD
:102FA000122200210DF1060005F02DFF04F00103AF
:102FB0008DF80430BDF8303002958DF80530BB8DAA
:102FC0000496AB4214D384F00202C2F340023846A6
:102FD000520101A902F070F9084B98420BD00B3353
:102FE000984214BF6FF004006FF00F0007B0F0BDFF
:102FF0006FF01B00FAE70020F8E700BF0000AD0B00
:1030000038B5044645682B6A98470121686A06F07E
:10301000AFFB23462846AA6905F1080102F0E4F84F
:10302000064B984206D10121204606F0C7FB00EA74
:10303000E07038BD6FF00400FBE700BF0000AD0B8F
:103040002DE9F041456804460669286807F063F8F1
:1030500018B96FF01200BDE8F081304607F000F9B2
:103060007461AB68BBB904220B2120466B7C06F06F
:1030700001FC0028EFDB06220B212046AB7C06F08A
:10308000F9FB0028E7DB01232046BDE8F0411A46A2
:103090000B2106F0EFBB0523062120462A7C06F013
:1030A000E9FB0028D7DBA86807F035F80028D0D066
:1030B000EB89A868297B43F480320127D0F810C03F
:1030C00013F0010FDCF8003007FA01F714BF3B439F
:1030D000BB43D0F808E0CCF80030DEF80030984769
:1030E0000028B8DB01272B7B144A07FA03F3C6E953
:1030F0000723A86806F118018368DB6913B96FF02C
:103100005700A8E73A4698470028A4DB0C4BB36267
:10311000A868297B826803699669002EEFD01B6836
:103120008F401F4214BF4FF000734FF080634FF089
:10313000A072B047002896DA8DE700BFEF97000035
:1031400045310000262300222DE9F04F044650F8B7
:10315000100C91B0D0F804901146009306AB06F025
:1031600060FB002805DA204602F054FF11B0BDE8EC
:10317000F08F0026234F97F8008097F801A008F100
:1031800040036B4413F8273C1AEA030F13D021695C
:1031900031B1012354F8100C0D6803FA06FB11BB82
:1031A00008F101025346002154F8100CD2B206F087
:1031B00061FB0028D7DB01360E2E07F10207DAD1BA
:1031C000D9F8080099F80C500669836805A95B686E
:1031D00098470028C7D1059B32685A400123AB406D
:1031E0001A42C3D0BFE78A681BEA020203D04B68C9
:1031F0000390984703981DB12B6829461D46CEE7DA
:103200002B46FAE7C2B400002DE9F04740F2FF1662
:10321000594FDFF868C1DFF868E100EB81018142B6
:1032200002D10020BDE8F087046814F4804FC4F395
:10323000C325C4F3080340F08C80240EB34208BFBA
:103240004FF0FF337D5D192C00F28680DFE804F03B
:103250000D13191C1F251C84848484366084848487
:1032600084848484848463787B7EC2F80C355C1CFF
:103270005BD10430D3E7C2F814355C1CF9D00024CC
:103280005CE0C2F80835F2E7C2F81035F5E75C1CDF
:10329000C2F80835EDD0002404E05C1CC2F80C35FF
:1032A000E7D001245FEA531859D14FF00109DFF844
:1032B000CC8009FA03FAC8F80CA008E0C2F8083577
:1032C000002DDAD15C1CD4D000240625A146D0F80C
:1032D00000A00AF40048B8F1000F1CBF4FF000092D
:1032E000012403F01F085B093FD10CEB8808D8F8D4
:1032F0000032CAF3412A03EA0E0343EA8A0343EA8F
:10330000052343EA090343EA4403C8F80032B0E75F
:10331000C2F80C35D4E7C2F86035B3F1FF3F04685A
:10332000A7D0C4F30044002CBBD05C091AD10124FF
:10333000DFF8488004FA03F9C8F80890A146C6E708
:10334000C2F86435E9E7C2F86835E6E7C2F86C35DB
:10335000E3E76FF0150065E76FF0850062E7002393
:10336000DB60FFDE00239B60FBE7002308F18008A1
:1033700053F82830F5E700BFDEB400000025845084
:10338000F0F8FCFF2DE9F04104460D46476806F0D1
:10339000AFFF4FF0200888B9264B1B7873B1642625
:1033A000606806F0A3FAF0B9012006F004FD013EC2
:1033B000F6D10021212007F00EF8F0E7EFF3118697
:1033C000314688F31288BFF36F8F606806F08EFA7B
:1033D000A8B986F31188BFF36F8FEFE786F31188E2
:1033E000BFF36F8FE5E7EFF31186314688F312885C
:1033F000BFF36F8F606806F079FA0028EED0BB69E2
:1034000000201D706368BA691B68C3F84425012257
:10341000C3F84825C3F82001D3F82041C3F8580168
:10342000D3F858019A6081F31188BFF36F8FBDE81C
:10343000F08100BF7B230020F7B505460022012163
:103440000820FEF7CBFF0820FEF798FF6A68136993
:103450001168C1F82435137D507D927D03431343D9
:10346000C1F86C356E68D6E9004313F0010348D00B
:103470002F6907F1080000F05FFF304B98425AD1E6
:10348000387A04F10C0204F5907106F096FC387A53
:10349000012707FA00F000F049FF0823C4F80035BF
:1034A000B369C4F844350023C4F84835A760D4F89C
:1034B0005831002BFBD00021C4F800156B6801AA1D
:1034C000DC68204606F0E5F9002805DB019B226850
:1034D00019791868FFF798FE08216A681368C3F81D
:1034E0000015117A51B9D269C3F834250122C3F805
:1034F0003825C3F81011D3F810111A60002003B05A
:10350000F0BD0822C4F80025B269C4F84425C4F807
:1035100048350123A360D4F82031002BFBD00023D1
:10352000C4F82031D4F820310123E3604FF48073D4
:10353000C4F80433BBE76FF00400E0E70000AD0B14
:103540002DE9FF4105690646D0F80480A86C2B6D73
:10355000002835D1002B53D0B8F830406A6C9C421B
:1035600028BF1C46EF6CEB6C53B1296D41B107F0DD
:103570006041B1F1005F03D0082C28BF08246F6EB2
:1035800000926A6CAC651AB1AA6C002A18BF224678
:10359000CDE901271BB12B6D002B18BF234600225C
:1035A00069464046039301F0F1FC184B984229D03C
:1035B0006FF00401304604B0BDE8F04106F0A1BA56
:1035C000696CEF6C0A46B8F83040ABB1834228BF53
:1035D00003469C4228BF1C460029C4D001F060432A
:1035E000B3F1005FBFD0082C28BF0824286E224604
:1035F00005F0FEFB2A6EB6E7844228BF0446EBE7DF
:103600001946D7E704B0BDE8F08100BF0000AD0B5C
:103610002DE9F04F8DB001934368884602938B8863
:1036200005469904914604692DD44FF0FF324FF0BE
:10363000FF3304F1100002F097FBC4F80480D5F8C2
:1036400004B0D5F810A0DBF8083003939AF85D3089
:1036500023B1DAF80030984500F09D80B8F804E016
:103660001EF4006F16D06FF0850623689B8813F454
:10367000005304D1636004F1100002F041FB3046B6
:103680000DB0BDE8F08FA369002BCED163689845DB
:10369000CBD1D4E71EF0090F02D06FF01506E4E796
:1036A000CEF34513082BF8D1D8F800C08B4B9C45BE
:1036B000F3D904AE0BF10C070FCF0FC697E80F003C
:1036C00086E80F00039B634528BF63469C46844BF6
:1036D0009C4511D2834B9C4546D8834B9C4545D88D
:1036E000824B9C4544D8824B9C4543D88149824BB0
:1036F000824A8C4588BF13461EF0020F09930EF0D4
:10370000040339D0002B14BF032302238DF8283083
:10371000CEF300138DF82930DBF800301EF0020FD5
:10372000D3F8082576484FF00103CEF340014FEA65
:10373000521625D1002E40F0CB809340C3609AF8FA
:103740005D302BB1584601F0E5FB00238AF85D306F
:103750002B4658466B4A04A901F0A8FB6A4B9842D5
:1037600014D06FF0040680E7684BC5E7684BC3E7E9
:10377000684BC1E7684BBFE7003B18BF0123C5E7B3
:10378000002E40F0A78093408360D8E70123CAF859
:1037900000808AF85D30012384F85C30029B996BCD
:1037A0004A1C03D003F13C0000F0E8F8B9F1000F27
:1037B00068D1C4F834900023A36304F1480204F1F3
:1037C000380104F1340006F0C7F8019B6064002B57
:1037D00060D1E3630023236404F1500204F140014B
:1037E00004F13C0006F0B8F8002601213246E064FE
:1037F0002663204606F0E7F82846FFF7A1FE32468A
:103800003346A06B83424DD100231946266CB1424A
:103810004FD1934238BF134627464FF4FA524FF028
:10382000000802FB03F657F8203B4FF4004C1B68DE
:103830004146B6FBF3F640F2E730C8364FF47A72F1
:103840000023E6FB0C01FCF77DFC02460B463846E4
:1038500002F08AFA024618B9266B16F1740F2FD1BE
:103860000298C4F8588001F055FB6FF073012846A8
:1038700084F85D8006F045F9384602F09BFA6FF057
:103880007306F2E6D9F800306363002B93D0D9F8C1
:10389000043091E7019B1B68E363002B9AD0019BE6
:1038A0005B6898E7616B01EBC301496801330A4427
:1038B000A8E7E06B00EBC100406801310344A6E7D4
:1038C000002E3FF4D2AE0146286906F07CF8CCE623
:1038D000C960FFDE00239B60FBE700BF47E80100F3
:1038E00000127A00FF083D007F841E003F420F0057
:1038F0001FA107008FD0030048E8010090D003000B
:1039000000258450259B00000000AD0B00093D0000
:1039100080841E0040420F0020A107000123F0B563
:1039200087B08DF80230022300248DF804306B44F8
:1039300003930F4601AB0DF1030104930546029179
:10394000059401F039F80C4B064698420FD13946E0
:10395000284603AA00F0B0FEB0420BD028469DF8DE
:10396000031001F023F86FF0040007B0F0BD6FF012
:103970001200FAE72046F8E70000AD0B2DE9F04110
:103980000D46064606F0D5FA00220746294630467F
:1039900001F018F86B0905F01F0429D1174B03EB50
:1039A0008404D4F80022164B134043F00C03C4F8EF
:1039B000003206F01CF980463368DB597BB10027E2
:1039C0003046294606F0B3FAD4F800220C4B3846AC
:1039D000134043F00403C4F80032BDE8F08106F060
:1039E00006F9A0EB08000628E6D96FF07307E7E7B1
:1039F0000023803453F82430FFDE00BF00258450BC
:103A0000F0F8FCFF0123834070B5DC430B4AD2E899
:103A1000EF1F01EA0405C2E8E65F002EF7D14FF47C
:103A2000803282400648C0F80823BFF35F8FBFF39F
:103A30006F8F0B4214BF0120002070BDE41F0020D7
:103A40000050015070B40E4922F07F46D1E9003495
:103A5000D01AC31844F10004C1E90034A6F50013DC
:103A6000B3F5400F09D2074B1B681A0A1B069C19B5
:103A7000054B42F10005C3E9004570BC02F0BEBF32
:103A8000F8010020E81F002000020020D9B1012326
:103A90000D4A8340D2E8EFCF4CEA030CC2E8E1CFF5
:103AA0000029F7D14FF48033084A8340C2F8043329
:103AB000074BD3E8AF3FC340DB0742BF4FF40012D0
:103AC000044BC3F800217047E41F00200050015050
:103AD000E01F002000E100E00D4B1868010A00061D
:103AE000BFF35F8F0B4BD3F80435181841F1000179
:103AF000B3F5801F0AD2084BD3E90023904271EB43
:103B0000030303D210F1807041F10001704700BF40
:103B1000E81F002000500150000200202DE9F04F66
:103B200085B016461F4604469DF840A0FFF76AFF81
:103B30000190FFF7D1FFB04271EB070352D23B4B2C
:103B4000301A67EB0101984271F100014DD2384BF8
:103B500003EB0413D3E902239F4208BF964258D0D7
:103B60004FF48038334908FA04F8204626F07F4B9A
:103B7000C1F8488306F02FF84FF00309584604F1C6
:103B80005005AD00ADB205F1502504F5A87305F55B
:103B900080350293029A20F07F4341F82230C1F829
:103BA0004483D1F80435244AC01A033820F07F40FA
:103BB00090422ED9286868B1D1F80435A3EB0B00E8
:103BC00020F07F40B0F5000F039322D9204606F085
:103BD00002F8039BBAF1000F07D109EB030009F1CA
:103BE0000109D7E7BAF1000F09D06FF0150520469B
:103BF0000199FFF74BFF284605B0BDE8F08F012380
:103C00000E4AA340D2E8EF0F1843C2E8E10F0029A3
:103C1000F8D107490E982301C8500F9B01EB0412FD
:103C20000025C2E902675360E1E700BF01008000A0
:103C3000E801002000500150FDFF7F00E01F002040
:103C40007FB500254FF0FF304FF0FF31194C1A4B74
:103C50000226C4F80833C4F84833184BC4F8085592
:103C6000C3E902014FF480334FF40012C4F8043367
:103C7000134B0121C4F804631520C3F880212A46A0
:103C8000FEF7ACFB1520FEF779FB01230D4AA3607C
:103C9000236013600C4B0D4A009328460023CDE9A6
:103CA0000155FFF73BFF3046FEF78AFD284604B07A
:103CB00070BD00BF0050015003000F00E80100205C
:103CC00000E100E0E41F0020453A0000FFFF7F0014
:103CD0002DE9F7432E4BD3F8042390070BD5D3F8E7
:103CE000042142B10022C3F804212A4AD3F8043146
:103CF000136801331360264AD2F80433D90326D55A
:103D0000254BD3E8EF1F21F00100C3E8E40F002C9E
:103D1000F7D1CB0702D4D2F84031C3B100251C4CF7
:103D2000C4F84051D4F84031FFF7D6FEEFF31182CA
:103D3000202383F31288BFF36F8F184BD3E90267F8
:103D4000B042B94106D282F31188BFF36F8F03B03E
:103D5000BDE8F0834FF0FF38D3E900104FF0FF3992
:103D60001D60C3E902894FF48033C4F84833C4F8B6
:103D70004051D4F8403182F31188BFF36F8F00298E
:103D8000E5D0009032463B4628468847DFE700BF33
:103D900000500150E81F0020E01F0020E801002033
:103DA00030B5431C124C85B005D08442A8BF0446F0
:103DB000012CB8BF0124FFF78FFE0E4B0C4DD3E949
:103DC0000013401AB0F5000F0FD22218AA4228BFE4
:103DD0002A46002052180849CDE90100009143F11C
:103DE0000003FFF79BFE05B030BD2A46F1E700BF98
:103DF000FFFF7F00F8010020453A000008B5FFF7FB
:103E00006BFE024B1B68C01A08BD00BFF801002002
:103E1000012310B5074C15206360FEF7BDFA4FF47F
:103E20000012054BC4F80833C4F84833034BC3F8F9
:103E3000802110BD0050015003000F0000E100E0A0
:103E400040EA0103C3F30E0330B58BB940F21515F8
:103E5000094CC90BC0F3C730994201D1002030BDD5
:103E6000C218D2B202F5C07244F822500133F3E70F
:103E70006FF01500F3E700BF0030005030B58168E7
:103E800085B0103921F00704054604F01BFF10220D
:103E90000146684604F0B7FF10226846064904F060
:103EA000A7FF10236A462146284604F0D5FE0038B5
:103EB00018BF012005B030BD9AAD000030B50D46E9
:103EC000816887B0102302AA1039044604F0AFFEBF
:103ED000002802DA012007B030BD1022204602A9D6
:103EE00005F0A8FE00283AD110221E4902A804F0CD
:103EF0006FFF00280CBF012302232B70204605F022
:103F000085FE012301460DF10702204604F08FFED5
:103F10000028DFDB9DF80730204603F00F021B0965
:103F20006A702B7101220DF1070105F083FE10B9B3
:103F30006B78042B03D901236B7000232B71A268CB
:103F40002046183A22F00702083AA91C05F085FE1F
:103F50000028BFD12046E91C05F0D8FEBBE70323AB
:103F6000CBE700BF9AAD0000F0B5354F85B04600F5
:103F70000546694657F8260005F0CEFE044610B106
:103F8000FF2005B0F0BD013657F8260002A905F064
:103F9000C3FE012837D12A4649212A4804F039FEB8
:103FA000294B8DF80C40029300229DF800609DF88B
:103FB0000870264C3146207805F02EFE50B3394665
:103FC000607805F029FE28B3A378042B03D09DF870
:103FD000031099421ED1E378042B03D09DF80B10F7
:103FE000994217D12379042B10D16279022A1DD16D
:103FF000174B18482A46492104F00BFE6079831EAE
:10400000022BBED9BCE70028CED0B9E79DF802103C
:104010009942EAD00132032A04F10604CAD10E48BB
:104020002A46492104F0F5FD0120AAE7032A05D01C
:104030000A4B0B49042A08BF0B46DAE7094BD8E7BD
:10404000E8AB00001CB5000003010303B1B500009C
:10405000FEB4000067B500008BB5000003B500009A
:1040600015B50000F9B4000008B5EFF31083012B7B
:104070000C4A07D1126ABFF34F8F511C4A424A4182
:10408000104608BD05F075FE00B172B6126ABFF3A6
:104090004F8F531C5A425A4105F06BFE0028EFD057
:1040A00062B6EDE70080FF0008B5EFF31083012B47
:1040B0000B4A06D1D269BFF34F8F02F001021046BE
:1040C00008BD05F056FE00B172B6D269BFF34F8F3E
:1040D00002F0010205F04DFE0028F0D062B6EEE7D6
:1040E0000080FF0010B505F044FE30B14FF05023C2
:1040F0000022C3F81421C3F8182105F049FE28B1A5
:104100000122644BC3F8382AC3F878254FF47F02A4
:10411000D2F83031D2F83421BFF34F8FC3F30B0301
:10412000092B05D1012A1EBF01225A4BC3F878255D
:1041300005F02EFE18B10E22574BC3F8E42E05F001
:1041400018FE30B10022534BC3F80C270122C3F8EC
:1041500010270022D30003F57F03D3F80013BFF329
:104160004F8F013108D0D3F800130132D3F8043354
:10417000B2F5807F0B60EDD1EFF31084FFF794FF71
:1041800000284DD0BFF34F8F444BD3F80024012AB1
:10419000FBD1C3F80425D3F80024012AFBD1012C5C
:1041A00003D005F0E6FD00B172B6FFF77DFF58B110
:1041B0003B4AD36923F00103D361BFF34F8F374AE2
:1041C000D2F80034012BFBD1FFF74EFF68B1344A1F
:1041D000136A23F0FF0343F020031362BFF34F8FF2
:1041E0002E4AD2F80034012BFBD1012C03D005F06C
:1041F000C0FD00B162B60022284BC3F80425D3F8F5
:104200000024012AFBD1BFF34F8F2649264BCA68F1
:1042100002F4E0621343CB60BFF34F8F00BFFDE7B2
:10422000FFF722FF0028ADD11E4AD2F88C3043F4AC
:104230004063C2F88C304FF47F03D3F83021D3F8B9
:104240003431BFF34F8FC2F30B02092A16D1013B61
:10425000022B02D8154AD35C83B111481449036874
:104260000E4A8B420CBF5A230023C2F8103EC36A89
:104270008B420CBF5A230023C2F8003E094AD2F8F1
:10428000883043F47003C2F88830BFF34F8FBFF318
:104290006F8F10BD0040005000A0035000900350ED
:1042A0000080FF0000ED00E00400FA05C3B5000047
:1042B000FA50FA5030B50468ACB1B4FA84F3012274
:1042C000C3F11F03DBB29A4024EA0202D0E8EF5F99
:1042D000A54204D1C0E8EC2FBCF1000FF6D1EAD121
:1042E00002480B7030BD0248FCE700BF0000AD0B78
:1042F0000200AD0B10B50368CB40DB0710D40123DF
:104300008B40026843EA0201D0E8EF4F944204D1A7
:10431000C0E8EC1FBCF1000FF6D1F2D1014810BD8E
:104320000148FCE70000AD0B0400AD0B014BC3F8E6
:1043300004057047007001500146014800F0B6B80E
:10434000A0000020044B1A7922B9012218601A71CA
:104350000248704702487047EC1F00200000AD0B78
:104360000C00AD0B08B5084B1B6833B10520FEF7F8
:1043700027F810B90520FEF701F84FF0502301226D
:10438000C3F8182508BD00BFEC1F002010B510B100
:10439000012847D010BD4FF05023D3F81814D3F89C
:1043A0001824C90322D502F00303022B05D0012BE8
:1043B00002D0002005F008FD01234FF0502202201A
:1043C000C2F8183508224FF48273002103F15023FC
:1043D00019601C68012402F150221460164A126808
:1043E00022B34FF05023C3F80403D3E7D3F81424C7
:1043F000D207E1D5D3F81C2402F00302013A012AC6
:10440000D7D80D4A12681AB10222C3F80423C1E7B3
:10441000D3F80421002AFBD00022C3F80421D3F8EA
:104420000431B7E700224FF48073CEE71A68002A00
:10443000FCD019601B68ADE7EC1F0020F8B54FF009
:10444000502301250026D3F80443174F04B9F8BDC3
:10445000B4FA84F0C0F11F00830003F580739BB2AF
:1044600003F1502305FA00F21968D2B224EA0204DB
:104470000029EBD01E601B684FF05023022AC3F8BE
:1044800008230DD1D3F81814D3F8181401F0030140
:10449000012905D1C3F81825C3F804239960D5E78D
:1044A0003B68C0B29847D1E7EC1F00200079024B6F
:1044B00003EB0010FFF7FEBEA8000020036803F026
:1044C0001F025B090260024818BF0020704700BF4E
:1044D0000025845070B50D4C00F1080334F81330FA
:1044E0000546DA050E4607D5C3F3432304EBC302A2
:1044F000526854F833309847A3682BB131462846A8
:10450000E268BDE87040184770BD00BFB8000020E9
:10451000024611F0010004D003490B6A13600B62DC
:1045200003B90020704700BF0025845010B4134A1F
:10453000C0B2083032F81030D9051CD5C3F343217E
:1045400023F4F85322F81030002002F10E0434F85E
:10455000023F13F4807F03D0C3F3432399420AD070
:1045600001302028F3D1002342F8313004485DF8AF
:10457000044BFFF7BFBE5DF8044B7047B800002046
:1045800010010020F0B5054600200126044607462C
:104590008C420BD1114BD3F87C2132B10022C3F8ED
:1045A0007C21D3F87C3140F00040F0BDE3B29B00A9
:1045B00003F580729B0806FA03F31D420BD002F14B
:1045C000A04202F55042D2F800C0BCF1000F02D068
:1045D0001760126818430134DAE700BF00D00050BA
:1045E000064BC0B2083033F81000830643BF400BBF
:1045F000800000F580704FF4BE707047B800002056
:10460000CBB2024608460D49083331F813309906FB
:1046100011D599070FD4012110685B0B9940C0F8A0
:104620000813126802EB8303D3F8102522F003026B
:10463000C3F810257047002105F068BCB8000020C1
:10464000F7B5194ECDB2083536F815300746DB07F9
:104650000C4626D5FFF7D4FF36F815309A0608D554
:104660005A0B3B6803EB82030022C3F81025C3F802
:1046700010252046FFF75AFF002301A826F8153021
:104680000194FFF71BFF019B00EB8300D0F8002291
:10469000064B134043F00203C0F80032044803B055
:1046A000F0BD0448FBE700BFB8000020F0F8FCFFB5
:1046B0000000AD0B0400AD0B2DE9FF411368074668
:1046C0000C461646FBB1DFF84481CDB2083538F808
:1046D000152002F02202222A22D000222046CDE913
:1046E00000228DF80E208DF80F200DF10E010DF136
:1046F0000F0205F0C2FB38F8153023F0020343F037
:10470000010328F8153073684BB31A785868DFF83E
:10471000FCC0E3B208333CF813108D0702D5B0B1EA
:1047200038481FE021F02001C904C90C2CF81310EF
:1047300068B1032AF4D870683D68406890F800E0DA
:1047400005EB8E058AB9C5F81025C5F810253CF88B
:10475000131021F01C0141EA82022CF81320B368E7
:104760002BBB294804B0BDE8F081D5F8108541EA9B
:104770004E3128F00308C5F810853D6841F020014E
:1047800005EB8E05D5F810052CF8131020F44730F2
:1047900020F44070C5F810052002D5F8107500F41B
:1047A000F85040EA02403843C5F81005CFE72046EC
:1047B000D3E90067FFF7BAFE002ED2D0134DD5E93A
:1047C0000023964203D19F4201D1002209E0104804
:1047D0000DF10F01FFF76EFD0B4B9842C2D19DF812
:1047E0000F20E4B205EBC20308345F6035F81430E3
:1047F00045F8326043EA422343F4807325F81430CD
:10480000AFE700BF0400AD0B0000AD0BB800002007
:10481000100100202DE9FF4107460C461E4612B349
:10482000DFF8D480CDB2083538F81530980701D4B8
:10483000990621D413F01C0F02D05378012B1BD002
:1048400001238DF80F3000232046CDE900230DF120
:104850000F01931C013205F010FB38F8153043F0BE
:10486000030328F81530002E44D0234DE1B208315F
:1048700035F81120930703D4204804B0BDE8F08137
:10488000002096F800E03B6822F02002D20403EBFF
:104890008E03D20CC3F8100525F81120C3F81005BB
:1048A00096F801C04FEA8E08BCF1000F22D038689C
:1048B000B6784044D0F810354FEA0C4C23F49813E6
:1048C00023F4F853C0F81035230203F4F8530CF422
:1048D000403C3605D0F8107543EA0C0306F4801608
:1048E000334342EA4E323B4342F02002C0F81035D7
:1048F00025F811200248C0E7B80000200400AD0BE5
:104900000000AD0B014BC3E902127047B800002054
:10491000054BC9B2083133F81130990643BF5B0B20
:104920000248137002487047B80000200000AD0B29
:104930000400AD0B70B5154D064695F860401CBBE4
:104940002146402205F1100004F05DFA214630684E
:104950002E6D8E420ED10023C0F87C31D0F87C3110
:1049600040F30730FDF70AFD0123094885F8603060
:10497000AB6570BDCBB29B0003F580727C2B04BF8E
:10498000845083580131E4E70248F2E7B800002080
:104990000000AD0B0C00AD0B034B93F8600000382A
:1049A00018BF0120704700BFB80000200148FFF782
:1049B000A1BC00BF0C0100200148FFF77BBC00BF79
:1049C0000C01002073B503680C46D3F804130029CA
:1049D000A4BF4FF00041C3F804131E49E3B20833EB
:1049E00031F8133099061AD513F0020617D15B0B74
:1049F00005689C0004F580716E5069580168214477
:104A0000D1F8104544F00104C1F810452AB1012243
:104A1000016802FA03F3C1F8043302B070BDC3F3B6
:104A20008203042B11D0052B11D001A80194FFF7AC
:104A300045FD019A0369D34003F00103991C204608
:104A400002B0BDE8704005F061BA0321F7E702212A
:104A5000F5E700BFB80000202DE9F347534B544F52
:104A6000D3F80403396DC0B240F00040FFF78AFD6F
:104A7000051E18DA00236846F96D00934FF001080F
:104A8000FFF746FD97F85C30DA0757D4396D4FF0E1
:104A90000040FFF777FD6846F96DFFF739FD002804
:104AA000F0D125F000450124002D66D102B0BDE80B
:104AB000F08794FAA4F4B4FA84F4E00804F108034B
:104AC00037F8139004F007021DF8003008FA02F2DC
:104AD00023EA02030DF8003001A80194FFF7EEFC71
:104AE000019B4FEA9901803350F82360C9F3820A91
:104AF0004B07D146C6F3014624D520465146FFF761
:104B0000E9FC01A80194FFF7D9FC019BF6B28033C0
:104B100050F82330C3F301439E4207D100212046C1
:104B200005F0F4F93146204605F0F0F901A80194AA
:104B3000FFF7C4FC019B08FA03F30362009C002CFE
:104B4000B7D1A3E7022E0CD10321204605F0DEF9F0
:104B50000AF00503012BE9D149462046FFF7BAFCCC
:104B6000E4E70221204605F0D1F9BAF1030FF3D0B2
:104B7000032EDBD1BAF1020FEDE795FAA5F3B3FAF4
:104B800083F304FA03F29B0003F1A04303F55043BF
:104B9000D3F81005D3F81015C0F30420C1F3014178
:104BA00025EA0205FFF796FC7EE700BF00D0005023
:104BB000B80000200022034BC3F88425C3F8042565
:104BC000704700BF00900350044AD2F80834DB0756
:104BD000FBD50160BFF35F8F704700BF00900350AB
:104BE00008B5C0F30B0383B90222094BC3F884252F
:104BF000C3F804254FF0FF320260D3F80024D20737
:104C0000FBD5FFF7D7FF034808BD0348FCE700BF0B
:104C1000009003500000AD0B0A00AD0B012208B557
:104C2000054BC3F88425C3F80425FFF7CDFFBDE885
:104C30000840FFF7BFBF00BF00900350430904D1F5
:104C40000123034A83409360704700239B60FFDE8B
:104C5000002584500C4B984213D00AD80B4B984235
:104C60000FD00B4B98420CD00A4BC31A58425841F4
:104C70007047094B984204D0084B984201D0084B2A
:104C8000F3E70120704700BF40420F0090D00300BF
:104C900020A1070048E8010000093D0000127A0049
:104CA00080841E00431C14D000F01F0340090BD168
:104CB000084A02EB8302D2F80012074B0B4043F084
:104CC0000203C2F8003270470022803352F82330CA
:104CD000FFDE704700258450F0F8FCFF430904D143
:104CE0000123034A8340D36070470023DB60FFDE6B
:104CF0000025845038B51446421C054616D00129BB
:104D000002D1A3B1FFF79AFF05F01F036D0911D17E
:104D10000B4A41EA840402EB8303D3F80002094AF8
:104D20000240144344EA4101C3F8001238BDFFF7C2
:104D3000D5FFE9E70022803352F82330FFDE00BFC1
:104D400000258450F0F8FCFF2DE9F843504B4D69E5
:104D500006469D420C4690F8049000F0848077D877
:104D60004C4B9D4200F082804B4B9D4200F0818075
:104D70004A4B9D420CBF4FF000754FF080452422F6
:104D8000DFF82481E07E02FB0983997F60F3000154
:104D900099773379217C02FB03839A7F61F3410287
:104DA0009A77E77EEFB9237E3A46012B94BF002322
:104DB000012301212068FFF79DFF3B463A46012170
:104DC0006068FFF797FF3B463946A27EA068FFF771
:104DD00091FF237C3A460121E06883F00103FFF74D
:104DE00089FF242303FB0983E2681A62217C9A7FEE
:104DF00061F341029A77277FA07C217E637E32682F
:104E000047B9D4E900C7A468C2F808C5C2F80C7550
:104E1000C2F81045003B18BF01230229C2F8C005A3
:104E2000C2F824552BD003292CD0012901D143F0FD
:104E30000203C2F8543524223379534358F803301F
:104E40001BB33068BDE8F84340F30730FDF796BA6E
:104E5000134B9D4210D0134B9D420CBF4FF00045A9
:104E60004FF080458BE74FF0805588E74FF0806525
:104E700085E74FF0006582E74FF000557FE743F08C
:104E80000403D6E743F00603D3E7BDE8F88300BF89
:104E900040420F0090D0030020A1070048E8010025
:104EA00080841E0000127A00F41F00202DE9F843D0
:104EB0000746242597F80480124C05FB08F504EBFF
:104EC00005091E4699F81C30C3B999B14869FFF726
:104ED000C1FEA8B138466251C9F80460FFF734FF3B
:104EE000242303FB08440023637701230648237728
:104EF000BDE8F8836251C9F80460F1E70348F7E7B9
:104F00000348F5E7F41F00200000AD0B0C00AD0BCB
:104F10000400AD0B2DE9F041044606790068194DF7
:104F200040F30730FDF738FA24237343EB5853B1AD
:104F30002368154A06EBC601C3F80823206805EB71
:104F4000810105F055F82368242404FB0654D3F8A6
:104F50000805D3F80C75D3F81085A37FDB070AD4B6
:104F6000FFF7A0FE4046FFF79DFE3846FFF79AFE8A
:104F7000206AFFF797FE242303FB065500232B77B7
:104F8000BDE8F081F41F00205201080024232DE920
:104F9000F0430779534D7B439046EA180E46517F04
:104FA000814685B0002940F09B80EB5823B118F072
:104FB000140F04BF01235377242496E80F0004FB49
:104FC000075404F10C0C8CE80F00206A421C04D03A
:104FD000A37F9B071AD5FFF731FE3368D9F800404D
:104FE00023B103F06043B3F1005F06D1B36883B12E
:104FF00003F06043B3F1005F0BD02423002203FBD6
:10500000075339485A7705B0BDE8F083FFF766FECD
:10501000E3E718F0010318BF0123C4F8503518F076
:10502000020318BF0123EC46C4F8403596E80F0090
:105030008CE80F00039BC4F84405C4F84815C4F875
:105040003425C4F838350023C4F81831D4F81831A1
:105050000723C4F8003524237B4318F0080F05EB21
:1050600003021DD10121E858216158B9D4F8183143
:10507000002BFBD062464021204604F07BFF242316
:105080007B43EA18EB5813BB106A461C13D107EB9D
:10509000C707204605EB870104F0AAFF1348B2E7D3
:1050A000EB58A3B9106A411CF8D0937F9A070BD52F
:1050B000FFF714FEF2E7937F9B0702D5FFF70EFE82
:1050C000E5E7FFF7BBFDE2E7FFF7B8FDE6E74023C2
:1050D00018F0040F14BFC4F80833C4F80433DDE734
:1050E000034890E7F41F00200A00AD0B0000AD0B51
:1050F0000B00AD0B10B540210F4A104804F03AFFE9
:10510000C8B10F4C206A421C04D0A37F9B070FD567
:10511000FFF7E4FD637F1BB10949084804F068FF0D
:10512000002323720748D4E90031BDE81040184736
:10513000FFF784FDEEE710BD0020002000B0005016
:10514000F41F0020FC1F002010B4CC7B8A68036889
:105150002CB9D1E90041C3F80845C3F80C15C3F8D0
:105160002425282203795343064AD35833B10068D3
:105170005DF8044B40F30730FDF700B95DF8044BD0
:10518000704700BF1820002070B5817BE9B9046822
:1051900004F01F0364091AD140F20C65104A114E45
:1051A00002EB8303D3F8001231402943C3F8001205
:1051B000416801F01F0349090DD102EB8303D3F8C5
:1051C000002232402A43C3F80022012070BD803300
:1051D00051F82330FFDE803354F82330FAE700BF64
:1051E00000258450F0F8FCFF2DE9F041074690F8C7
:1051F0000480282000FB08F0144E0C46351895F862
:105200002210F1B9A96032506B6085F8251085F83D
:1052100024106CB1A37B204685F82730FFF7B4FF3C
:1052200088B1637B2146384685F82630FFF78CFF2E
:10523000282303FB08660123054886F82230BDE8D1
:10524000F0810448FBE70448F9E700BF182000207C
:105250000000AD0B0C00AD0B0400AD0B0621036884
:105260000279C3F800152821034B01FB0233022207
:1052700083F82220704700BF1820002028210279DF
:105280000B4B01FB02330021996002680948C2F808
:105290000803D2F8000220F4BC50C2F80002C2F8A1
:1052A0000015012283F8241083F82220704700BFE4
:1052B0001820002002029C012DE9F84F2823904677
:1052C000002290F80490AE4D046803FB095383F864
:1052D00023204B680E4633B1CB6803F06043B3F133
:1052E000005F40F085813378023B012B06D833699B
:1052F00003F06043B3F1005F40F07A81A14BC4F842
:105300000833282303FB095393F8241001F0FF020C
:1053100039B19B68DFF878B2C4F804335846BDE869
:10532000F88F18F0140F0CBF0121002183F824100E
:10533000317809EB890783F82010717805EBC707EE
:1053400083F82110F168D960716819613169596178
:10535000B168C3F81C809961C8F3001183F8251067
:105360007378C4F88835C4F86021D4F86031C4F883
:105370004821D4F84831C4F82421D4F82431C4F8A1
:105380000421D4F8043118F0010318BF0123C4F834
:10539000503518F0020318BF0123C4F840353378A4
:1053A000032B00F2A480DFE803F0799962024FF446
:1053B0008073C4F80032D7E90323C4F84425C4F845
:1053C00048350123A3604FF48011204604F068FEA5
:1053D0000028F8D1D7E90523C4F84425C4F8483596
:1053E00028234FF4802203FB09539A60DFF8A4B10D
:1053F000282202FB09F218F0080AAB5805EB02005C
:1054000013D13178032910D0012940F08680216022
:10541000002B6FD0282202FB09F27168AA5821B92B
:10542000002A00F0BB8001226261282202FB09F2FF
:10543000A918AA58002A00F0B18018F0040F1CBF68
:1054400000228A6018F0400F06D1282202FB095280
:10545000916841F002019160282202FB0952916893
:1054600041F4007191609268C4F8042356E7D7E9CB
:105470000323C4F84425C4F84835D7E90523C4F804
:105480003425C4F838354FF48453C4F8003201236E
:1054900023622823022203FB0953A6E718F0200FFA
:1054A000D7E90323C4F8442514BF4FF480724FF4A6
:1054B0000072C4F848354FF0280315BFC4F8002225
:1054C000C4F800224FF48022022214BF03FB0953C8
:1054D00003FB09539A600123236287E7D7E903237B
:1054E000C4F83425C4F838354FF48053CDE7DFF8DD
:1054F000A8B07DE7026902B961612349DFF88CA099
:10550000204604F0CDFD012210F4007F18BF626137
:1055100010EA0A0F1C49F3D07CE70121A160002B9F
:105520007FF478AF006918B3184B1AEA030F7FF4C1
:1055300071AF2046144904F0B3FD10F4007F824699
:10554000F2D04FF08071204604F0AAFDD4F800128A
:1055500080B111F4007003D101228246226262619F
:10556000CB05E1D54FF48021204604F099FD04E0FD
:105570006161D9E70122226262614FF0000AD3E73C
:105580001820002002029C01020204000200040014
:105590000B00AD0B0000AD0B0400AD0B282101FB8F
:1055A00009550021D4F8C424C4F8C42485F8241073
:1055B0008AB11149114B12F0010F14BF8B469B4663
:1055C000013112F0020F18BF8B4612F0040F0C4A83
:1055D00018BF9346A2E618F0400F7FF49FAE3946FD
:1055E000204604F01BFD054A002808BF934695E6B7
:1055F000DFF810B092E600BF0000AE0B0100AD0B6B
:105600000200AE0B0A00AD0B70B55D4D022186B0F5
:10561000284604F045FD4FF400710646284604F084
:105620003FFD584CD8B1E6B9A3684FF08071C5F87A
:1056300008330223A360A3682846C5F8043304F0A6
:105640002FFD18B1D5F800329B0503D401224C4B35
:105650001A625A61012384F8233006B070BD002E0F
:1056600058D0E5696E060AD494F823303BB9454911
:10567000434804F0D3FC80F0010084F8230015F0C7
:10568000040525D13E4B94F82520C3F86051D3F88A
:105690006011C3F85C51D3F85C1112B194F8232067
:1056A0005AB10022C3F80022A260374AC3F8082387
:1056B0004FF48062354BC3F88021238CADF8043061
:1056C000E36804932369029363690593A3690393D1
:1056D0002B4AD2F8C4349807C2F8C4344AD45907C4
:1056E0004AD4DA074AD494F823309B00DBB28DF811
:1056F000003094F825300BB984F82430E3695B0757
:1057000003D594F82330002BA7D0D4E900316846A4
:105710009847A2E74FF48021284604F0C1FC94F892
:105720002030ABB994F8253053B94FF48062C5F8F6
:105730000032A360144BC5F80833144BC3F8802122
:1057400000238DF8043094F821308DF80530B7E748
:105750004FF40073C5F8003240F20223A36003F156
:10576000CE73C5F80833A368C5F804330123AB60D2
:105770002B6272E70123BAE70223B8E70323B6E7F7
:1057800000A000501820002002029C0100E100E06F
:10579000036803F01F025B090260024818BF002083
:1057A000704700BF00258450F7B5064604F0A2FC00
:1057B000084604F09FFC01A80196FFF7E9FF0C469C
:1057C00040F20D61019B2B4D00EB8300D0F80032BD
:1057D00001942B400B43C0F8003201A8FFF7D8FF1B
:1057E000019B012700EB8300D0F800322B400B43D4
:1057F000C0F80032042004F0DEFA092501A8019463
:10580000FFF7C6FF019A0369D340DB0714D401A850
:105810000196FFF7BDFF019B013D07FA03F3C3604B
:10582000042004F0C8FA304604F064FC042004F0BC
:10583000C2FA15F0FF05E1D101A80194FFF7A8FF16
:105840000123019A9340C360042004F0B4FA204677
:1058500004F050FC042004F0AEFA01A80194FFF714
:1058600097FF019A03690448D34003F00103C01A6B
:1058700003B0F0BDF0F8FCFF0100AD0B38B5EFF35D
:105880001185202383F31288BFF36F8F064B9C682A
:1058900004F054FC85F31188BFF36F8F2046BDE8F8
:1058A0003840FCF7F9BC00BF4020002038B5094B58
:1058B00053F82040013053F82050A54200D838BD9D
:1058C000636823B1204604F03CFC0834F5E7236804
:1058D0009847FAE7F0AB0000012270B52A4B03208D
:1058E00086B01A70FFF7E2FFFCF730FA04F045FCCF
:1058F0000420FFF7DBFF254C254D2646AE4204F180
:10590000300410D300F098FD204C224EAC4226D338
:1059100000F0A6FDFAF77EFD1F4A137B23F001037A
:10592000137306B070BD54F80C3C059354F8103C4A
:10593000049354F8143C039354F8183C029354F81D
:105940001C3C019354F8203C009354E90A2354E989
:105950000C0100F0A3FB54F8303C5E65CDE7D4E9C0
:105960000A23B3F1FF3F08BFB2F1FF3F05D052EA6F
:105970000301206803D100F033FE3034C6E731461E
:10598000183000F0C5FFF8E77B23002060A8000076
:1059900060A80000CFA30000C802002008B503489B
:1059A000034A0021121A04F0E4FB08BDE8010020BC
:1059B00080230020C02370B5134E012203FB006634
:1059C000002386B0CDE904230F220193CDE90232F2
:1059D00018234FF4A0720D4D0D4903FB00550446EA
:1059E00002FB00110B4B3046009500F057FB737B18
:1059F0002C7423F004037373074B013403EBC423AB
:105A0000EE606B6006B070BD0802002040200020F0
:105A1000802B00203BA2000080230020BFB5002087
:105A2000FFF744FF2A4B03F5006282F3088883F3F3
:105A30000A880024E023274D274E85F82230EC7792
:105A40002C766C76AC7685F820406B6A234F43F455
:105A5000E0236B6285F82340FCF7B2FBFCF76EFD98
:105A60004FF0FF3340F20112AB62EB621C4B1D4D55
:105A70009A81B360C3E919441C6704F04BFB012011
:105A8000FFF714FF0220FFF711FF00F01DFD164B7A
:105A9000B5610593012315494FF42052CDE9034325
:105AA00028463B46CDE90144009400F0F7FA06464B
:105AB0006A7B284622F004026A7304F05CFC2046EC
:105AC000FFF778FF3A4631462846FCF70FFD00BF46
:105AD0008023002000ED00E040200020D958000085
